{
	"erc20.sol": {
		"CustomToken": {
			"abi": [
				{
					"inputs": [],
					"stateMutability": "nonpayable",
					"type": "constructor"
				},
				{
					"anonymous": false,
					"inputs": [
						{
							"indexed": true,
							"internalType": "address",
							"name": "owner",
							"type": "address"
						},
						{
							"indexed": true,
							"internalType": "address",
							"name": "spender",
							"type": "address"
						},
						{
							"indexed": false,
							"internalType": "uint256",
							"name": "value",
							"type": "uint256"
						}
					],
					"name": "Approval",
					"type": "event"
				},
				{
					"anonymous": false,
					"inputs": [
						{
							"indexed": true,
							"internalType": "address",
							"name": "from",
							"type": "address"
						},
						{
							"indexed": true,
							"internalType": "address",
							"name": "to",
							"type": "address"
						},
						{
							"indexed": false,
							"internalType": "uint256",
							"name": "value",
							"type": "uint256"
						}
					],
					"name": "Transfer",
					"type": "event"
				},
				{
					"inputs": [
						{
							"internalType": "address",
							"name": "owner",
							"type": "address"
						},
						{
							"internalType": "address",
							"name": "spender",
							"type": "address"
						}
					],
					"name": "allowance",
					"outputs": [
						{
							"internalType": "uint256",
							"name": "",
							"type": "uint256"
						}
					],
					"stateMutability": "view",
					"type": "function"
				},
				{
					"inputs": [
						{
							"internalType": "address",
							"name": "spender",
							"type": "address"
						},
						{
							"internalType": "uint256",
							"name": "amount",
							"type": "uint256"
						}
					],
					"name": "approve",
					"outputs": [
						{
							"internalType": "bool",
							"name": "",
							"type": "bool"
						}
					],
					"stateMutability": "nonpayable",
					"type": "function"
				},
				{
					"inputs": [
						{
							"internalType": "address",
							"name": "account",
							"type": "address"
						}
					],
					"name": "balanceOf",
					"outputs": [
						{
							"internalType": "uint256",
							"name": "",
							"type": "uint256"
						}
					],
					"stateMutability": "view",
					"type": "function"
				},
				{
					"inputs": [],
					"name": "decimals",
					"outputs": [
						{
							"internalType": "uint8",
							"name": "",
							"type": "uint8"
						}
					],
					"stateMutability": "view",
					"type": "function"
				},
				{
					"inputs": [
						{
							"internalType": "address",
							"name": "spender",
							"type": "address"
						},
						{
							"internalType": "uint256",
							"name": "subtractedValue",
							"type": "uint256"
						}
					],
					"name": "decreaseAllowance",
					"outputs": [
						{
							"internalType": "bool",
							"name": "",
							"type": "bool"
						}
					],
					"stateMutability": "nonpayable",
					"type": "function"
				},
				{
					"inputs": [],
					"name": "getLatestTransactionTimestamp",
					"outputs": [
						{
							"internalType": "string",
							"name": "",
							"type": "string"
						}
					],
					"stateMutability": "view",
					"type": "function"
				},
				{
					"inputs": [],
					"name": "getTransactionReceiver",
					"outputs": [
						{
							"internalType": "address",
							"name": "",
							"type": "address"
						}
					],
					"stateMutability": "view",
					"type": "function"
				},
				{
					"inputs": [],
					"name": "getTransactionSender",
					"outputs": [
						{
							"internalType": "address",
							"name": "",
							"type": "address"
						}
					],
					"stateMutability": "view",
					"type": "function"
				},
				{
					"inputs": [
						{
							"internalType": "address",
							"name": "spender",
							"type": "address"
						},
						{
							"internalType": "uint256",
							"name": "addedValue",
							"type": "uint256"
						}
					],
					"name": "increaseAllowance",
					"outputs": [
						{
							"internalType": "bool",
							"name": "",
							"type": "bool"
						}
					],
					"stateMutability": "nonpayable",
					"type": "function"
				},
				{
					"inputs": [],
					"name": "name",
					"outputs": [
						{
							"internalType": "string",
							"name": "",
							"type": "string"
						}
					],
					"stateMutability": "view",
					"type": "function"
				},
				{
					"inputs": [],
					"name": "owner",
					"outputs": [
						{
							"internalType": "address",
							"name": "",
							"type": "address"
						}
					],
					"stateMutability": "view",
					"type": "function"
				},
				{
					"inputs": [],
					"name": "symbol",
					"outputs": [
						{
							"internalType": "string",
							"name": "",
							"type": "string"
						}
					],
					"stateMutability": "view",
					"type": "function"
				},
				{
					"inputs": [],
					"name": "totalSupply",
					"outputs": [
						{
							"internalType": "uint256",
							"name": "",
							"type": "uint256"
						}
					],
					"stateMutability": "view",
					"type": "function"
				},
				{
					"inputs": [
						{
							"internalType": "address",
							"name": "recipient",
							"type": "address"
						},
						{
							"internalType": "uint256",
							"name": "amount",
							"type": "uint256"
						}
					],
					"name": "transfer",
					"outputs": [
						{
							"internalType": "bool",
							"name": "",
							"type": "bool"
						}
					],
					"stateMutability": "nonpayable",
					"type": "function"
				},
				{
					"inputs": [
						{
							"internalType": "address",
							"name": "sender",
							"type": "address"
						},
						{
							"internalType": "address",
							"name": "recipient",
							"type": "address"
						},
						{
							"internalType": "uint256",
							"name": "amount",
							"type": "uint256"
						}
					],
					"name": "transferFrom",
					"outputs": [
						{
							"internalType": "bool",
							"name": "",
							"type": "bool"
						}
					],
					"stateMutability": "nonpayable",
					"type": "function"
				}
			],
			"devdoc": {
				"events": {
					"Approval(address,address,uint256)": {
						"details": "Emitted when the allowance of a `spender` for an `owner` is set by a call to {approve}. `value` is the new allowance."
					},
					"Transfer(address,address,uint256)": {
						"details": "Emitted when `value` tokens are moved from one account (`from`) to another (`to`). Note that `value` may be zero."
					}
				},
				"kind": "dev",
				"methods": {
					"allowance(address,address)": {
						"details": "See {IERC20-allowance}."
					},
					"approve(address,uint256)": {
						"details": "See {IERC20-approve}. Requirements: - `spender` cannot be the zero address."
					},
					"balanceOf(address)": {
						"details": "See {IERC20-balanceOf}."
					},
					"decimals()": {
						"details": "Returns the number of decimals used to get its user representation. For example, if `decimals` equals `2`, a balance of `505` tokens should be displayed to a user as `5.05` (`505 / 10 ** 2`). Tokens usually opt for a value of 18, imitating the relationship between Ether and Wei. This is the value {ERC20} uses, unless this function is overridden; NOTE: This information is only used for _display_ purposes: it in no way affects any of the arithmetic of the contract, including {IERC20-balanceOf} and {IERC20-transfer}."
					},
					"decreaseAllowance(address,uint256)": {
						"details": "Atomically decreases the allowance granted to `spender` by the caller. This is an alternative to {approve} that can be used as a mitigation for problems described in {IERC20-approve}. Emits an {Approval} event indicating the updated allowance. Requirements: - `spender` cannot be the zero address. - `spender` must have allowance for the caller of at least `subtractedValue`."
					},
					"increaseAllowance(address,uint256)": {
						"details": "Atomically increases the allowance granted to `spender` by the caller. This is an alternative to {approve} that can be used as a mitigation for problems described in {IERC20-approve}. Emits an {Approval} event indicating the updated allowance. Requirements: - `spender` cannot be the zero address."
					},
					"name()": {
						"details": "Returns the name of the token."
					},
					"symbol()": {
						"details": "Returns the symbol of the token, usually a shorter version of the name."
					},
					"totalSupply()": {
						"details": "See {IERC20-totalSupply}."
					},
					"transfer(address,uint256)": {
						"details": "See {IERC20-transfer}. Requirements: - `recipient` cannot be the zero address. - the caller must have a balance of at least `amount`."
					},
					"transferFrom(address,address,uint256)": {
						"details": "See {IERC20-transferFrom}. Emits an {Approval} event indicating the updated allowance. This is not required by the EIP. See the note at the beginning of {ERC20}. Requirements: - `sender` and `recipient` cannot be the zero address. - `sender` must have a balance of at least `amount`. - the caller must have allowance for ``sender``'s tokens of at least `amount`."
					}
				},
				"version": 1
			},
			"evm": {
				"assembly": "    /* \"erc20.sol\":172:1521  contract CustomToken is ERC20 {... */\n  mstore(0x40, 0x80)\n    /* \"erc20.sol\":238:371  constructor() ERC20(\"<AITU_Sayat>\", \"UNF\") {... */\n  callvalue\n  dup1\n  iszero\n  tag_1\n  jumpi\n  0x00\n  dup1\n  revert\ntag_1:\n  pop\n    /* \"https://github.com/OpenZeppelin/openzeppelin-contracts/blob/v4.4.2/contracts/token/ERC20/ERC20.sol\":1963:2076  constructor(string memory name_, string memory symbol_) {... */\n  mload(0x40)\n  dup1\n  0x40\n  add\n  0x40\n  mstore\n  dup1\n  0x0c\n  dup2\n  mstore\n  0x20\n  add\n  0x3c414954555f53617961743e0000000000000000000000000000000000000000\n  dup2\n  mstore\n  pop\n  mload(0x40)\n  dup1\n  0x40\n  add\n  0x40\n  mstore\n  dup1\n  0x03\n  dup2\n  mstore\n  0x20\n  add\n  0x554e460000000000000000000000000000000000000000000000000000000000\n  dup2\n  mstore\n  pop\n    /* \"https://github.com/OpenZeppelin/openzeppelin-contracts/blob/v4.4.2/contracts/token/ERC20/ERC20.sol\":2037:2042  name_ */\n  dup2\n    /* \"https://github.com/OpenZeppelin/openzeppelin-contracts/blob/v4.4.2/contracts/token/ERC20/ERC20.sol\":2029:2034  _name */\n  0x03\n    /* \"https://github.com/OpenZeppelin/openzeppelin-contracts/blob/v4.4.2/contracts/token/ERC20/ERC20.sol\":2029:2042  _name = name_ */\n  swap1\n  dup2\n  tag_5\n  swap2\n  swap1\n  tag_6\n  jump\t// in\ntag_5:\n  pop\n    /* \"https://github.com/OpenZeppelin/openzeppelin-contracts/blob/v4.4.2/contracts/token/ERC20/ERC20.sol\":2062:2069  symbol_ */\n  dup1\n    /* \"https://github.com/OpenZeppelin/openzeppelin-contracts/blob/v4.4.2/contracts/token/ERC20/ERC20.sol\":2052:2059  _symbol */\n  0x04\n    /* \"https://github.com/OpenZeppelin/openzeppelin-contracts/blob/v4.4.2/contracts/token/ERC20/ERC20.sol\":2052:2069  _symbol = symbol_ */\n  swap1\n  dup2\n  tag_7\n  swap2\n  swap1\n  tag_6\n  jump\t// in\ntag_7:\n  pop\n    /* \"https://github.com/OpenZeppelin/openzeppelin-contracts/blob/v4.4.2/contracts/token/ERC20/ERC20.sol\":1963:2076  constructor(string memory name_, string memory symbol_) {... */\n  pop\n  pop\n    /* \"erc20.sol\":300:310  msg.sender */\n  caller\n    /* \"erc20.sol\":292:297  owner */\n  0x05\n  0x00\n    /* \"erc20.sol\":292:310  owner = msg.sender */\n  0x0100\n  exp\n  dup2\n  sload\n  dup2\n  0xffffffffffffffffffffffffffffffffffffffff\n  mul\n  not\n  and\n  swap1\n  dup4\n  0xffffffffffffffffffffffffffffffffffffffff\n  and\n  mul\n  or\n  swap1\n  sstore\n  pop\n    /* \"erc20.sol\":321:363  _mint(msg.sender, 2000 * (10**decimals())) */\n  tag_9\n    /* \"erc20.sol\":327:337  msg.sender */\n  caller\n    /* \"erc20.sol\":351:361  decimals() */\n  tag_10\n    /* \"erc20.sol\":351:359  decimals */\n  shl(0x20, tag_11)\n    /* \"erc20.sol\":351:361  decimals() */\n  0x20\n  shr\n  jump\t// in\ntag_10:\n    /* \"erc20.sol\":347:349  10 */\n  0x0a\n    /* \"erc20.sol\":347:361  10**decimals() */\n  tag_12\n  swap2\n  swap1\n  tag_13\n  jump\t// in\ntag_12:\n    /* \"erc20.sol\":339:343  2000 */\n  0x07d0\n    /* \"erc20.sol\":339:362  2000 * (10**decimals()) */\n  tag_14\n  swap2\n  swap1\n  tag_15\n  jump\t// in\ntag_14:\n    /* \"erc20.sol\":321:326  _mint */\n  shl(0x20, tag_16)\n    /* \"erc20.sol\":321:363  _mint(msg.sender, 2000 * (10**decimals())) */\n  0x20\n  shr\n  jump\t// in\ntag_9:\n    /* \"erc20.sol\":172:1521  contract CustomToken is ERC20 {... */\n  jump(tag_17)\n    /* \"https://github.com/OpenZeppelin/openzeppelin-contracts/blob/v4.4.2/contracts/token/ERC20/ERC20.sol\":3078:3169  function decimals() public view virtual override returns (uint8) {... */\ntag_11:\n    /* \"https://github.com/OpenZeppelin/openzeppelin-contracts/blob/v4.4.2/contracts/token/ERC20/ERC20.sol\":3136:3141  uint8 */\n  0x00\n    /* \"https://github.com/OpenZeppelin/openzeppelin-contracts/blob/v4.4.2/contracts/token/ERC20/ERC20.sol\":3160:3162  18 */\n  0x12\n    /* \"https://github.com/OpenZeppelin/openzeppelin-contracts/blob/v4.4.2/contracts/token/ERC20/ERC20.sol\":3153:3162  return 18 */\n  swap1\n  pop\n    /* \"https://github.com/OpenZeppelin/openzeppelin-contracts/blob/v4.4.2/contracts/token/ERC20/ERC20.sol\":3078:3169  function decimals() public view virtual override returns (uint8) {... */\n  swap1\n  jump\t// out\n    /* \"https://github.com/OpenZeppelin/openzeppelin-contracts/blob/v4.4.2/contracts/token/ERC20/ERC20.sol\":8311:8700  function _mint(address account, uint256 amount) internal virtual {... */\ntag_16:\n    /* \"https://github.com/OpenZeppelin/openzeppelin-contracts/blob/v4.4.2/contracts/token/ERC20/ERC20.sol\":8413:8414  0 */\n  0x00\n    /* \"https://github.com/OpenZeppelin/openzeppelin-contracts/blob/v4.4.2/contracts/token/ERC20/ERC20.sol\":8394:8415  account != address(0) */\n  0xffffffffffffffffffffffffffffffffffffffff\n  and\n    /* \"https://github.com/OpenZeppelin/openzeppelin-contracts/blob/v4.4.2/contracts/token/ERC20/ERC20.sol\":8394:8401  account */\n  dup3\n    /* \"https://github.com/OpenZeppelin/openzeppelin-contracts/blob/v4.4.2/contracts/token/ERC20/ERC20.sol\":8394:8415  account != address(0) */\n  0xffffffffffffffffffffffffffffffffffffffff\n  and\n  sub\n    /* \"https://github.com/OpenZeppelin/openzeppelin-contracts/blob/v4.4.2/contracts/token/ERC20/ERC20.sol\":8386:8451  require(account != address(0), \"ERC20: mint to the zero address\") */\n  tag_20\n  jumpi\n  mload(0x40)\n  0x08c379a000000000000000000000000000000000000000000000000000000000\n  dup2\n  mstore\n  0x04\n  add\n  tag_21\n  swap1\n  tag_22\n  jump\t// in\ntag_21:\n  mload(0x40)\n  dup1\n  swap2\n  sub\n  swap1\n  revert\ntag_20:\n    /* \"https://github.com/OpenZeppelin/openzeppelin-contracts/blob/v4.4.2/contracts/token/ERC20/ERC20.sol\":8462:8511  _beforeTokenTransfer(address(0), account, amount) */\n  tag_23\n    /* \"https://github.com/OpenZeppelin/openzeppelin-contracts/blob/v4.4.2/contracts/token/ERC20/ERC20.sol\":8491:8492  0 */\n  0x00\n    /* \"https://github.com/OpenZeppelin/openzeppelin-contracts/blob/v4.4.2/contracts/token/ERC20/ERC20.sol\":8495:8502  account */\n  dup4\n    /* \"https://github.com/OpenZeppelin/openzeppelin-contracts/blob/v4.4.2/contracts/token/ERC20/ERC20.sol\":8504:8510  amount */\n  dup4\n    /* \"https://github.com/OpenZeppelin/openzeppelin-contracts/blob/v4.4.2/contracts/token/ERC20/ERC20.sol\":8462:8482  _beforeTokenTransfer */\n  shl(0x20, tag_24)\n    /* \"https://github.com/OpenZeppelin/openzeppelin-contracts/blob/v4.4.2/contracts/token/ERC20/ERC20.sol\":8462:8511  _beforeTokenTransfer(address(0), account, amount) */\n  0x20\n  shr\n  jump\t// in\ntag_23:\n    /* \"https://github.com/OpenZeppelin/openzeppelin-contracts/blob/v4.4.2/contracts/token/ERC20/ERC20.sol\":8538:8544  amount */\n  dup1\n    /* \"https://github.com/OpenZeppelin/openzeppelin-contracts/blob/v4.4.2/contracts/token/ERC20/ERC20.sol\":8522:8534  _totalSupply */\n  0x02\n  0x00\n    /* \"https://github.com/OpenZeppelin/openzeppelin-contracts/blob/v4.4.2/contracts/token/ERC20/ERC20.sol\":8522:8544  _totalSupply += amount */\n  dup3\n  dup3\n  sload\n  tag_25\n  swap2\n  swap1\n  tag_26\n  jump\t// in\ntag_25:\n  swap3\n  pop\n  pop\n  dup2\n  swap1\n  sstore\n  pop\n    /* \"https://github.com/OpenZeppelin/openzeppelin-contracts/blob/v4.4.2/contracts/token/ERC20/ERC20.sol\":8576:8582  amount */\n  dup1\n    /* \"https://github.com/OpenZeppelin/openzeppelin-contracts/blob/v4.4.2/contracts/token/ERC20/ERC20.sol\":8554:8563  _balances */\n  0x00\n    /* \"https://github.com/OpenZeppelin/openzeppelin-contracts/blob/v4.4.2/contracts/token/ERC20/ERC20.sol\":8554:8572  _balances[account] */\n  dup1\n    /* \"https://github.com/OpenZeppelin/openzeppelin-contracts/blob/v4.4.2/contracts/token/ERC20/ERC20.sol\":8564:8571  account */\n  dup5\n    /* \"https://github.com/OpenZeppelin/openzeppelin-contracts/blob/v4.4.2/contracts/token/ERC20/ERC20.sol\":8554:8572  _balances[account] */\n  0xffffffffffffffffffffffffffffffffffffffff\n  and\n  0xffffffffffffffffffffffffffffffffffffffff\n  and\n  dup2\n  mstore\n  0x20\n  add\n  swap1\n  dup2\n  mstore\n  0x20\n  add\n  0x00\n  keccak256\n  0x00\n    /* \"https://github.com/OpenZeppelin/openzeppelin-contracts/blob/v4.4.2/contracts/token/ERC20/ERC20.sol\":8554:8582  _balances[account] += amount */\n  dup3\n  dup3\n  sload\n  tag_27\n  swap2\n  swap1\n  tag_26\n  jump\t// in\ntag_27:\n  swap3\n  pop\n  pop\n  dup2\n  swap1\n  sstore\n  pop\n    /* \"https://github.com/OpenZeppelin/openzeppelin-contracts/blob/v4.4.2/contracts/token/ERC20/ERC20.sol\":8618:8625  account */\n  dup2\n    /* \"https://github.com/OpenZeppelin/openzeppelin-contracts/blob/v4.4.2/contracts/token/ERC20/ERC20.sol\":8597:8634  Transfer(address(0), account, amount) */\n  0xffffffffffffffffffffffffffffffffffffffff\n  and\n    /* \"https://github.com/OpenZeppelin/openzeppelin-contracts/blob/v4.4.2/contracts/token/ERC20/ERC20.sol\":8614:8615  0 */\n  0x00\n    /* \"https://github.com/OpenZeppelin/openzeppelin-contracts/blob/v4.4.2/contracts/token/ERC20/ERC20.sol\":8597:8634  Transfer(address(0), account, amount) */\n  0xffffffffffffffffffffffffffffffffffffffff\n  and\n  0xddf252ad1be2c89b69c2b068fc378daa952ba7f163c4a11628f55a4df523b3ef\n    /* \"https://github.com/OpenZeppelin/openzeppelin-contracts/blob/v4.4.2/contracts/token/ERC20/ERC20.sol\":8627:8633  amount */\n  dup4\n    /* \"https://github.com/OpenZeppelin/openzeppelin-contracts/blob/v4.4.2/contracts/token/ERC20/ERC20.sol\":8597:8634  Transfer(address(0), account, amount) */\n  mload(0x40)\n  tag_28\n  swap2\n  swap1\n  tag_29\n  jump\t// in\ntag_28:\n  mload(0x40)\n  dup1\n  swap2\n  sub\n  swap1\n  log3\n    /* \"https://github.com/OpenZeppelin/openzeppelin-contracts/blob/v4.4.2/contracts/token/ERC20/ERC20.sol\":8645:8693  _afterTokenTransfer(address(0), account, amount) */\n  tag_30\n    /* \"https://github.com/OpenZeppelin/openzeppelin-contracts/blob/v4.4.2/contracts/token/ERC20/ERC20.sol\":8673:8674  0 */\n  0x00\n    /* \"https://github.com/OpenZeppelin/openzeppelin-contracts/blob/v4.4.2/contracts/token/ERC20/ERC20.sol\":8677:8684  account */\n  dup4\n    /* \"https://github.com/OpenZeppelin/openzeppelin-contracts/blob/v4.4.2/contracts/token/ERC20/ERC20.sol\":8686:8692  amount */\n  dup4\n    /* \"https://github.com/OpenZeppelin/openzeppelin-contracts/blob/v4.4.2/contracts/token/ERC20/ERC20.sol\":8645:8664  _afterTokenTransfer */\n  shl(0x20, tag_31)\n    /* \"https://github.com/OpenZeppelin/openzeppelin-contracts/blob/v4.4.2/contracts/token/ERC20/ERC20.sol\":8645:8693  _afterTokenTransfer(address(0), account, amount) */\n  0x20\n  shr\n  jump\t// in\ntag_30:\n    /* \"https://github.com/OpenZeppelin/openzeppelin-contracts/blob/v4.4.2/contracts/token/ERC20/ERC20.sol\":8311:8700  function _mint(address account, uint256 amount) internal virtual {... */\n  pop\n  pop\n  jump\t// out\n    /* \"https://github.com/OpenZeppelin/openzeppelin-contracts/blob/v4.4.2/contracts/token/ERC20/ERC20.sol\":10973:11094  function _beforeTokenTransfer(... */\ntag_24:\n  pop\n  pop\n  pop\n  jump\t// out\n    /* \"https://github.com/OpenZeppelin/openzeppelin-contracts/blob/v4.4.2/contracts/token/ERC20/ERC20.sol\":11682:11802  function _afterTokenTransfer(... */\ntag_31:\n  pop\n  pop\n  pop\n  jump\t// out\n    /* \"#utility.yul\":7:106   */\ntag_34:\n    /* \"#utility.yul\":59:65   */\n  0x00\n    /* \"#utility.yul\":93:98   */\n  dup2\n    /* \"#utility.yul\":87:99   */\n  mload\n    /* \"#utility.yul\":77:99   */\n  swap1\n  pop\n    /* \"#utility.yul\":7:106   */\n  swap2\n  swap1\n  pop\n  jump\t// out\n    /* \"#utility.yul\":112:292   */\ntag_35:\n    /* \"#utility.yul\":160:237   */\n  0x4e487b7100000000000000000000000000000000000000000000000000000000\n    /* \"#utility.yul\":157:158   */\n  0x00\n    /* \"#utility.yul\":150:238   */\n  mstore\n    /* \"#utility.yul\":257:261   */\n  0x41\n    /* \"#utility.yul\":254:255   */\n  0x04\n    /* \"#utility.yul\":247:262   */\n  mstore\n    /* \"#utility.yul\":281:285   */\n  0x24\n    /* \"#utility.yul\":278:279   */\n  0x00\n    /* \"#utility.yul\":271:286   */\n  revert\n    /* \"#utility.yul\":298:478   */\ntag_36:\n    /* \"#utility.yul\":346:423   */\n  0x4e487b7100000000000000000000000000000000000000000000000000000000\n    /* \"#utility.yul\":343:344   */\n  0x00\n    /* \"#utility.yul\":336:424   */\n  mstore\n    /* \"#utility.yul\":443:447   */\n  0x22\n    /* \"#utility.yul\":440:441   */\n  0x04\n    /* \"#utility.yul\":433:448   */\n  mstore\n    /* \"#utility.yul\":467:471   */\n  0x24\n    /* \"#utility.yul\":464:465   */\n  0x00\n    /* \"#utility.yul\":457:472   */\n  revert\n    /* \"#utility.yul\":484:804   */\ntag_37:\n    /* \"#utility.yul\":528:534   */\n  0x00\n    /* \"#utility.yul\":565:566   */\n  0x02\n    /* \"#utility.yul\":559:563   */\n  dup3\n    /* \"#utility.yul\":555:567   */\n  div\n    /* \"#utility.yul\":545:567   */\n  swap1\n  pop\n    /* \"#utility.yul\":612:613   */\n  0x01\n    /* \"#utility.yul\":606:610   */\n  dup3\n    /* \"#utility.yul\":602:614   */\n  and\n    /* \"#utility.yul\":633:651   */\n  dup1\n    /* \"#utility.yul\":623:704   */\n  tag_68\n  jumpi\n    /* \"#utility.yul\":689:693   */\n  0x7f\n    /* \"#utility.yul\":681:687   */\n  dup3\n    /* \"#utility.yul\":677:694   */\n  and\n    /* \"#utility.yul\":667:694   */\n  swap2\n  pop\n    /* \"#utility.yul\":623:704   */\ntag_68:\n    /* \"#utility.yul\":751:753   */\n  0x20\n    /* \"#utility.yul\":743:749   */\n  dup3\n    /* \"#utility.yul\":740:754   */\n  lt\n    /* \"#utility.yul\":720:738   */\n  dup2\n    /* \"#utility.yul\":717:755   */\n  sub\n    /* \"#utility.yul\":714:798   */\n  tag_69\n  jumpi\n    /* \"#utility.yul\":770:788   */\n  tag_70\n  tag_36\n  jump\t// in\ntag_70:\n    /* \"#utility.yul\":714:798   */\ntag_69:\n    /* \"#utility.yul\":535:804   */\n  pop\n    /* \"#utility.yul\":484:804   */\n  swap2\n  swap1\n  pop\n  jump\t// out\n    /* \"#utility.yul\":810:951   */\ntag_38:\n    /* \"#utility.yul\":859:863   */\n  0x00\n    /* \"#utility.yul\":882:885   */\n  dup2\n    /* \"#utility.yul\":874:885   */\n  swap1\n  pop\n    /* \"#utility.yul\":905:908   */\n  dup2\n    /* \"#utility.yul\":902:903   */\n  0x00\n    /* \"#utility.yul\":895:909   */\n  mstore\n    /* \"#utility.yul\":939:943   */\n  0x20\n    /* \"#utility.yul\":936:937   */\n  0x00\n    /* \"#utility.yul\":926:944   */\n  keccak256\n    /* \"#utility.yul\":918:944   */\n  swap1\n  pop\n    /* \"#utility.yul\":810:951   */\n  swap2\n  swap1\n  pop\n  jump\t// out\n    /* \"#utility.yul\":957:1050   */\ntag_39:\n    /* \"#utility.yul\":994:1000   */\n  0x00\n    /* \"#utility.yul\":1041:1043   */\n  0x20\n    /* \"#utility.yul\":1036:1038   */\n  0x1f\n    /* \"#utility.yul\":1029:1034   */\n  dup4\n    /* \"#utility.yul\":1025:1039   */\n  add\n    /* \"#utility.yul\":1021:1044   */\n  div\n    /* \"#utility.yul\":1011:1044   */\n  swap1\n  pop\n    /* \"#utility.yul\":957:1050   */\n  swap2\n  swap1\n  pop\n  jump\t// out\n    /* \"#utility.yul\":1056:1163   */\ntag_40:\n    /* \"#utility.yul\":1100:1108   */\n  0x00\n    /* \"#utility.yul\":1150:1155   */\n  dup3\n    /* \"#utility.yul\":1144:1148   */\n  dup3\n    /* \"#utility.yul\":1140:1156   */\n  shl\n    /* \"#utility.yul\":1119:1156   */\n  swap1\n  pop\n    /* \"#utility.yul\":1056:1163   */\n  swap3\n  swap2\n  pop\n  pop\n  jump\t// out\n    /* \"#utility.yul\":1169:1562   */\ntag_41:\n    /* \"#utility.yul\":1238:1244   */\n  0x00\n    /* \"#utility.yul\":1288:1289   */\n  0x08\n    /* \"#utility.yul\":1276:1286   */\n  dup4\n    /* \"#utility.yul\":1272:1290   */\n  mul\n    /* \"#utility.yul\":1311:1408   */\n  tag_75\n    /* \"#utility.yul\":1341:1407   */\n  0xffffffffffffffffffffffffffffffffffffffffffffffffffffffffffffffff\n    /* \"#utility.yul\":1330:1339   */\n  dup3\n    /* \"#utility.yul\":1311:1408   */\n  tag_40\n  jump\t// in\ntag_75:\n    /* \"#utility.yul\":1429:1468   */\n  tag_76\n    /* \"#utility.yul\":1459:1467   */\n  dup7\n    /* \"#utility.yul\":1448:1457   */\n  dup4\n    /* \"#utility.yul\":1429:1468   */\n  tag_40\n  jump\t// in\ntag_76:\n    /* \"#utility.yul\":1417:1468   */\n  swap6\n  pop\n    /* \"#utility.yul\":1501:1505   */\n  dup1\n    /* \"#utility.yul\":1497:1506   */\n  not\n    /* \"#utility.yul\":1490:1495   */\n  dup5\n    /* \"#utility.yul\":1486:1507   */\n  and\n    /* \"#utility.yul\":1477:1507   */\n  swap4\n  pop\n    /* \"#utility.yul\":1550:1554   */\n  dup1\n    /* \"#utility.yul\":1540:1548   */\n  dup7\n    /* \"#utility.yul\":1536:1555   */\n  and\n    /* \"#utility.yul\":1529:1534   */\n  dup5\n    /* \"#utility.yul\":1526:1556   */\n  or\n    /* \"#utility.yul\":1516:1556   */\n  swap3\n  pop\n    /* \"#utility.yul\":1245:1562   */\n  pop\n  pop\n    /* \"#utility.yul\":1169:1562   */\n  swap4\n  swap3\n  pop\n  pop\n  pop\n  jump\t// out\n    /* \"#utility.yul\":1568:1645   */\ntag_42:\n    /* \"#utility.yul\":1605:1612   */\n  0x00\n    /* \"#utility.yul\":1634:1639   */\n  dup2\n    /* \"#utility.yul\":1623:1639   */\n  swap1\n  pop\n    /* \"#utility.yul\":1568:1645   */\n  swap2\n  swap1\n  pop\n  jump\t// out\n    /* \"#utility.yul\":1651:1711   */\ntag_43:\n    /* \"#utility.yul\":1679:1682   */\n  0x00\n    /* \"#utility.yul\":1700:1705   */\n  dup2\n    /* \"#utility.yul\":1693:1705   */\n  swap1\n  pop\n    /* \"#utility.yul\":1651:1711   */\n  swap2\n  swap1\n  pop\n  jump\t// out\n    /* \"#utility.yul\":1717:1859   */\ntag_44:\n    /* \"#utility.yul\":1767:1776   */\n  0x00\n    /* \"#utility.yul\":1800:1853   */\n  tag_80\n    /* \"#utility.yul\":1818:1852   */\n  tag_81\n    /* \"#utility.yul\":1827:1851   */\n  tag_82\n    /* \"#utility.yul\":1845:1850   */\n  dup5\n    /* \"#utility.yul\":1827:1851   */\n  tag_42\n  jump\t// in\ntag_82:\n    /* \"#utility.yul\":1818:1852   */\n  tag_43\n  jump\t// in\ntag_81:\n    /* \"#utility.yul\":1800:1853   */\n  tag_42\n  jump\t// in\ntag_80:\n    /* \"#utility.yul\":1787:1853   */\n  swap1\n  pop\n    /* \"#utility.yul\":1717:1859   */\n  swap2\n  swap1\n  pop\n  jump\t// out\n    /* \"#utility.yul\":1865:1940   */\ntag_45:\n    /* \"#utility.yul\":1908:1911   */\n  0x00\n    /* \"#utility.yul\":1929:1934   */\n  dup2\n    /* \"#utility.yul\":1922:1934   */\n  swap1\n  pop\n    /* \"#utility.yul\":1865:1940   */\n  swap2\n  swap1\n  pop\n  jump\t// out\n    /* \"#utility.yul\":1946:2215   */\ntag_46:\n    /* \"#utility.yul\":2056:2095   */\n  tag_85\n    /* \"#utility.yul\":2087:2094   */\n  dup4\n    /* \"#utility.yul\":2056:2095   */\n  tag_44\n  jump\t// in\ntag_85:\n    /* \"#utility.yul\":2117:2208   */\n  tag_86\n    /* \"#utility.yul\":2166:2207   */\n  tag_87\n    /* \"#utility.yul\":2190:2206   */\n  dup3\n    /* \"#utility.yul\":2166:2207   */\n  tag_45\n  jump\t// in\ntag_87:\n    /* \"#utility.yul\":2158:2164   */\n  dup5\n    /* \"#utility.yul\":2151:2155   */\n  dup5\n    /* \"#utility.yul\":2145:2156   */\n  sload\n    /* \"#utility.yul\":2117:2208   */\n  tag_41\n  jump\t// in\ntag_86:\n    /* \"#utility.yul\":2111:2115   */\n  dup3\n    /* \"#utility.yul\":2104:2209   */\n  sstore\n    /* \"#utility.yul\":2022:2215   */\n  pop\n    /* \"#utility.yul\":1946:2215   */\n  pop\n  pop\n  pop\n  jump\t// out\n    /* \"#utility.yul\":2221:2294   */\ntag_47:\n    /* \"#utility.yul\":2266:2269   */\n  0x00\n    /* \"#utility.yul\":2221:2294   */\n  swap1\n  jump\t// out\n    /* \"#utility.yul\":2300:2489   */\ntag_48:\n    /* \"#utility.yul\":2377:2409   */\n  tag_90\n  tag_47\n  jump\t// in\ntag_90:\n    /* \"#utility.yul\":2418:2483   */\n  tag_91\n    /* \"#utility.yul\":2476:2482   */\n  dup2\n    /* \"#utility.yul\":2468:2474   */\n  dup5\n    /* \"#utility.yul\":2462:2466   */\n  dup5\n    /* \"#utility.yul\":2418:2483   */\n  tag_46\n  jump\t// in\ntag_91:\n    /* \"#utility.yul\":2353:2489   */\n  pop\n    /* \"#utility.yul\":2300:2489   */\n  pop\n  pop\n  jump\t// out\n    /* \"#utility.yul\":2495:2681   */\ntag_49:\n    /* \"#utility.yul\":2555:2675   */\ntag_93:\n    /* \"#utility.yul\":2572:2575   */\n  dup2\n    /* \"#utility.yul\":2565:2570   */\n  dup2\n    /* \"#utility.yul\":2562:2576   */\n  lt\n    /* \"#utility.yul\":2555:2675   */\n  iszero\n  tag_95\n  jumpi\n    /* \"#utility.yul\":2626:2665   */\n  tag_96\n    /* \"#utility.yul\":2663:2664   */\n  0x00\n    /* \"#utility.yul\":2656:2661   */\n  dup3\n    /* \"#utility.yul\":2626:2665   */\n  tag_48\n  jump\t// in\ntag_96:\n    /* \"#utility.yul\":2599:2600   */\n  0x01\n    /* \"#utility.yul\":2592:2597   */\n  dup2\n    /* \"#utility.yul\":2588:2601   */\n  add\n    /* \"#utility.yul\":2579:2601   */\n  swap1\n  pop\n    /* \"#utility.yul\":2555:2675   */\n  jump(tag_93)\ntag_95:\n    /* \"#utility.yul\":2495:2681   */\n  pop\n  pop\n  jump\t// out\n    /* \"#utility.yul\":2687:3230   */\ntag_50:\n    /* \"#utility.yul\":2788:2790   */\n  0x1f\n    /* \"#utility.yul\":2783:2786   */\n  dup3\n    /* \"#utility.yul\":2780:2791   */\n  gt\n    /* \"#utility.yul\":2777:3223   */\n  iszero\n  tag_98\n  jumpi\n    /* \"#utility.yul\":2822:2860   */\n  tag_99\n    /* \"#utility.yul\":2854:2859   */\n  dup2\n    /* \"#utility.yul\":2822:2860   */\n  tag_38\n  jump\t// in\ntag_99:\n    /* \"#utility.yul\":2906:2935   */\n  tag_100\n    /* \"#utility.yul\":2924:2934   */\n  dup5\n    /* \"#utility.yul\":2906:2935   */\n  tag_39\n  jump\t// in\ntag_100:\n    /* \"#utility.yul\":2896:2904   */\n  dup2\n    /* \"#utility.yul\":2892:2936   */\n  add\n    /* \"#utility.yul\":3089:3091   */\n  0x20\n    /* \"#utility.yul\":3077:3087   */\n  dup6\n    /* \"#utility.yul\":3074:3092   */\n  lt\n    /* \"#utility.yul\":3071:3120   */\n  iszero\n  tag_101\n  jumpi\n    /* \"#utility.yul\":3110:3118   */\n  dup2\n    /* \"#utility.yul\":3095:3118   */\n  swap1\n  pop\n    /* \"#utility.yul\":3071:3120   */\ntag_101:\n    /* \"#utility.yul\":3133:3213   */\n  tag_102\n    /* \"#utility.yul\":3189:3211   */\n  tag_103\n    /* \"#utility.yul\":3207:3210   */\n  dup6\n    /* \"#utility.yul\":3189:3211   */\n  tag_39\n  jump\t// in\ntag_103:\n    /* \"#utility.yul\":3179:3187   */\n  dup4\n    /* \"#utility.yul\":3175:3212   */\n  add\n    /* \"#utility.yul\":3162:3173   */\n  dup3\n    /* \"#utility.yul\":3133:3213   */\n  tag_49\n  jump\t// in\ntag_102:\n    /* \"#utility.yul\":2792:3223   */\n  pop\n  pop\n    /* \"#utility.yul\":2777:3223   */\ntag_98:\n    /* \"#utility.yul\":2687:3230   */\n  pop\n  pop\n  pop\n  jump\t// out\n    /* \"#utility.yul\":3236:3353   */\ntag_51:\n    /* \"#utility.yul\":3290:3298   */\n  0x00\n    /* \"#utility.yul\":3340:3345   */\n  dup3\n    /* \"#utility.yul\":3334:3338   */\n  dup3\n    /* \"#utility.yul\":3330:3346   */\n  shr\n    /* \"#utility.yul\":3309:3346   */\n  swap1\n  pop\n    /* \"#utility.yul\":3236:3353   */\n  swap3\n  swap2\n  pop\n  pop\n  jump\t// out\n    /* \"#utility.yul\":3359:3528   */\ntag_52:\n    /* \"#utility.yul\":3403:3409   */\n  0x00\n    /* \"#utility.yul\":3436:3487   */\n  tag_106\n    /* \"#utility.yul\":3484:3485   */\n  0x00\n    /* \"#utility.yul\":3480:3486   */\n  not\n    /* \"#utility.yul\":3472:3477   */\n  dup5\n    /* \"#utility.yul\":3469:3470   */\n  0x08\n    /* \"#utility.yul\":3465:3478   */\n  mul\n    /* \"#utility.yul\":3436:3487   */\n  tag_51\n  jump\t// in\ntag_106:\n    /* \"#utility.yul\":3432:3488   */\n  not\n    /* \"#utility.yul\":3517:3521   */\n  dup1\n    /* \"#utility.yul\":3511:3515   */\n  dup4\n    /* \"#utility.yul\":3507:3522   */\n  and\n    /* \"#utility.yul\":3497:3522   */\n  swap2\n  pop\n    /* \"#utility.yul\":3410:3528   */\n  pop\n    /* \"#utility.yul\":3359:3528   */\n  swap3\n  swap2\n  pop\n  pop\n  jump\t// out\n    /* \"#utility.yul\":3533:3828   */\ntag_53:\n    /* \"#utility.yul\":3609:3613   */\n  0x00\n    /* \"#utility.yul\":3755:3784   */\n  tag_108\n    /* \"#utility.yul\":3780:3783   */\n  dup4\n    /* \"#utility.yul\":3774:3778   */\n  dup4\n    /* \"#utility.yul\":3755:3784   */\n  tag_52\n  jump\t// in\ntag_108:\n    /* \"#utility.yul\":3747:3784   */\n  swap2\n  pop\n    /* \"#utility.yul\":3817:3820   */\n  dup3\n    /* \"#utility.yul\":3814:3815   */\n  0x02\n    /* \"#utility.yul\":3810:3821   */\n  mul\n    /* \"#utility.yul\":3804:3808   */\n  dup3\n    /* \"#utility.yul\":3801:3822   */\n  or\n    /* \"#utility.yul\":3793:3822   */\n  swap1\n  pop\n    /* \"#utility.yul\":3533:3828   */\n  swap3\n  swap2\n  pop\n  pop\n  jump\t// out\n    /* \"#utility.yul\":3833:5228   */\ntag_6:\n    /* \"#utility.yul\":3950:3987   */\n  tag_110\n    /* \"#utility.yul\":3983:3986   */\n  dup3\n    /* \"#utility.yul\":3950:3987   */\n  tag_34\n  jump\t// in\ntag_110:\n    /* \"#utility.yul\":4052:4070   */\n  0xffffffffffffffff\n    /* \"#utility.yul\":4044:4050   */\n  dup2\n    /* \"#utility.yul\":4041:4071   */\n  gt\n    /* \"#utility.yul\":4038:4094   */\n  iszero\n  tag_111\n  jumpi\n    /* \"#utility.yul\":4074:4092   */\n  tag_112\n  tag_35\n  jump\t// in\ntag_112:\n    /* \"#utility.yul\":4038:4094   */\ntag_111:\n    /* \"#utility.yul\":4118:4156   */\n  tag_113\n    /* \"#utility.yul\":4150:4154   */\n  dup3\n    /* \"#utility.yul\":4144:4155   */\n  sload\n    /* \"#utility.yul\":4118:4156   */\n  tag_37\n  jump\t// in\ntag_113:\n    /* \"#utility.yul\":4203:4270   */\n  tag_114\n    /* \"#utility.yul\":4263:4269   */\n  dup3\n    /* \"#utility.yul\":4255:4261   */\n  dup3\n    /* \"#utility.yul\":4249:4253   */\n  dup6\n    /* \"#utility.yul\":4203:4270   */\n  tag_50\n  jump\t// in\ntag_114:\n    /* \"#utility.yul\":4297:4298   */\n  0x00\n    /* \"#utility.yul\":4321:4325   */\n  0x20\n    /* \"#utility.yul\":4308:4325   */\n  swap1\n  pop\n    /* \"#utility.yul\":4353:4355   */\n  0x1f\n    /* \"#utility.yul\":4345:4351   */\n  dup4\n    /* \"#utility.yul\":4342:4356   */\n  gt\n    /* \"#utility.yul\":4370:4371   */\n  0x01\n    /* \"#utility.yul\":4365:4983   */\n  dup2\n  eq\n  tag_116\n  jumpi\n    /* \"#utility.yul\":5027:5028   */\n  0x00\n    /* \"#utility.yul\":5044:5050   */\n  dup5\n    /* \"#utility.yul\":5041:5118   */\n  iszero\n  tag_117\n  jumpi\n    /* \"#utility.yul\":5093:5102   */\n  dup3\n    /* \"#utility.yul\":5088:5091   */\n  dup8\n    /* \"#utility.yul\":5084:5103   */\n  add\n    /* \"#utility.yul\":5078:5104   */\n  mload\n    /* \"#utility.yul\":5069:5104   */\n  swap1\n  pop\n    /* \"#utility.yul\":5041:5118   */\ntag_117:\n    /* \"#utility.yul\":5144:5211   */\n  tag_118\n    /* \"#utility.yul\":5204:5210   */\n  dup6\n    /* \"#utility.yul\":5197:5202   */\n  dup3\n    /* \"#utility.yul\":5144:5211   */\n  tag_53\n  jump\t// in\ntag_118:\n    /* \"#utility.yul\":5138:5142   */\n  dup7\n    /* \"#utility.yul\":5131:5212   */\n  sstore\n    /* \"#utility.yul\":5000:5222   */\n  pop\n    /* \"#utility.yul\":4335:5222   */\n  jump(tag_115)\n    /* \"#utility.yul\":4365:4983   */\ntag_116:\n    /* \"#utility.yul\":4417:4421   */\n  0x1f\n    /* \"#utility.yul\":4413:4422   */\n  not\n    /* \"#utility.yul\":4405:4411   */\n  dup5\n    /* \"#utility.yul\":4401:4423   */\n  and\n    /* \"#utility.yul\":4451:4488   */\n  tag_119\n    /* \"#utility.yul\":4483:4487   */\n  dup7\n    /* \"#utility.yul\":4451:4488   */\n  tag_38\n  jump\t// in\ntag_119:\n    /* \"#utility.yul\":4510:4511   */\n  0x00\n    /* \"#utility.yul\":4524:4732   */\ntag_120:\n    /* \"#utility.yul\":4538:4545   */\n  dup3\n    /* \"#utility.yul\":4535:4536   */\n  dup2\n    /* \"#utility.yul\":4532:4546   */\n  lt\n    /* \"#utility.yul\":4524:4732   */\n  iszero\n  tag_122\n  jumpi\n    /* \"#utility.yul\":4617:4626   */\n  dup5\n    /* \"#utility.yul\":4612:4615   */\n  dup10\n    /* \"#utility.yul\":4608:4627   */\n  add\n    /* \"#utility.yul\":4602:4628   */\n  mload\n    /* \"#utility.yul\":4594:4600   */\n  dup3\n    /* \"#utility.yul\":4587:4629   */\n  sstore\n    /* \"#utility.yul\":4668:4669   */\n  0x01\n    /* \"#utility.yul\":4660:4666   */\n  dup3\n    /* \"#utility.yul\":4656:4670   */\n  add\n    /* \"#utility.yul\":4646:4670   */\n  swap2\n  pop\n    /* \"#utility.yul\":4715:4717   */\n  0x20\n    /* \"#utility.yul\":4704:4713   */\n  dup6\n    /* \"#utility.yul\":4700:4718   */\n  add\n    /* \"#utility.yul\":4687:4718   */\n  swap5\n  pop\n    /* \"#utility.yul\":4561:4565   */\n  0x20\n    /* \"#utility.yul\":4558:4559   */\n  dup2\n    /* \"#utility.yul\":4554:4566   */\n  add\n    /* \"#utility.yul\":4549:4566   */\n  swap1\n  pop\n    /* \"#utility.yul\":4524:4732   */\n  jump(tag_120)\ntag_122:\n    /* \"#utility.yul\":4760:4766   */\n  dup7\n    /* \"#utility.yul\":4751:4758   */\n  dup4\n    /* \"#utility.yul\":4748:4767   */\n  lt\n    /* \"#utility.yul\":4745:4924   */\n  iszero\n  tag_123\n  jumpi\n    /* \"#utility.yul\":4818:4827   */\n  dup5\n    /* \"#utility.yul\":4813:4816   */\n  dup10\n    /* \"#utility.yul\":4809:4828   */\n  add\n    /* \"#utility.yul\":4803:4829   */\n  mload\n    /* \"#utility.yul\":4861:4909   */\n  tag_124\n    /* \"#utility.yul\":4903:4907   */\n  0x1f\n    /* \"#utility.yul\":4895:4901   */\n  dup10\n    /* \"#utility.yul\":4891:4908   */\n  and\n    /* \"#utility.yul\":4880:4889   */\n  dup3\n    /* \"#utility.yul\":4861:4909   */\n  tag_52\n  jump\t// in\ntag_124:\n    /* \"#utility.yul\":4853:4859   */\n  dup4\n    /* \"#utility.yul\":4846:4910   */\n  sstore\n    /* \"#utility.yul\":4768:4924   */\n  pop\n    /* \"#utility.yul\":4745:4924   */\ntag_123:\n    /* \"#utility.yul\":4970:4971   */\n  0x01\n    /* \"#utility.yul\":4966:4967   */\n  0x02\n    /* \"#utility.yul\":4958:4964   */\n  dup9\n    /* \"#utility.yul\":4954:4968   */\n  mul\n    /* \"#utility.yul\":4950:4972   */\n  add\n    /* \"#utility.yul\":4944:4948   */\n  dup9\n    /* \"#utility.yul\":4937:4973   */\n  sstore\n    /* \"#utility.yul\":4372:4983   */\n  pop\n  pop\n  pop\n    /* \"#utility.yul\":4335:5222   */\ntag_115:\n  pop\n    /* \"#utility.yul\":3925:5228   */\n  pop\n  pop\n  pop\n    /* \"#utility.yul\":3833:5228   */\n  pop\n  pop\n  jump\t// out\n    /* \"#utility.yul\":5234:5414   */\ntag_54:\n    /* \"#utility.yul\":5282:5359   */\n  0x4e487b7100000000000000000000000000000000000000000000000000000000\n    /* \"#utility.yul\":5279:5280   */\n  0x00\n    /* \"#utility.yul\":5272:5360   */\n  mstore\n    /* \"#utility.yul\":5379:5383   */\n  0x11\n    /* \"#utility.yul\":5376:5377   */\n  0x04\n    /* \"#utility.yul\":5369:5384   */\n  mstore\n    /* \"#utility.yul\":5403:5407   */\n  0x24\n    /* \"#utility.yul\":5400:5401   */\n  0x00\n    /* \"#utility.yul\":5393:5408   */\n  revert\n    /* \"#utility.yul\":5420:5522   */\ntag_55:\n    /* \"#utility.yul\":5462:5470   */\n  0x00\n    /* \"#utility.yul\":5509:5514   */\n  dup2\n    /* \"#utility.yul\":5506:5507   */\n  0x01\n    /* \"#utility.yul\":5502:5515   */\n  shr\n    /* \"#utility.yul\":5481:5515   */\n  swap1\n  pop\n    /* \"#utility.yul\":5420:5522   */\n  swap2\n  swap1\n  pop\n  jump\t// out\n    /* \"#utility.yul\":5528:6376   */\ntag_56:\n    /* \"#utility.yul\":5589:5594   */\n  0x00\n    /* \"#utility.yul\":5596:5600   */\n  dup1\n    /* \"#utility.yul\":5620:5626   */\n  dup3\n    /* \"#utility.yul\":5611:5626   */\n  swap2\n  pop\n    /* \"#utility.yul\":5644:5649   */\n  dup4\n    /* \"#utility.yul\":5635:5649   */\n  swap1\n  pop\n    /* \"#utility.yul\":5658:6370   */\ntag_128:\n    /* \"#utility.yul\":5679:5680   */\n  0x01\n    /* \"#utility.yul\":5669:5677   */\n  dup6\n    /* \"#utility.yul\":5666:5681   */\n  gt\n    /* \"#utility.yul\":5658:6370   */\n  iszero\n  tag_130\n  jumpi\n    /* \"#utility.yul\":5774:5778   */\n  dup1\n    /* \"#utility.yul\":5769:5772   */\n  dup7\n    /* \"#utility.yul\":5765:5779   */\n  div\n    /* \"#utility.yul\":5759:5763   */\n  dup2\n    /* \"#utility.yul\":5756:5780   */\n  gt\n    /* \"#utility.yul\":5753:5803   */\n  iszero\n  tag_131\n  jumpi\n    /* \"#utility.yul\":5783:5801   */\n  tag_132\n  tag_54\n  jump\t// in\ntag_132:\n    /* \"#utility.yul\":5753:5803   */\ntag_131:\n    /* \"#utility.yul\":5833:5834   */\n  0x01\n    /* \"#utility.yul\":5823:5831   */\n  dup6\n    /* \"#utility.yul\":5819:5835   */\n  and\n    /* \"#utility.yul\":5816:6267   */\n  iszero\n  tag_133\n  jumpi\n    /* \"#utility.yul\":6248:6252   */\n  dup1\n    /* \"#utility.yul\":6241:6246   */\n  dup3\n    /* \"#utility.yul\":6237:6253   */\n  mul\n    /* \"#utility.yul\":6228:6253   */\n  swap2\n  pop\n    /* \"#utility.yul\":5816:6267   */\ntag_133:\n    /* \"#utility.yul\":6298:6302   */\n  dup1\n    /* \"#utility.yul\":6292:6296   */\n  dup2\n    /* \"#utility.yul\":6288:6303   */\n  mul\n    /* \"#utility.yul\":6280:6303   */\n  swap1\n  pop\n    /* \"#utility.yul\":6328:6360   */\n  tag_134\n    /* \"#utility.yul\":6351:6359   */\n  dup6\n    /* \"#utility.yul\":6328:6360   */\n  tag_55\n  jump\t// in\ntag_134:\n    /* \"#utility.yul\":6316:6360   */\n  swap5\n  pop\n    /* \"#utility.yul\":5658:6370   */\n  jump(tag_128)\ntag_130:\n    /* \"#utility.yul\":5528:6376   */\n  swap5\n  pop\n  swap5\n  swap3\n  pop\n  pop\n  pop\n  jump\t// out\n    /* \"#utility.yul\":6382:7455   */\ntag_57:\n    /* \"#utility.yul\":6436:6441   */\n  0x00\n    /* \"#utility.yul\":6627:6635   */\n  dup3\n    /* \"#utility.yul\":6617:6657   */\n  tag_136\n  jumpi\n    /* \"#utility.yul\":6648:6649   */\n  0x01\n    /* \"#utility.yul\":6639:6649   */\n  swap1\n  pop\n    /* \"#utility.yul\":6650:6655   */\n  jump(tag_135)\n    /* \"#utility.yul\":6617:6657   */\ntag_136:\n    /* \"#utility.yul\":6676:6680   */\n  dup2\n    /* \"#utility.yul\":6666:6702   */\n  tag_137\n  jumpi\n    /* \"#utility.yul\":6693:6694   */\n  0x00\n    /* \"#utility.yul\":6684:6694   */\n  swap1\n  pop\n    /* \"#utility.yul\":6695:6700   */\n  jump(tag_135)\n    /* \"#utility.yul\":6666:6702   */\ntag_137:\n    /* \"#utility.yul\":6762:6766   */\n  dup2\n    /* \"#utility.yul\":6810:6811   */\n  0x01\n    /* \"#utility.yul\":6805:6832   */\n  dup2\n  eq\n  tag_139\n  jumpi\n    /* \"#utility.yul\":6846:6847   */\n  0x02\n    /* \"#utility.yul\":6841:7032   */\n  dup2\n  eq\n  tag_140\n  jumpi\n    /* \"#utility.yul\":6755:7032   */\n  jump(tag_138)\n    /* \"#utility.yul\":6805:6832   */\ntag_139:\n    /* \"#utility.yul\":6823:6824   */\n  0x01\n    /* \"#utility.yul\":6814:6824   */\n  swap2\n  pop\n    /* \"#utility.yul\":6825:6830   */\n  pop\n  jump(tag_135)\n    /* \"#utility.yul\":6841:7032   */\ntag_140:\n    /* \"#utility.yul\":6886:6889   */\n  0xff\n    /* \"#utility.yul\":6876:6884   */\n  dup5\n    /* \"#utility.yul\":6873:6890   */\n  gt\n    /* \"#utility.yul\":6870:6913   */\n  iszero\n  tag_141\n  jumpi\n    /* \"#utility.yul\":6893:6911   */\n  tag_142\n  tag_54\n  jump\t// in\ntag_142:\n    /* \"#utility.yul\":6870:6913   */\ntag_141:\n    /* \"#utility.yul\":6942:6950   */\n  dup4\n    /* \"#utility.yul\":6939:6940   */\n  0x02\n    /* \"#utility.yul\":6935:6951   */\n  exp\n    /* \"#utility.yul\":6926:6951   */\n  swap2\n  pop\n    /* \"#utility.yul\":6977:6980   */\n  dup5\n    /* \"#utility.yul\":6970:6975   */\n  dup3\n    /* \"#utility.yul\":6967:6981   */\n  gt\n    /* \"#utility.yul\":6964:7004   */\n  iszero\n  tag_143\n  jumpi\n    /* \"#utility.yul\":6984:7002   */\n  tag_144\n  tag_54\n  jump\t// in\ntag_144:\n    /* \"#utility.yul\":6964:7004   */\ntag_143:\n    /* \"#utility.yul\":7017:7022   */\n  pop\n  jump(tag_135)\n    /* \"#utility.yul\":6755:7032   */\ntag_138:\n  pop\n    /* \"#utility.yul\":7141:7143   */\n  0x20\n    /* \"#utility.yul\":7131:7139   */\n  dup4\n    /* \"#utility.yul\":7128:7144   */\n  lt\n    /* \"#utility.yul\":7122:7125   */\n  0x0133\n    /* \"#utility.yul\":7116:7120   */\n  dup4\n    /* \"#utility.yul\":7113:7126   */\n  lt\n    /* \"#utility.yul\":7109:7145   */\n  and\n    /* \"#utility.yul\":7091:7093   */\n  0x4e\n    /* \"#utility.yul\":7081:7089   */\n  dup5\n    /* \"#utility.yul\":7078:7094   */\n  lt\n    /* \"#utility.yul\":7073:7075   */\n  0x0b\n    /* \"#utility.yul\":7067:7071   */\n  dup5\n    /* \"#utility.yul\":7064:7076   */\n  lt\n    /* \"#utility.yul\":7060:7095   */\n  and\n    /* \"#utility.yul\":7044:7155   */\n  or\n    /* \"#utility.yul\":7041:7287   */\n  iszero\n  tag_145\n  jumpi\n    /* \"#utility.yul\":7197:7205   */\n  dup3\n    /* \"#utility.yul\":7191:7195   */\n  dup3\n    /* \"#utility.yul\":7187:7206   */\n  exp\n    /* \"#utility.yul\":7178:7206   */\n  swap1\n  pop\n    /* \"#utility.yul\":7232:7235   */\n  dup4\n    /* \"#utility.yul\":7225:7230   */\n  dup2\n    /* \"#utility.yul\":7222:7236   */\n  gt\n    /* \"#utility.yul\":7219:7259   */\n  iszero\n  tag_146\n  jumpi\n    /* \"#utility.yul\":7239:7257   */\n  tag_147\n  tag_54\n  jump\t// in\ntag_147:\n    /* \"#utility.yul\":7219:7259   */\ntag_146:\n    /* \"#utility.yul\":7272:7277   */\n  jump(tag_135)\n    /* \"#utility.yul\":7041:7287   */\ntag_145:\n    /* \"#utility.yul\":7312:7354   */\n  tag_148\n    /* \"#utility.yul\":7350:7353   */\n  dup5\n    /* \"#utility.yul\":7340:7348   */\n  dup5\n    /* \"#utility.yul\":7334:7338   */\n  dup5\n    /* \"#utility.yul\":7331:7332   */\n  0x01\n    /* \"#utility.yul\":7312:7354   */\n  tag_56\n  jump\t// in\ntag_148:\n    /* \"#utility.yul\":7297:7354   */\n  swap3\n  pop\n  swap1\n  pop\n    /* \"#utility.yul\":7386:7390   */\n  dup2\n    /* \"#utility.yul\":7381:7384   */\n  dup5\n    /* \"#utility.yul\":7377:7391   */\n  div\n    /* \"#utility.yul\":7370:7375   */\n  dup2\n    /* \"#utility.yul\":7367:7392   */\n  gt\n    /* \"#utility.yul\":7364:7415   */\n  iszero\n  tag_149\n  jumpi\n    /* \"#utility.yul\":7395:7413   */\n  tag_150\n  tag_54\n  jump\t// in\ntag_150:\n    /* \"#utility.yul\":7364:7415   */\ntag_149:\n    /* \"#utility.yul\":7444:7448   */\n  dup2\n    /* \"#utility.yul\":7437:7442   */\n  dup2\n    /* \"#utility.yul\":7433:7449   */\n  mul\n    /* \"#utility.yul\":7424:7449   */\n  swap1\n  pop\n    /* \"#utility.yul\":6382:7455   */\ntag_135:\n  swap4\n  swap3\n  pop\n  pop\n  pop\n  jump\t// out\n    /* \"#utility.yul\":7461:7547   */\ntag_58:\n    /* \"#utility.yul\":7496:7503   */\n  0x00\n    /* \"#utility.yul\":7536:7540   */\n  0xff\n    /* \"#utility.yul\":7529:7534   */\n  dup3\n    /* \"#utility.yul\":7525:7541   */\n  and\n    /* \"#utility.yul\":7514:7541   */\n  swap1\n  pop\n    /* \"#utility.yul\":7461:7547   */\n  swap2\n  swap1\n  pop\n  jump\t// out\n    /* \"#utility.yul\":7553:7834   */\ntag_13:\n    /* \"#utility.yul\":7611:7616   */\n  0x00\n    /* \"#utility.yul\":7635:7658   */\n  tag_153\n    /* \"#utility.yul\":7653:7657   */\n  dup3\n    /* \"#utility.yul\":7635:7658   */\n  tag_42\n  jump\t// in\ntag_153:\n    /* \"#utility.yul\":7627:7658   */\n  swap2\n  pop\n    /* \"#utility.yul\":7679:7704   */\n  tag_154\n    /* \"#utility.yul\":7695:7703   */\n  dup4\n    /* \"#utility.yul\":7679:7704   */\n  tag_58\n  jump\t// in\ntag_154:\n    /* \"#utility.yul\":7667:7704   */\n  swap3\n  pop\n    /* \"#utility.yul\":7723:7827   */\n  tag_155\n    /* \"#utility.yul\":7760:7826   */\n  0xffffffffffffffffffffffffffffffffffffffffffffffffffffffffffffffff\n    /* \"#utility.yul\":7750:7758   */\n  dup5\n    /* \"#utility.yul\":7744:7748   */\n  dup5\n    /* \"#utility.yul\":7723:7827   */\n  tag_57\n  jump\t// in\ntag_155:\n    /* \"#utility.yul\":7714:7827   */\n  swap1\n  pop\n    /* \"#utility.yul\":7553:7834   */\n  swap3\n  swap2\n  pop\n  pop\n  jump\t// out\n    /* \"#utility.yul\":7840:8250   */\ntag_15:\n    /* \"#utility.yul\":7880:7887   */\n  0x00\n    /* \"#utility.yul\":7903:7923   */\n  tag_157\n    /* \"#utility.yul\":7921:7922   */\n  dup3\n    /* \"#utility.yul\":7903:7923   */\n  tag_42\n  jump\t// in\ntag_157:\n    /* \"#utility.yul\":7898:7923   */\n  swap2\n  pop\n    /* \"#utility.yul\":7937:7957   */\n  tag_158\n    /* \"#utility.yul\":7955:7956   */\n  dup4\n    /* \"#utility.yul\":7937:7957   */\n  tag_42\n  jump\t// in\ntag_158:\n    /* \"#utility.yul\":7932:7957   */\n  swap3\n  pop\n    /* \"#utility.yul\":7992:7993   */\n  dup3\n    /* \"#utility.yul\":7989:7990   */\n  dup3\n    /* \"#utility.yul\":7985:7994   */\n  mul\n    /* \"#utility.yul\":8014:8044   */\n  tag_159\n    /* \"#utility.yul\":8032:8043   */\n  dup2\n    /* \"#utility.yul\":8014:8044   */\n  tag_42\n  jump\t// in\ntag_159:\n    /* \"#utility.yul\":8003:8044   */\n  swap2\n  pop\n    /* \"#utility.yul\":8193:8194   */\n  dup3\n    /* \"#utility.yul\":8184:8191   */\n  dup3\n    /* \"#utility.yul\":8180:8195   */\n  div\n    /* \"#utility.yul\":8177:8178   */\n  dup5\n    /* \"#utility.yul\":8174:8196   */\n  eq\n    /* \"#utility.yul\":8154:8155   */\n  dup4\n    /* \"#utility.yul\":8147:8156   */\n  iszero\n    /* \"#utility.yul\":8127:8210   */\n  or\n    /* \"#utility.yul\":8104:8243   */\n  tag_160\n  jumpi\n    /* \"#utility.yul\":8223:8241   */\n  tag_161\n  tag_54\n  jump\t// in\ntag_161:\n    /* \"#utility.yul\":8104:8243   */\ntag_160:\n    /* \"#utility.yul\":7888:8250   */\n  pop\n    /* \"#utility.yul\":7840:8250   */\n  swap3\n  swap2\n  pop\n  pop\n  jump\t// out\n    /* \"#utility.yul\":8256:8425   */\ntag_59:\n    /* \"#utility.yul\":8340:8351   */\n  0x00\n    /* \"#utility.yul\":8374:8380   */\n  dup3\n    /* \"#utility.yul\":8369:8372   */\n  dup3\n    /* \"#utility.yul\":8362:8381   */\n  mstore\n    /* \"#utility.yul\":8414:8418   */\n  0x20\n    /* \"#utility.yul\":8409:8412   */\n  dup3\n    /* \"#utility.yul\":8405:8419   */\n  add\n    /* \"#utility.yul\":8390:8419   */\n  swap1\n  pop\n    /* \"#utility.yul\":8256:8425   */\n  swap3\n  swap2\n  pop\n  pop\n  jump\t// out\n    /* \"#utility.yul\":8431:8612   */\ntag_60:\n    /* \"#utility.yul\":8571:8604   */\n  0x45524332303a206d696e7420746f20746865207a65726f206164647265737300\n    /* \"#utility.yul\":8567:8568   */\n  0x00\n    /* \"#utility.yul\":8559:8565   */\n  dup3\n    /* \"#utility.yul\":8555:8569   */\n  add\n    /* \"#utility.yul\":8548:8605   */\n  mstore\n    /* \"#utility.yul\":8431:8612   */\n  pop\n  jump\t// out\n    /* \"#utility.yul\":8618:8984   */\ntag_61:\n    /* \"#utility.yul\":8760:8763   */\n  0x00\n    /* \"#utility.yul\":8781:8848   */\n  tag_165\n    /* \"#utility.yul\":8845:8847   */\n  0x1f\n    /* \"#utility.yul\":8840:8843   */\n  dup4\n    /* \"#utility.yul\":8781:8848   */\n  tag_59\n  jump\t// in\ntag_165:\n    /* \"#utility.yul\":8774:8848   */\n  swap2\n  pop\n    /* \"#utility.yul\":8857:8950   */\n  tag_166\n    /* \"#utility.yul\":8946:8949   */\n  dup3\n    /* \"#utility.yul\":8857:8950   */\n  tag_60\n  jump\t// in\ntag_166:\n    /* \"#utility.yul\":8975:8977   */\n  0x20\n    /* \"#utility.yul\":8970:8973   */\n  dup3\n    /* \"#utility.yul\":8966:8978   */\n  add\n    /* \"#utility.yul\":8959:8978   */\n  swap1\n  pop\n    /* \"#utility.yul\":8618:8984   */\n  swap2\n  swap1\n  pop\n  jump\t// out\n    /* \"#utility.yul\":8990:9409   */\ntag_22:\n    /* \"#utility.yul\":9156:9160   */\n  0x00\n    /* \"#utility.yul\":9194:9196   */\n  0x20\n    /* \"#utility.yul\":9183:9192   */\n  dup3\n    /* \"#utility.yul\":9179:9197   */\n  add\n    /* \"#utility.yul\":9171:9197   */\n  swap1\n  pop\n    /* \"#utility.yul\":9243:9252   */\n  dup2\n    /* \"#utility.yul\":9237:9241   */\n  dup2\n    /* \"#utility.yul\":9233:9253   */\n  sub\n    /* \"#utility.yul\":9229:9230   */\n  0x00\n    /* \"#utility.yul\":9218:9227   */\n  dup4\n    /* \"#utility.yul\":9214:9231   */\n  add\n    /* \"#utility.yul\":9207:9254   */\n  mstore\n    /* \"#utility.yul\":9271:9402   */\n  tag_168\n    /* \"#utility.yul\":9397:9401   */\n  dup2\n    /* \"#utility.yul\":9271:9402   */\n  tag_61\n  jump\t// in\ntag_168:\n    /* \"#utility.yul\":9263:9402   */\n  swap1\n  pop\n    /* \"#utility.yul\":8990:9409   */\n  swap2\n  swap1\n  pop\n  jump\t// out\n    /* \"#utility.yul\":9415:9606   */\ntag_26:\n    /* \"#utility.yul\":9455:9458   */\n  0x00\n    /* \"#utility.yul\":9474:9494   */\n  tag_170\n    /* \"#utility.yul\":9492:9493   */\n  dup3\n    /* \"#utility.yul\":9474:9494   */\n  tag_42\n  jump\t// in\ntag_170:\n    /* \"#utility.yul\":9469:9494   */\n  swap2\n  pop\n    /* \"#utility.yul\":9508:9528   */\n  tag_171\n    /* \"#utility.yul\":9526:9527   */\n  dup4\n    /* \"#utility.yul\":9508:9528   */\n  tag_42\n  jump\t// in\ntag_171:\n    /* \"#utility.yul\":9503:9528   */\n  swap3\n  pop\n    /* \"#utility.yul\":9551:9552   */\n  dup3\n    /* \"#utility.yul\":9548:9549   */\n  dup3\n    /* \"#utility.yul\":9544:9553   */\n  add\n    /* \"#utility.yul\":9537:9553   */\n  swap1\n  pop\n    /* \"#utility.yul\":9572:9575   */\n  dup1\n    /* \"#utility.yul\":9569:9570   */\n  dup3\n    /* \"#utility.yul\":9566:9576   */\n  gt\n    /* \"#utility.yul\":9563:9599   */\n  iszero\n  tag_172\n  jumpi\n    /* \"#utility.yul\":9579:9597   */\n  tag_173\n  tag_54\n  jump\t// in\ntag_173:\n    /* \"#utility.yul\":9563:9599   */\ntag_172:\n    /* \"#utility.yul\":9415:9606   */\n  swap3\n  swap2\n  pop\n  pop\n  jump\t// out\n    /* \"#utility.yul\":9612:9730   */\ntag_62:\n    /* \"#utility.yul\":9699:9723   */\n  tag_175\n    /* \"#utility.yul\":9717:9722   */\n  dup2\n    /* \"#utility.yul\":9699:9723   */\n  tag_42\n  jump\t// in\ntag_175:\n    /* \"#utility.yul\":9694:9697   */\n  dup3\n    /* \"#utility.yul\":9687:9724   */\n  mstore\n    /* \"#utility.yul\":9612:9730   */\n  pop\n  pop\n  jump\t// out\n    /* \"#utility.yul\":9736:9958   */\ntag_29:\n    /* \"#utility.yul\":9829:9833   */\n  0x00\n    /* \"#utility.yul\":9867:9869   */\n  0x20\n    /* \"#utility.yul\":9856:9865   */\n  dup3\n    /* \"#utility.yul\":9852:9870   */\n  add\n    /* \"#utility.yul\":9844:9870   */\n  swap1\n  pop\n    /* \"#utility.yul\":9880:9951   */\n  tag_177\n    /* \"#utility.yul\":9948:9949   */\n  0x00\n    /* \"#utility.yul\":9937:9946   */\n  dup4\n    /* \"#utility.yul\":9933:9950   */\n  add\n    /* \"#utility.yul\":9924:9930   */\n  dup5\n    /* \"#utility.yul\":9880:9951   */\n  tag_62\n  jump\t// in\ntag_177:\n    /* \"#utility.yul\":9736:9958   */\n  swap3\n  swap2\n  pop\n  pop\n  jump\t// out\n    /* \"erc20.sol\":172:1521  contract CustomToken is ERC20 {... */\ntag_17:\n  dataSize(sub_0)\n  dup1\n  dataOffset(sub_0)\n  0x00\n  codecopy\n  0x00\n  return\nstop\n\nsub_0: assembly {\n        /* \"erc20.sol\":172:1521  contract CustomToken is ERC20 {... */\n      mstore(0x40, 0x80)\n      callvalue\n      dup1\n      iszero\n      tag_1\n      jumpi\n      0x00\n      dup1\n      revert\n    tag_1:\n      pop\n      jumpi(tag_2, lt(calldatasize, 0x04))\n      shr(0xe0, calldataload(0x00))\n      dup1\n      0x841b39fc\n      gt\n      tag_18\n      jumpi\n      dup1\n      0xa9059cbb\n      gt\n      tag_19\n      jumpi\n      dup1\n      0xa9059cbb\n      eq\n      tag_14\n      jumpi\n      dup1\n      0xbead3f50\n      eq\n      tag_15\n      jumpi\n      dup1\n      0xd45e3f4a\n      eq\n      tag_16\n      jumpi\n      dup1\n      0xdd62ed3e\n      eq\n      tag_17\n      jumpi\n      jump(tag_2)\n    tag_19:\n      dup1\n      0x841b39fc\n      eq\n      tag_10\n      jumpi\n      dup1\n      0x8da5cb5b\n      eq\n      tag_11\n      jumpi\n      dup1\n      0x95d89b41\n      eq\n      tag_12\n      jumpi\n      dup1\n      0xa457c2d7\n      eq\n      tag_13\n      jumpi\n      jump(tag_2)\n    tag_18:\n      dup1\n      0x23b872dd\n      gt\n      tag_20\n      jumpi\n      dup1\n      0x23b872dd\n      eq\n      tag_6\n      jumpi\n      dup1\n      0x313ce567\n      eq\n      tag_7\n      jumpi\n      dup1\n      0x39509351\n      eq\n      tag_8\n      jumpi\n      dup1\n      0x70a08231\n      eq\n      tag_9\n      jumpi\n      jump(tag_2)\n    tag_20:\n      dup1\n      0x06fdde03\n      eq\n      tag_3\n      jumpi\n      dup1\n      0x095ea7b3\n      eq\n      tag_4\n      jumpi\n      dup1\n      0x18160ddd\n      eq\n      tag_5\n      jumpi\n    tag_2:\n      0x00\n      dup1\n      revert\n        /* \"https://github.com/OpenZeppelin/openzeppelin-contracts/blob/v4.4.2/contracts/token/ERC20/ERC20.sol\":2141:2239  function name() public view virtual override returns (string memory) {... */\n    tag_3:\n      tag_21\n      tag_22\n      jump\t// in\n    tag_21:\n      mload(0x40)\n      tag_23\n      swap2\n      swap1\n      tag_24\n      jump\t// in\n    tag_23:\n      mload(0x40)\n      dup1\n      swap2\n      sub\n      swap1\n      return\n        /* \"https://github.com/OpenZeppelin/openzeppelin-contracts/blob/v4.4.2/contracts/token/ERC20/ERC20.sol\":4238:4404  function approve(address spender, uint256 amount) public virtual override returns (bool) {... */\n    tag_4:\n      tag_25\n      0x04\n      dup1\n      calldatasize\n      sub\n      dup2\n      add\n      swap1\n      tag_26\n      swap2\n      swap1\n      tag_27\n      jump\t// in\n    tag_26:\n      tag_28\n      jump\t// in\n    tag_25:\n      mload(0x40)\n      tag_29\n      swap2\n      swap1\n      tag_30\n      jump\t// in\n    tag_29:\n      mload(0x40)\n      dup1\n      swap2\n      sub\n      swap1\n      return\n        /* \"https://github.com/OpenZeppelin/openzeppelin-contracts/blob/v4.4.2/contracts/token/ERC20/ERC20.sol\":3229:3335  function totalSupply() public view virtual override returns (uint256) {... */\n    tag_5:\n      tag_31\n      tag_32\n      jump\t// in\n    tag_31:\n      mload(0x40)\n      tag_33\n      swap2\n      swap1\n      tag_34\n      jump\t// in\n    tag_33:\n      mload(0x40)\n      dup1\n      swap2\n      sub\n      swap1\n      return\n        /* \"https://github.com/OpenZeppelin/openzeppelin-contracts/blob/v4.4.2/contracts/token/ERC20/ERC20.sol\":4871:5349  function transferFrom(... */\n    tag_6:\n      tag_35\n      0x04\n      dup1\n      calldatasize\n      sub\n      dup2\n      add\n      swap1\n      tag_36\n      swap2\n      swap1\n      tag_37\n      jump\t// in\n    tag_36:\n      tag_38\n      jump\t// in\n    tag_35:\n      mload(0x40)\n      tag_39\n      swap2\n      swap1\n      tag_30\n      jump\t// in\n    tag_39:\n      mload(0x40)\n      dup1\n      swap2\n      sub\n      swap1\n      return\n        /* \"https://github.com/OpenZeppelin/openzeppelin-contracts/blob/v4.4.2/contracts/token/ERC20/ERC20.sol\":3078:3169  function decimals() public view virtual override returns (uint8) {... */\n    tag_7:\n      tag_40\n      tag_41\n      jump\t// in\n    tag_40:\n      mload(0x40)\n      tag_42\n      swap2\n      swap1\n      tag_43\n      jump\t// in\n    tag_42:\n      mload(0x40)\n      dup1\n      swap2\n      sub\n      swap1\n      return\n        /* \"https://github.com/OpenZeppelin/openzeppelin-contracts/blob/v4.4.2/contracts/token/ERC20/ERC20.sol\":5744:5956  function increaseAllowance(address spender, uint256 addedValue) public virtual returns (bool) {... */\n    tag_8:\n      tag_44\n      0x04\n      dup1\n      calldatasize\n      sub\n      dup2\n      add\n      swap1\n      tag_45\n      swap2\n      swap1\n      tag_27\n      jump\t// in\n    tag_45:\n      tag_46\n      jump\t// in\n    tag_44:\n      mload(0x40)\n      tag_47\n      swap2\n      swap1\n      tag_30\n      jump\t// in\n    tag_47:\n      mload(0x40)\n      dup1\n      swap2\n      sub\n      swap1\n      return\n        /* \"https://github.com/OpenZeppelin/openzeppelin-contracts/blob/v4.4.2/contracts/token/ERC20/ERC20.sol\":3393:3518  function balanceOf(address account) public view virtual override returns (uint256) {... */\n    tag_9:\n      tag_48\n      0x04\n      dup1\n      calldatasize\n      sub\n      dup2\n      add\n      swap1\n      tag_49\n      swap2\n      swap1\n      tag_50\n      jump\t// in\n    tag_49:\n      tag_51\n      jump\t// in\n    tag_48:\n      mload(0x40)\n      tag_52\n      swap2\n      swap1\n      tag_34\n      jump\t// in\n    tag_52:\n      mload(0x40)\n      dup1\n      swap2\n      sub\n      swap1\n      return\n        /* \"erc20.sol\":866:969  function getTransactionReceiver() public view returns (address) {... */\n    tag_10:\n      tag_53\n      tag_54\n      jump\t// in\n    tag_53:\n      mload(0x40)\n      tag_55\n      swap2\n      swap1\n      tag_56\n      jump\t// in\n    tag_55:\n      mload(0x40)\n      dup1\n      swap2\n      sub\n      swap1\n      return\n        /* \"erc20.sol\":209:229  address public owner */\n    tag_11:\n      tag_57\n      tag_58\n      jump\t// in\n    tag_57:\n      mload(0x40)\n      tag_59\n      swap2\n      swap1\n      tag_56\n      jump\t// in\n    tag_59:\n      mload(0x40)\n      dup1\n      swap2\n      sub\n      swap1\n      return\n        /* \"https://github.com/OpenZeppelin/openzeppelin-contracts/blob/v4.4.2/contracts/token/ERC20/ERC20.sol\":2352:2454  function symbol() public view virtual override returns (string memory) {... */\n    tag_12:\n      tag_60\n      tag_61\n      jump\t// in\n    tag_60:\n      mload(0x40)\n      tag_62\n      swap2\n      swap1\n      tag_24\n      jump\t// in\n    tag_62:\n      mload(0x40)\n      dup1\n      swap2\n      sub\n      swap1\n      return\n        /* \"https://github.com/OpenZeppelin/openzeppelin-contracts/blob/v4.4.2/contracts/token/ERC20/ERC20.sol\":6443:6848  function decreaseAllowance(address spender, uint256 subtractedValue) public virtual returns (bool) {... */\n    tag_13:\n      tag_63\n      0x04\n      dup1\n      calldatasize\n      sub\n      dup2\n      add\n      swap1\n      tag_64\n      swap2\n      swap1\n      tag_27\n      jump\t// in\n    tag_64:\n      tag_65\n      jump\t// in\n    tag_63:\n      mload(0x40)\n      tag_66\n      swap2\n      swap1\n      tag_30\n      jump\t// in\n    tag_66:\n      mload(0x40)\n      dup1\n      swap2\n      sub\n      swap1\n      return\n        /* \"https://github.com/OpenZeppelin/openzeppelin-contracts/blob/v4.4.2/contracts/token/ERC20/ERC20.sol\":3721:3893  function transfer(address recipient, uint256 amount) public virtual override returns (bool) {... */\n    tag_14:\n      tag_67\n      0x04\n      dup1\n      calldatasize\n      sub\n      dup2\n      add\n      swap1\n      tag_68\n      swap2\n      swap1\n      tag_27\n      jump\t// in\n    tag_68:\n      tag_69\n      jump\t// in\n    tag_67:\n      mload(0x40)\n      tag_70\n      swap2\n      swap1\n      tag_30\n      jump\t// in\n    tag_70:\n      mload(0x40)\n      dup1\n      swap2\n      sub\n      swap1\n      return\n        /* \"erc20.sol\":691:789  function getTransactionSender() public view returns (address) {... */\n    tag_15:\n      tag_71\n      tag_72\n      jump\t// in\n    tag_71:\n      mload(0x40)\n      tag_73\n      swap2\n      swap1\n      tag_56\n      jump\t// in\n    tag_73:\n      mload(0x40)\n      dup1\n      swap2\n      sub\n      swap1\n      return\n        /* \"erc20.sol\":479:616  function getLatestTransactionTimestamp() public view returns (string memory) {... */\n    tag_16:\n      tag_74\n      tag_75\n      jump\t// in\n    tag_74:\n      mload(0x40)\n      tag_76\n      swap2\n      swap1\n      tag_24\n      jump\t// in\n    tag_76:\n      mload(0x40)\n      dup1\n      swap2\n      sub\n      swap1\n      return\n        /* \"https://github.com/OpenZeppelin/openzeppelin-contracts/blob/v4.4.2/contracts/token/ERC20/ERC20.sol\":3951:4100  function allowance(address owner, address spender) public view virtual override returns (uint256) {... */\n    tag_17:\n      tag_77\n      0x04\n      dup1\n      calldatasize\n      sub\n      dup2\n      add\n      swap1\n      tag_78\n      swap2\n      swap1\n      tag_79\n      jump\t// in\n    tag_78:\n      tag_80\n      jump\t// in\n    tag_77:\n      mload(0x40)\n      tag_81\n      swap2\n      swap1\n      tag_34\n      jump\t// in\n    tag_81:\n      mload(0x40)\n      dup1\n      swap2\n      sub\n      swap1\n      return\n        /* \"https://github.com/OpenZeppelin/openzeppelin-contracts/blob/v4.4.2/contracts/token/ERC20/ERC20.sol\":2141:2239  function name() public view virtual override returns (string memory) {... */\n    tag_22:\n        /* \"https://github.com/OpenZeppelin/openzeppelin-contracts/blob/v4.4.2/contracts/token/ERC20/ERC20.sol\":2195:2208  string memory */\n      0x60\n        /* \"https://github.com/OpenZeppelin/openzeppelin-contracts/blob/v4.4.2/contracts/token/ERC20/ERC20.sol\":2227:2232  _name */\n      0x03\n        /* \"https://github.com/OpenZeppelin/openzeppelin-contracts/blob/v4.4.2/contracts/token/ERC20/ERC20.sol\":2220:2232  return _name */\n      dup1\n      sload\n      tag_83\n      swap1\n      tag_84\n      jump\t// in\n    tag_83:\n      dup1\n      0x1f\n      add\n      0x20\n      dup1\n      swap2\n      div\n      mul\n      0x20\n      add\n      mload(0x40)\n      swap1\n      dup2\n      add\n      0x40\n      mstore\n      dup1\n      swap3\n      swap2\n      swap1\n      dup2\n      dup2\n      mstore\n      0x20\n      add\n      dup3\n      dup1\n      sload\n      tag_85\n      swap1\n      tag_84\n      jump\t// in\n    tag_85:\n      dup1\n      iszero\n      tag_86\n      jumpi\n      dup1\n      0x1f\n      lt\n      tag_87\n      jumpi\n      0x0100\n      dup1\n      dup4\n      sload\n      div\n      mul\n      dup4\n      mstore\n      swap2\n      0x20\n      add\n      swap2\n      jump(tag_86)\n    tag_87:\n      dup3\n      add\n      swap2\n      swap1\n      0x00\n      mstore\n      keccak256(0x00, 0x20)\n      swap1\n    tag_88:\n      dup2\n      sload\n      dup2\n      mstore\n      swap1\n      0x01\n      add\n      swap1\n      0x20\n      add\n      dup1\n      dup4\n      gt\n      tag_88\n      jumpi\n      dup3\n      swap1\n      sub\n      0x1f\n      and\n      dup3\n      add\n      swap2\n    tag_86:\n      pop\n      pop\n      pop\n      pop\n      pop\n      swap1\n      pop\n        /* \"https://github.com/OpenZeppelin/openzeppelin-contracts/blob/v4.4.2/contracts/token/ERC20/ERC20.sol\":2141:2239  function name() public view virtual override returns (string memory) {... */\n      swap1\n      jump\t// out\n        /* \"https://github.com/OpenZeppelin/openzeppelin-contracts/blob/v4.4.2/contracts/token/ERC20/ERC20.sol\":4238:4404  function approve(address spender, uint256 amount) public virtual override returns (bool) {... */\n    tag_28:\n        /* \"https://github.com/OpenZeppelin/openzeppelin-contracts/blob/v4.4.2/contracts/token/ERC20/ERC20.sol\":4321:4325  bool */\n      0x00\n        /* \"https://github.com/OpenZeppelin/openzeppelin-contracts/blob/v4.4.2/contracts/token/ERC20/ERC20.sol\":4337:4376  _approve(_msgSender(), spender, amount) */\n      tag_90\n        /* \"https://github.com/OpenZeppelin/openzeppelin-contracts/blob/v4.4.2/contracts/token/ERC20/ERC20.sol\":4346:4358  _msgSender() */\n      tag_91\n        /* \"https://github.com/OpenZeppelin/openzeppelin-contracts/blob/v4.4.2/contracts/token/ERC20/ERC20.sol\":4346:4356  _msgSender */\n      tag_92\n        /* \"https://github.com/OpenZeppelin/openzeppelin-contracts/blob/v4.4.2/contracts/token/ERC20/ERC20.sol\":4346:4358  _msgSender() */\n      jump\t// in\n    tag_91:\n        /* \"https://github.com/OpenZeppelin/openzeppelin-contracts/blob/v4.4.2/contracts/token/ERC20/ERC20.sol\":4360:4367  spender */\n      dup5\n        /* \"https://github.com/OpenZeppelin/openzeppelin-contracts/blob/v4.4.2/contracts/token/ERC20/ERC20.sol\":4369:4375  amount */\n      dup5\n        /* \"https://github.com/OpenZeppelin/openzeppelin-contracts/blob/v4.4.2/contracts/token/ERC20/ERC20.sol\":4337:4345  _approve */\n      tag_93\n        /* \"https://github.com/OpenZeppelin/openzeppelin-contracts/blob/v4.4.2/contracts/token/ERC20/ERC20.sol\":4337:4376  _approve(_msgSender(), spender, amount) */\n      jump\t// in\n    tag_90:\n        /* \"https://github.com/OpenZeppelin/openzeppelin-contracts/blob/v4.4.2/contracts/token/ERC20/ERC20.sol\":4393:4397  true */\n      0x01\n        /* \"https://github.com/OpenZeppelin/openzeppelin-contracts/blob/v4.4.2/contracts/token/ERC20/ERC20.sol\":4386:4397  return true */\n      swap1\n      pop\n        /* \"https://github.com/OpenZeppelin/openzeppelin-contracts/blob/v4.4.2/contracts/token/ERC20/ERC20.sol\":4238:4404  function approve(address spender, uint256 amount) public virtual override returns (bool) {... */\n      swap3\n      swap2\n      pop\n      pop\n      jump\t// out\n        /* \"https://github.com/OpenZeppelin/openzeppelin-contracts/blob/v4.4.2/contracts/token/ERC20/ERC20.sol\":3229:3335  function totalSupply() public view virtual override returns (uint256) {... */\n    tag_32:\n        /* \"https://github.com/OpenZeppelin/openzeppelin-contracts/blob/v4.4.2/contracts/token/ERC20/ERC20.sol\":3290:3297  uint256 */\n      0x00\n        /* \"https://github.com/OpenZeppelin/openzeppelin-contracts/blob/v4.4.2/contracts/token/ERC20/ERC20.sol\":3316:3328  _totalSupply */\n      sload(0x02)\n        /* \"https://github.com/OpenZeppelin/openzeppelin-contracts/blob/v4.4.2/contracts/token/ERC20/ERC20.sol\":3309:3328  return _totalSupply */\n      swap1\n      pop\n        /* \"https://github.com/OpenZeppelin/openzeppelin-contracts/blob/v4.4.2/contracts/token/ERC20/ERC20.sol\":3229:3335  function totalSupply() public view virtual override returns (uint256) {... */\n      swap1\n      jump\t// out\n        /* \"https://github.com/OpenZeppelin/openzeppelin-contracts/blob/v4.4.2/contracts/token/ERC20/ERC20.sol\":4871:5349  function transferFrom(... */\n    tag_38:\n        /* \"https://github.com/OpenZeppelin/openzeppelin-contracts/blob/v4.4.2/contracts/token/ERC20/ERC20.sol\":5007:5011  bool */\n      0x00\n        /* \"https://github.com/OpenZeppelin/openzeppelin-contracts/blob/v4.4.2/contracts/token/ERC20/ERC20.sol\":5023:5059  _transfer(sender, recipient, amount) */\n      tag_96\n        /* \"https://github.com/OpenZeppelin/openzeppelin-contracts/blob/v4.4.2/contracts/token/ERC20/ERC20.sol\":5033:5039  sender */\n      dup5\n        /* \"https://github.com/OpenZeppelin/openzeppelin-contracts/blob/v4.4.2/contracts/token/ERC20/ERC20.sol\":5041:5050  recipient */\n      dup5\n        /* \"https://github.com/OpenZeppelin/openzeppelin-contracts/blob/v4.4.2/contracts/token/ERC20/ERC20.sol\":5052:5058  amount */\n      dup5\n        /* \"https://github.com/OpenZeppelin/openzeppelin-contracts/blob/v4.4.2/contracts/token/ERC20/ERC20.sol\":5023:5032  _transfer */\n      tag_97\n        /* \"https://github.com/OpenZeppelin/openzeppelin-contracts/blob/v4.4.2/contracts/token/ERC20/ERC20.sol\":5023:5059  _transfer(sender, recipient, amount) */\n      jump\t// in\n    tag_96:\n        /* \"https://github.com/OpenZeppelin/openzeppelin-contracts/blob/v4.4.2/contracts/token/ERC20/ERC20.sol\":5070:5094  uint256 currentAllowance */\n      0x00\n        /* \"https://github.com/OpenZeppelin/openzeppelin-contracts/blob/v4.4.2/contracts/token/ERC20/ERC20.sol\":5097:5108  _allowances */\n      0x01\n        /* \"https://github.com/OpenZeppelin/openzeppelin-contracts/blob/v4.4.2/contracts/token/ERC20/ERC20.sol\":5097:5116  _allowances[sender] */\n      0x00\n        /* \"https://github.com/OpenZeppelin/openzeppelin-contracts/blob/v4.4.2/contracts/token/ERC20/ERC20.sol\":5109:5115  sender */\n      dup7\n        /* \"https://github.com/OpenZeppelin/openzeppelin-contracts/blob/v4.4.2/contracts/token/ERC20/ERC20.sol\":5097:5116  _allowances[sender] */\n      0xffffffffffffffffffffffffffffffffffffffff\n      and\n      0xffffffffffffffffffffffffffffffffffffffff\n      and\n      dup2\n      mstore\n      0x20\n      add\n      swap1\n      dup2\n      mstore\n      0x20\n      add\n      0x00\n      keccak256\n        /* \"https://github.com/OpenZeppelin/openzeppelin-contracts/blob/v4.4.2/contracts/token/ERC20/ERC20.sol\":5097:5130  _allowances[sender][_msgSender()] */\n      0x00\n        /* \"https://github.com/OpenZeppelin/openzeppelin-contracts/blob/v4.4.2/contracts/token/ERC20/ERC20.sol\":5117:5129  _msgSender() */\n      tag_98\n        /* \"https://github.com/OpenZeppelin/openzeppelin-contracts/blob/v4.4.2/contracts/token/ERC20/ERC20.sol\":5117:5127  _msgSender */\n      tag_92\n        /* \"https://github.com/OpenZeppelin/openzeppelin-contracts/blob/v4.4.2/contracts/token/ERC20/ERC20.sol\":5117:5129  _msgSender() */\n      jump\t// in\n    tag_98:\n        /* \"https://github.com/OpenZeppelin/openzeppelin-contracts/blob/v4.4.2/contracts/token/ERC20/ERC20.sol\":5097:5130  _allowances[sender][_msgSender()] */\n      0xffffffffffffffffffffffffffffffffffffffff\n      and\n      0xffffffffffffffffffffffffffffffffffffffff\n      and\n      dup2\n      mstore\n      0x20\n      add\n      swap1\n      dup2\n      mstore\n      0x20\n      add\n      0x00\n      keccak256\n      sload\n        /* \"https://github.com/OpenZeppelin/openzeppelin-contracts/blob/v4.4.2/contracts/token/ERC20/ERC20.sol\":5070:5130  uint256 currentAllowance = _allowances[sender][_msgSender()] */\n      swap1\n      pop\n        /* \"https://github.com/OpenZeppelin/openzeppelin-contracts/blob/v4.4.2/contracts/token/ERC20/ERC20.sol\":5168:5174  amount */\n      dup3\n        /* \"https://github.com/OpenZeppelin/openzeppelin-contracts/blob/v4.4.2/contracts/token/ERC20/ERC20.sol\":5148:5164  currentAllowance */\n      dup2\n        /* \"https://github.com/OpenZeppelin/openzeppelin-contracts/blob/v4.4.2/contracts/token/ERC20/ERC20.sol\":5148:5174  currentAllowance >= amount */\n      lt\n      iszero\n        /* \"https://github.com/OpenZeppelin/openzeppelin-contracts/blob/v4.4.2/contracts/token/ERC20/ERC20.sol\":5140:5219  require(currentAllowance >= amount, \"ERC20: transfer amount exceeds allowance\") */\n      tag_99\n      jumpi\n      mload(0x40)\n      0x08c379a000000000000000000000000000000000000000000000000000000000\n      dup2\n      mstore\n      0x04\n      add\n      tag_100\n      swap1\n      tag_101\n      jump\t// in\n    tag_100:\n      mload(0x40)\n      dup1\n      swap2\n      sub\n      swap1\n      revert\n    tag_99:\n        /* \"https://github.com/OpenZeppelin/openzeppelin-contracts/blob/v4.4.2/contracts/token/ERC20/ERC20.sol\":5253:5310  _approve(sender, _msgSender(), currentAllowance - amount) */\n      tag_102\n        /* \"https://github.com/OpenZeppelin/openzeppelin-contracts/blob/v4.4.2/contracts/token/ERC20/ERC20.sol\":5262:5268  sender */\n      dup6\n        /* \"https://github.com/OpenZeppelin/openzeppelin-contracts/blob/v4.4.2/contracts/token/ERC20/ERC20.sol\":5270:5282  _msgSender() */\n      tag_103\n        /* \"https://github.com/OpenZeppelin/openzeppelin-contracts/blob/v4.4.2/contracts/token/ERC20/ERC20.sol\":5270:5280  _msgSender */\n      tag_92\n        /* \"https://github.com/OpenZeppelin/openzeppelin-contracts/blob/v4.4.2/contracts/token/ERC20/ERC20.sol\":5270:5282  _msgSender() */\n      jump\t// in\n    tag_103:\n        /* \"https://github.com/OpenZeppelin/openzeppelin-contracts/blob/v4.4.2/contracts/token/ERC20/ERC20.sol\":5303:5309  amount */\n      dup6\n        /* \"https://github.com/OpenZeppelin/openzeppelin-contracts/blob/v4.4.2/contracts/token/ERC20/ERC20.sol\":5284:5300  currentAllowance */\n      dup5\n        /* \"https://github.com/OpenZeppelin/openzeppelin-contracts/blob/v4.4.2/contracts/token/ERC20/ERC20.sol\":5284:5309  currentAllowance - amount */\n      sub\n        /* \"https://github.com/OpenZeppelin/openzeppelin-contracts/blob/v4.4.2/contracts/token/ERC20/ERC20.sol\":5253:5261  _approve */\n      tag_93\n        /* \"https://github.com/OpenZeppelin/openzeppelin-contracts/blob/v4.4.2/contracts/token/ERC20/ERC20.sol\":5253:5310  _approve(sender, _msgSender(), currentAllowance - amount) */\n      jump\t// in\n    tag_102:\n        /* \"https://github.com/OpenZeppelin/openzeppelin-contracts/blob/v4.4.2/contracts/token/ERC20/ERC20.sol\":5338:5342  true */\n      0x01\n        /* \"https://github.com/OpenZeppelin/openzeppelin-contracts/blob/v4.4.2/contracts/token/ERC20/ERC20.sol\":5331:5342  return true */\n      swap2\n      pop\n      pop\n        /* \"https://github.com/OpenZeppelin/openzeppelin-contracts/blob/v4.4.2/contracts/token/ERC20/ERC20.sol\":4871:5349  function transferFrom(... */\n      swap4\n      swap3\n      pop\n      pop\n      pop\n      jump\t// out\n        /* \"https://github.com/OpenZeppelin/openzeppelin-contracts/blob/v4.4.2/contracts/token/ERC20/ERC20.sol\":3078:3169  function decimals() public view virtual override returns (uint8) {... */\n    tag_41:\n        /* \"https://github.com/OpenZeppelin/openzeppelin-contracts/blob/v4.4.2/contracts/token/ERC20/ERC20.sol\":3136:3141  uint8 */\n      0x00\n        /* \"https://github.com/OpenZeppelin/openzeppelin-contracts/blob/v4.4.2/contracts/token/ERC20/ERC20.sol\":3160:3162  18 */\n      0x12\n        /* \"https://github.com/OpenZeppelin/openzeppelin-contracts/blob/v4.4.2/contracts/token/ERC20/ERC20.sol\":3153:3162  return 18 */\n      swap1\n      pop\n        /* \"https://github.com/OpenZeppelin/openzeppelin-contracts/blob/v4.4.2/contracts/token/ERC20/ERC20.sol\":3078:3169  function decimals() public view virtual override returns (uint8) {... */\n      swap1\n      jump\t// out\n        /* \"https://github.com/OpenZeppelin/openzeppelin-contracts/blob/v4.4.2/contracts/token/ERC20/ERC20.sol\":5744:5956  function increaseAllowance(address spender, uint256 addedValue) public virtual returns (bool) {... */\n    tag_46:\n        /* \"https://github.com/OpenZeppelin/openzeppelin-contracts/blob/v4.4.2/contracts/token/ERC20/ERC20.sol\":5832:5836  bool */\n      0x00\n        /* \"https://github.com/OpenZeppelin/openzeppelin-contracts/blob/v4.4.2/contracts/token/ERC20/ERC20.sol\":5848:5928  _approve(_msgSender(), spender, _allowances[_msgSender()][spender] + addedValue) */\n      tag_106\n        /* \"https://github.com/OpenZeppelin/openzeppelin-contracts/blob/v4.4.2/contracts/token/ERC20/ERC20.sol\":5857:5869  _msgSender() */\n      tag_107\n        /* \"https://github.com/OpenZeppelin/openzeppelin-contracts/blob/v4.4.2/contracts/token/ERC20/ERC20.sol\":5857:5867  _msgSender */\n      tag_92\n        /* \"https://github.com/OpenZeppelin/openzeppelin-contracts/blob/v4.4.2/contracts/token/ERC20/ERC20.sol\":5857:5869  _msgSender() */\n      jump\t// in\n    tag_107:\n        /* \"https://github.com/OpenZeppelin/openzeppelin-contracts/blob/v4.4.2/contracts/token/ERC20/ERC20.sol\":5871:5878  spender */\n      dup5\n        /* \"https://github.com/OpenZeppelin/openzeppelin-contracts/blob/v4.4.2/contracts/token/ERC20/ERC20.sol\":5917:5927  addedValue */\n      dup5\n        /* \"https://github.com/OpenZeppelin/openzeppelin-contracts/blob/v4.4.2/contracts/token/ERC20/ERC20.sol\":5880:5891  _allowances */\n      0x01\n        /* \"https://github.com/OpenZeppelin/openzeppelin-contracts/blob/v4.4.2/contracts/token/ERC20/ERC20.sol\":5880:5905  _allowances[_msgSender()] */\n      0x00\n        /* \"https://github.com/OpenZeppelin/openzeppelin-contracts/blob/v4.4.2/contracts/token/ERC20/ERC20.sol\":5892:5904  _msgSender() */\n      tag_108\n        /* \"https://github.com/OpenZeppelin/openzeppelin-contracts/blob/v4.4.2/contracts/token/ERC20/ERC20.sol\":5892:5902  _msgSender */\n      tag_92\n        /* \"https://github.com/OpenZeppelin/openzeppelin-contracts/blob/v4.4.2/contracts/token/ERC20/ERC20.sol\":5892:5904  _msgSender() */\n      jump\t// in\n    tag_108:\n        /* \"https://github.com/OpenZeppelin/openzeppelin-contracts/blob/v4.4.2/contracts/token/ERC20/ERC20.sol\":5880:5905  _allowances[_msgSender()] */\n      0xffffffffffffffffffffffffffffffffffffffff\n      and\n      0xffffffffffffffffffffffffffffffffffffffff\n      and\n      dup2\n      mstore\n      0x20\n      add\n      swap1\n      dup2\n      mstore\n      0x20\n      add\n      0x00\n      keccak256\n        /* \"https://github.com/OpenZeppelin/openzeppelin-contracts/blob/v4.4.2/contracts/token/ERC20/ERC20.sol\":5880:5914  _allowances[_msgSender()][spender] */\n      0x00\n        /* \"https://github.com/OpenZeppelin/openzeppelin-contracts/blob/v4.4.2/contracts/token/ERC20/ERC20.sol\":5906:5913  spender */\n      dup9\n        /* \"https://github.com/OpenZeppelin/openzeppelin-contracts/blob/v4.4.2/contracts/token/ERC20/ERC20.sol\":5880:5914  _allowances[_msgSender()][spender] */\n      0xffffffffffffffffffffffffffffffffffffffff\n      and\n      0xffffffffffffffffffffffffffffffffffffffff\n      and\n      dup2\n      mstore\n      0x20\n      add\n      swap1\n      dup2\n      mstore\n      0x20\n      add\n      0x00\n      keccak256\n      sload\n        /* \"https://github.com/OpenZeppelin/openzeppelin-contracts/blob/v4.4.2/contracts/token/ERC20/ERC20.sol\":5880:5927  _allowances[_msgSender()][spender] + addedValue */\n      tag_109\n      swap2\n      swap1\n      tag_110\n      jump\t// in\n    tag_109:\n        /* \"https://github.com/OpenZeppelin/openzeppelin-contracts/blob/v4.4.2/contracts/token/ERC20/ERC20.sol\":5848:5856  _approve */\n      tag_93\n        /* \"https://github.com/OpenZeppelin/openzeppelin-contracts/blob/v4.4.2/contracts/token/ERC20/ERC20.sol\":5848:5928  _approve(_msgSender(), spender, _allowances[_msgSender()][spender] + addedValue) */\n      jump\t// in\n    tag_106:\n        /* \"https://github.com/OpenZeppelin/openzeppelin-contracts/blob/v4.4.2/contracts/token/ERC20/ERC20.sol\":5945:5949  true */\n      0x01\n        /* \"https://github.com/OpenZeppelin/openzeppelin-contracts/blob/v4.4.2/contracts/token/ERC20/ERC20.sol\":5938:5949  return true */\n      swap1\n      pop\n        /* \"https://github.com/OpenZeppelin/openzeppelin-contracts/blob/v4.4.2/contracts/token/ERC20/ERC20.sol\":5744:5956  function increaseAllowance(address spender, uint256 addedValue) public virtual returns (bool) {... */\n      swap3\n      swap2\n      pop\n      pop\n      jump\t// out\n        /* \"https://github.com/OpenZeppelin/openzeppelin-contracts/blob/v4.4.2/contracts/token/ERC20/ERC20.sol\":3393:3518  function balanceOf(address account) public view virtual override returns (uint256) {... */\n    tag_51:\n        /* \"https://github.com/OpenZeppelin/openzeppelin-contracts/blob/v4.4.2/contracts/token/ERC20/ERC20.sol\":3467:3474  uint256 */\n      0x00\n        /* \"https://github.com/OpenZeppelin/openzeppelin-contracts/blob/v4.4.2/contracts/token/ERC20/ERC20.sol\":3493:3502  _balances */\n      dup1\n        /* \"https://github.com/OpenZeppelin/openzeppelin-contracts/blob/v4.4.2/contracts/token/ERC20/ERC20.sol\":3493:3511  _balances[account] */\n      0x00\n        /* \"https://github.com/OpenZeppelin/openzeppelin-contracts/blob/v4.4.2/contracts/token/ERC20/ERC20.sol\":3503:3510  account */\n      dup4\n        /* \"https://github.com/OpenZeppelin/openzeppelin-contracts/blob/v4.4.2/contracts/token/ERC20/ERC20.sol\":3493:3511  _balances[account] */\n      0xffffffffffffffffffffffffffffffffffffffff\n      and\n      0xffffffffffffffffffffffffffffffffffffffff\n      and\n      dup2\n      mstore\n      0x20\n      add\n      swap1\n      dup2\n      mstore\n      0x20\n      add\n      0x00\n      keccak256\n      sload\n        /* \"https://github.com/OpenZeppelin/openzeppelin-contracts/blob/v4.4.2/contracts/token/ERC20/ERC20.sol\":3486:3511  return _balances[account] */\n      swap1\n      pop\n        /* \"https://github.com/OpenZeppelin/openzeppelin-contracts/blob/v4.4.2/contracts/token/ERC20/ERC20.sol\":3393:3518  function balanceOf(address account) public view virtual override returns (uint256) {... */\n      swap2\n      swap1\n      pop\n      jump\t// out\n        /* \"erc20.sol\":866:969  function getTransactionReceiver() public view returns (address) {... */\n    tag_54:\n        /* \"erc20.sol\":921:928  address */\n      0x00\n        /* \"erc20.sol\":956:960  this */\n      address\n        /* \"erc20.sol\":941:961  return address(this) */\n      swap1\n      pop\n        /* \"erc20.sol\":866:969  function getTransactionReceiver() public view returns (address) {... */\n      swap1\n      jump\t// out\n        /* \"erc20.sol\":209:229  address public owner */\n    tag_58:\n      0x05\n      0x00\n      swap1\n      sload\n      swap1\n      0x0100\n      exp\n      swap1\n      div\n      0xffffffffffffffffffffffffffffffffffffffff\n      and\n      dup2\n      jump\t// out\n        /* \"https://github.com/OpenZeppelin/openzeppelin-contracts/blob/v4.4.2/contracts/token/ERC20/ERC20.sol\":2352:2454  function symbol() public view virtual override returns (string memory) {... */\n    tag_61:\n        /* \"https://github.com/OpenZeppelin/openzeppelin-contracts/blob/v4.4.2/contracts/token/ERC20/ERC20.sol\":2408:2421  string memory */\n      0x60\n        /* \"https://github.com/OpenZeppelin/openzeppelin-contracts/blob/v4.4.2/contracts/token/ERC20/ERC20.sol\":2440:2447  _symbol */\n      0x04\n        /* \"https://github.com/OpenZeppelin/openzeppelin-contracts/blob/v4.4.2/contracts/token/ERC20/ERC20.sol\":2433:2447  return _symbol */\n      dup1\n      sload\n      tag_114\n      swap1\n      tag_84\n      jump\t// in\n    tag_114:\n      dup1\n      0x1f\n      add\n      0x20\n      dup1\n      swap2\n      div\n      mul\n      0x20\n      add\n      mload(0x40)\n      swap1\n      dup2\n      add\n      0x40\n      mstore\n      dup1\n      swap3\n      swap2\n      swap1\n      dup2\n      dup2\n      mstore\n      0x20\n      add\n      dup3\n      dup1\n      sload\n      tag_115\n      swap1\n      tag_84\n      jump\t// in\n    tag_115:\n      dup1\n      iszero\n      tag_116\n      jumpi\n      dup1\n      0x1f\n      lt\n      tag_117\n      jumpi\n      0x0100\n      dup1\n      dup4\n      sload\n      div\n      mul\n      dup4\n      mstore\n      swap2\n      0x20\n      add\n      swap2\n      jump(tag_116)\n    tag_117:\n      dup3\n      add\n      swap2\n      swap1\n      0x00\n      mstore\n      keccak256(0x00, 0x20)\n      swap1\n    tag_118:\n      dup2\n      sload\n      dup2\n      mstore\n      swap1\n      0x01\n      add\n      swap1\n      0x20\n      add\n      dup1\n      dup4\n      gt\n      tag_118\n      jumpi\n      dup3\n      swap1\n      sub\n      0x1f\n      and\n      dup3\n      add\n      swap2\n    tag_116:\n      pop\n      pop\n      pop\n      pop\n      pop\n      swap1\n      pop\n        /* \"https://github.com/OpenZeppelin/openzeppelin-contracts/blob/v4.4.2/contracts/token/ERC20/ERC20.sol\":2352:2454  function symbol() public view virtual override returns (string memory) {... */\n      swap1\n      jump\t// out\n        /* \"https://github.com/OpenZeppelin/openzeppelin-contracts/blob/v4.4.2/contracts/token/ERC20/ERC20.sol\":6443:6848  function decreaseAllowance(address spender, uint256 subtractedValue) public virtual returns (bool) {... */\n    tag_65:\n        /* \"https://github.com/OpenZeppelin/openzeppelin-contracts/blob/v4.4.2/contracts/token/ERC20/ERC20.sol\":6536:6540  bool */\n      0x00\n        /* \"https://github.com/OpenZeppelin/openzeppelin-contracts/blob/v4.4.2/contracts/token/ERC20/ERC20.sol\":6552:6576  uint256 currentAllowance */\n      dup1\n        /* \"https://github.com/OpenZeppelin/openzeppelin-contracts/blob/v4.4.2/contracts/token/ERC20/ERC20.sol\":6579:6590  _allowances */\n      0x01\n        /* \"https://github.com/OpenZeppelin/openzeppelin-contracts/blob/v4.4.2/contracts/token/ERC20/ERC20.sol\":6579:6604  _allowances[_msgSender()] */\n      0x00\n        /* \"https://github.com/OpenZeppelin/openzeppelin-contracts/blob/v4.4.2/contracts/token/ERC20/ERC20.sol\":6591:6603  _msgSender() */\n      tag_120\n        /* \"https://github.com/OpenZeppelin/openzeppelin-contracts/blob/v4.4.2/contracts/token/ERC20/ERC20.sol\":6591:6601  _msgSender */\n      tag_92\n        /* \"https://github.com/OpenZeppelin/openzeppelin-contracts/blob/v4.4.2/contracts/token/ERC20/ERC20.sol\":6591:6603  _msgSender() */\n      jump\t// in\n    tag_120:\n        /* \"https://github.com/OpenZeppelin/openzeppelin-contracts/blob/v4.4.2/contracts/token/ERC20/ERC20.sol\":6579:6604  _allowances[_msgSender()] */\n      0xffffffffffffffffffffffffffffffffffffffff\n      and\n      0xffffffffffffffffffffffffffffffffffffffff\n      and\n      dup2\n      mstore\n      0x20\n      add\n      swap1\n      dup2\n      mstore\n      0x20\n      add\n      0x00\n      keccak256\n        /* \"https://github.com/OpenZeppelin/openzeppelin-contracts/blob/v4.4.2/contracts/token/ERC20/ERC20.sol\":6579:6613  _allowances[_msgSender()][spender] */\n      0x00\n        /* \"https://github.com/OpenZeppelin/openzeppelin-contracts/blob/v4.4.2/contracts/token/ERC20/ERC20.sol\":6605:6612  spender */\n      dup6\n        /* \"https://github.com/OpenZeppelin/openzeppelin-contracts/blob/v4.4.2/contracts/token/ERC20/ERC20.sol\":6579:6613  _allowances[_msgSender()][spender] */\n      0xffffffffffffffffffffffffffffffffffffffff\n      and\n      0xffffffffffffffffffffffffffffffffffffffff\n      and\n      dup2\n      mstore\n      0x20\n      add\n      swap1\n      dup2\n      mstore\n      0x20\n      add\n      0x00\n      keccak256\n      sload\n        /* \"https://github.com/OpenZeppelin/openzeppelin-contracts/blob/v4.4.2/contracts/token/ERC20/ERC20.sol\":6552:6613  uint256 currentAllowance = _allowances[_msgSender()][spender] */\n      swap1\n      pop\n        /* \"https://github.com/OpenZeppelin/openzeppelin-contracts/blob/v4.4.2/contracts/token/ERC20/ERC20.sol\":6651:6666  subtractedValue */\n      dup3\n        /* \"https://github.com/OpenZeppelin/openzeppelin-contracts/blob/v4.4.2/contracts/token/ERC20/ERC20.sol\":6631:6647  currentAllowance */\n      dup2\n        /* \"https://github.com/OpenZeppelin/openzeppelin-contracts/blob/v4.4.2/contracts/token/ERC20/ERC20.sol\":6631:6666  currentAllowance >= subtractedValue */\n      lt\n      iszero\n        /* \"https://github.com/OpenZeppelin/openzeppelin-contracts/blob/v4.4.2/contracts/token/ERC20/ERC20.sol\":6623:6708  require(currentAllowance >= subtractedValue, \"ERC20: decreased allowance below zero\") */\n      tag_121\n      jumpi\n      mload(0x40)\n      0x08c379a000000000000000000000000000000000000000000000000000000000\n      dup2\n      mstore\n      0x04\n      add\n      tag_122\n      swap1\n      tag_123\n      jump\t// in\n    tag_122:\n      mload(0x40)\n      dup1\n      swap2\n      sub\n      swap1\n      revert\n    tag_121:\n        /* \"https://github.com/OpenZeppelin/openzeppelin-contracts/blob/v4.4.2/contracts/token/ERC20/ERC20.sol\":6742:6809  _approve(_msgSender(), spender, currentAllowance - subtractedValue) */\n      tag_124\n        /* \"https://github.com/OpenZeppelin/openzeppelin-contracts/blob/v4.4.2/contracts/token/ERC20/ERC20.sol\":6751:6763  _msgSender() */\n      tag_125\n        /* \"https://github.com/OpenZeppelin/openzeppelin-contracts/blob/v4.4.2/contracts/token/ERC20/ERC20.sol\":6751:6761  _msgSender */\n      tag_92\n        /* \"https://github.com/OpenZeppelin/openzeppelin-contracts/blob/v4.4.2/contracts/token/ERC20/ERC20.sol\":6751:6763  _msgSender() */\n      jump\t// in\n    tag_125:\n        /* \"https://github.com/OpenZeppelin/openzeppelin-contracts/blob/v4.4.2/contracts/token/ERC20/ERC20.sol\":6765:6772  spender */\n      dup6\n        /* \"https://github.com/OpenZeppelin/openzeppelin-contracts/blob/v4.4.2/contracts/token/ERC20/ERC20.sol\":6793:6808  subtractedValue */\n      dup6\n        /* \"https://github.com/OpenZeppelin/openzeppelin-contracts/blob/v4.4.2/contracts/token/ERC20/ERC20.sol\":6774:6790  currentAllowance */\n      dup5\n        /* \"https://github.com/OpenZeppelin/openzeppelin-contracts/blob/v4.4.2/contracts/token/ERC20/ERC20.sol\":6774:6808  currentAllowance - subtractedValue */\n      sub\n        /* \"https://github.com/OpenZeppelin/openzeppelin-contracts/blob/v4.4.2/contracts/token/ERC20/ERC20.sol\":6742:6750  _approve */\n      tag_93\n        /* \"https://github.com/OpenZeppelin/openzeppelin-contracts/blob/v4.4.2/contracts/token/ERC20/ERC20.sol\":6742:6809  _approve(_msgSender(), spender, currentAllowance - subtractedValue) */\n      jump\t// in\n    tag_124:\n        /* \"https://github.com/OpenZeppelin/openzeppelin-contracts/blob/v4.4.2/contracts/token/ERC20/ERC20.sol\":6837:6841  true */\n      0x01\n        /* \"https://github.com/OpenZeppelin/openzeppelin-contracts/blob/v4.4.2/contracts/token/ERC20/ERC20.sol\":6830:6841  return true */\n      swap2\n      pop\n      pop\n        /* \"https://github.com/OpenZeppelin/openzeppelin-contracts/blob/v4.4.2/contracts/token/ERC20/ERC20.sol\":6443:6848  function decreaseAllowance(address spender, uint256 subtractedValue) public virtual returns (bool) {... */\n      swap3\n      swap2\n      pop\n      pop\n      jump\t// out\n        /* \"https://github.com/OpenZeppelin/openzeppelin-contracts/blob/v4.4.2/contracts/token/ERC20/ERC20.sol\":3721:3893  function transfer(address recipient, uint256 amount) public virtual override returns (bool) {... */\n    tag_69:\n        /* \"https://github.com/OpenZeppelin/openzeppelin-contracts/blob/v4.4.2/contracts/token/ERC20/ERC20.sol\":3807:3811  bool */\n      0x00\n        /* \"https://github.com/OpenZeppelin/openzeppelin-contracts/blob/v4.4.2/contracts/token/ERC20/ERC20.sol\":3823:3865  _transfer(_msgSender(), recipient, amount) */\n      tag_127\n        /* \"https://github.com/OpenZeppelin/openzeppelin-contracts/blob/v4.4.2/contracts/token/ERC20/ERC20.sol\":3833:3845  _msgSender() */\n      tag_128\n        /* \"https://github.com/OpenZeppelin/openzeppelin-contracts/blob/v4.4.2/contracts/token/ERC20/ERC20.sol\":3833:3843  _msgSender */\n      tag_92\n        /* \"https://github.com/OpenZeppelin/openzeppelin-contracts/blob/v4.4.2/contracts/token/ERC20/ERC20.sol\":3833:3845  _msgSender() */\n      jump\t// in\n    tag_128:\n        /* \"https://github.com/OpenZeppelin/openzeppelin-contracts/blob/v4.4.2/contracts/token/ERC20/ERC20.sol\":3847:3856  recipient */\n      dup5\n        /* \"https://github.com/OpenZeppelin/openzeppelin-contracts/blob/v4.4.2/contracts/token/ERC20/ERC20.sol\":3858:3864  amount */\n      dup5\n        /* \"https://github.com/OpenZeppelin/openzeppelin-contracts/blob/v4.4.2/contracts/token/ERC20/ERC20.sol\":3823:3832  _transfer */\n      tag_97\n        /* \"https://github.com/OpenZeppelin/openzeppelin-contracts/blob/v4.4.2/contracts/token/ERC20/ERC20.sol\":3823:3865  _transfer(_msgSender(), recipient, amount) */\n      jump\t// in\n    tag_127:\n        /* \"https://github.com/OpenZeppelin/openzeppelin-contracts/blob/v4.4.2/contracts/token/ERC20/ERC20.sol\":3882:3886  true */\n      0x01\n        /* \"https://github.com/OpenZeppelin/openzeppelin-contracts/blob/v4.4.2/contracts/token/ERC20/ERC20.sol\":3875:3886  return true */\n      swap1\n      pop\n        /* \"https://github.com/OpenZeppelin/openzeppelin-contracts/blob/v4.4.2/contracts/token/ERC20/ERC20.sol\":3721:3893  function transfer(address recipient, uint256 amount) public virtual override returns (bool) {... */\n      swap3\n      swap2\n      pop\n      pop\n      jump\t// out\n        /* \"erc20.sol\":691:789  function getTransactionSender() public view returns (address) {... */\n    tag_72:\n        /* \"erc20.sol\":744:751  address */\n      0x00\n        /* \"erc20.sol\":771:781  msg.sender */\n      caller\n        /* \"erc20.sol\":764:781  return msg.sender */\n      swap1\n      pop\n        /* \"erc20.sol\":691:789  function getTransactionSender() public view returns (address) {... */\n      swap1\n      jump\t// out\n        /* \"erc20.sol\":479:616  function getLatestTransactionTimestamp() public view returns (string memory) {... */\n    tag_75:\n        /* \"erc20.sol\":541:554  string memory */\n      0x60\n        /* \"erc20.sol\":574:608  timestampToString(block.timestamp) */\n      tag_131\n        /* \"erc20.sol\":592:607  block.timestamp */\n      timestamp\n        /* \"erc20.sol\":574:591  timestampToString */\n      tag_132\n        /* \"erc20.sol\":574:608  timestampToString(block.timestamp) */\n      jump\t// in\n    tag_131:\n        /* \"erc20.sol\":567:608  return timestampToString(block.timestamp) */\n      swap1\n      pop\n        /* \"erc20.sol\":479:616  function getLatestTransactionTimestamp() public view returns (string memory) {... */\n      swap1\n      jump\t// out\n        /* \"https://github.com/OpenZeppelin/openzeppelin-contracts/blob/v4.4.2/contracts/token/ERC20/ERC20.sol\":3951:4100  function allowance(address owner, address spender) public view virtual override returns (uint256) {... */\n    tag_80:\n        /* \"https://github.com/OpenZeppelin/openzeppelin-contracts/blob/v4.4.2/contracts/token/ERC20/ERC20.sol\":4040:4047  uint256 */\n      0x00\n        /* \"https://github.com/OpenZeppelin/openzeppelin-contracts/blob/v4.4.2/contracts/token/ERC20/ERC20.sol\":4066:4077  _allowances */\n      0x01\n        /* \"https://github.com/OpenZeppelin/openzeppelin-contracts/blob/v4.4.2/contracts/token/ERC20/ERC20.sol\":4066:4084  _allowances[owner] */\n      0x00\n        /* \"https://github.com/OpenZeppelin/openzeppelin-contracts/blob/v4.4.2/contracts/token/ERC20/ERC20.sol\":4078:4083  owner */\n      dup5\n        /* \"https://github.com/OpenZeppelin/openzeppelin-contracts/blob/v4.4.2/contracts/token/ERC20/ERC20.sol\":4066:4084  _allowances[owner] */\n      0xffffffffffffffffffffffffffffffffffffffff\n      and\n      0xffffffffffffffffffffffffffffffffffffffff\n      and\n      dup2\n      mstore\n      0x20\n      add\n      swap1\n      dup2\n      mstore\n      0x20\n      add\n      0x00\n      keccak256\n        /* \"https://github.com/OpenZeppelin/openzeppelin-contracts/blob/v4.4.2/contracts/token/ERC20/ERC20.sol\":4066:4093  _allowances[owner][spender] */\n      0x00\n        /* \"https://github.com/OpenZeppelin/openzeppelin-contracts/blob/v4.4.2/contracts/token/ERC20/ERC20.sol\":4085:4092  spender */\n      dup4\n        /* \"https://github.com/OpenZeppelin/openzeppelin-contracts/blob/v4.4.2/contracts/token/ERC20/ERC20.sol\":4066:4093  _allowances[owner][spender] */\n      0xffffffffffffffffffffffffffffffffffffffff\n      and\n      0xffffffffffffffffffffffffffffffffffffffff\n      and\n      dup2\n      mstore\n      0x20\n      add\n      swap1\n      dup2\n      mstore\n      0x20\n      add\n      0x00\n      keccak256\n      sload\n        /* \"https://github.com/OpenZeppelin/openzeppelin-contracts/blob/v4.4.2/contracts/token/ERC20/ERC20.sol\":4059:4093  return _allowances[owner][spender] */\n      swap1\n      pop\n        /* \"https://github.com/OpenZeppelin/openzeppelin-contracts/blob/v4.4.2/contracts/token/ERC20/ERC20.sol\":3951:4100  function allowance(address owner, address spender) public view virtual override returns (uint256) {... */\n      swap3\n      swap2\n      pop\n      pop\n      jump\t// out\n        /* \"https://github.com/OpenZeppelin/openzeppelin-contracts/blob/v4.4.2/contracts/utils/Context.sol\":640:736  function _msgSender() internal view virtual returns (address) {... */\n    tag_92:\n        /* \"https://github.com/OpenZeppelin/openzeppelin-contracts/blob/v4.4.2/contracts/utils/Context.sol\":693:700  address */\n      0x00\n        /* \"https://github.com/OpenZeppelin/openzeppelin-contracts/blob/v4.4.2/contracts/utils/Context.sol\":719:729  msg.sender */\n      caller\n        /* \"https://github.com/OpenZeppelin/openzeppelin-contracts/blob/v4.4.2/contracts/utils/Context.sol\":712:729  return msg.sender */\n      swap1\n      pop\n        /* \"https://github.com/OpenZeppelin/openzeppelin-contracts/blob/v4.4.2/contracts/utils/Context.sol\":640:736  function _msgSender() internal view virtual returns (address) {... */\n      swap1\n      jump\t// out\n        /* \"https://github.com/OpenZeppelin/openzeppelin-contracts/blob/v4.4.2/contracts/token/ERC20/ERC20.sol\":10019:10389  function _approve(... */\n    tag_93:\n        /* \"https://github.com/OpenZeppelin/openzeppelin-contracts/blob/v4.4.2/contracts/token/ERC20/ERC20.sol\":10167:10168  0 */\n      0x00\n        /* \"https://github.com/OpenZeppelin/openzeppelin-contracts/blob/v4.4.2/contracts/token/ERC20/ERC20.sol\":10150:10169  owner != address(0) */\n      0xffffffffffffffffffffffffffffffffffffffff\n      and\n        /* \"https://github.com/OpenZeppelin/openzeppelin-contracts/blob/v4.4.2/contracts/token/ERC20/ERC20.sol\":10150:10155  owner */\n      dup4\n        /* \"https://github.com/OpenZeppelin/openzeppelin-contracts/blob/v4.4.2/contracts/token/ERC20/ERC20.sol\":10150:10169  owner != address(0) */\n      0xffffffffffffffffffffffffffffffffffffffff\n      and\n      sub\n        /* \"https://github.com/OpenZeppelin/openzeppelin-contracts/blob/v4.4.2/contracts/token/ERC20/ERC20.sol\":10142:10210  require(owner != address(0), \"ERC20: approve from the zero address\") */\n      tag_136\n      jumpi\n      mload(0x40)\n      0x08c379a000000000000000000000000000000000000000000000000000000000\n      dup2\n      mstore\n      0x04\n      add\n      tag_137\n      swap1\n      tag_138\n      jump\t// in\n    tag_137:\n      mload(0x40)\n      dup1\n      swap2\n      sub\n      swap1\n      revert\n    tag_136:\n        /* \"https://github.com/OpenZeppelin/openzeppelin-contracts/blob/v4.4.2/contracts/token/ERC20/ERC20.sol\":10247:10248  0 */\n      0x00\n        /* \"https://github.com/OpenZeppelin/openzeppelin-contracts/blob/v4.4.2/contracts/token/ERC20/ERC20.sol\":10228:10249  spender != address(0) */\n      0xffffffffffffffffffffffffffffffffffffffff\n      and\n        /* \"https://github.com/OpenZeppelin/openzeppelin-contracts/blob/v4.4.2/contracts/token/ERC20/ERC20.sol\":10228:10235  spender */\n      dup3\n        /* \"https://github.com/OpenZeppelin/openzeppelin-contracts/blob/v4.4.2/contracts/token/ERC20/ERC20.sol\":10228:10249  spender != address(0) */\n      0xffffffffffffffffffffffffffffffffffffffff\n      and\n      sub\n        /* \"https://github.com/OpenZeppelin/openzeppelin-contracts/blob/v4.4.2/contracts/token/ERC20/ERC20.sol\":10220:10288  require(spender != address(0), \"ERC20: approve to the zero address\") */\n      tag_139\n      jumpi\n      mload(0x40)\n      0x08c379a000000000000000000000000000000000000000000000000000000000\n      dup2\n      mstore\n      0x04\n      add\n      tag_140\n      swap1\n      tag_141\n      jump\t// in\n    tag_140:\n      mload(0x40)\n      dup1\n      swap2\n      sub\n      swap1\n      revert\n    tag_139:\n        /* \"https://github.com/OpenZeppelin/openzeppelin-contracts/blob/v4.4.2/contracts/token/ERC20/ERC20.sol\":10329:10335  amount */\n      dup1\n        /* \"https://github.com/OpenZeppelin/openzeppelin-contracts/blob/v4.4.2/contracts/token/ERC20/ERC20.sol\":10299:10310  _allowances */\n      0x01\n        /* \"https://github.com/OpenZeppelin/openzeppelin-contracts/blob/v4.4.2/contracts/token/ERC20/ERC20.sol\":10299:10317  _allowances[owner] */\n      0x00\n        /* \"https://github.com/OpenZeppelin/openzeppelin-contracts/blob/v4.4.2/contracts/token/ERC20/ERC20.sol\":10311:10316  owner */\n      dup6\n        /* \"https://github.com/OpenZeppelin/openzeppelin-contracts/blob/v4.4.2/contracts/token/ERC20/ERC20.sol\":10299:10317  _allowances[owner] */\n      0xffffffffffffffffffffffffffffffffffffffff\n      and\n      0xffffffffffffffffffffffffffffffffffffffff\n      and\n      dup2\n      mstore\n      0x20\n      add\n      swap1\n      dup2\n      mstore\n      0x20\n      add\n      0x00\n      keccak256\n        /* \"https://github.com/OpenZeppelin/openzeppelin-contracts/blob/v4.4.2/contracts/token/ERC20/ERC20.sol\":10299:10326  _allowances[owner][spender] */\n      0x00\n        /* \"https://github.com/OpenZeppelin/openzeppelin-contracts/blob/v4.4.2/contracts/token/ERC20/ERC20.sol\":10318:10325  spender */\n      dup5\n        /* \"https://github.com/OpenZeppelin/openzeppelin-contracts/blob/v4.4.2/contracts/token/ERC20/ERC20.sol\":10299:10326  _allowances[owner][spender] */\n      0xffffffffffffffffffffffffffffffffffffffff\n      and\n      0xffffffffffffffffffffffffffffffffffffffff\n      and\n      dup2\n      mstore\n      0x20\n      add\n      swap1\n      dup2\n      mstore\n      0x20\n      add\n      0x00\n      keccak256\n        /* \"https://github.com/OpenZeppelin/openzeppelin-contracts/blob/v4.4.2/contracts/token/ERC20/ERC20.sol\":10299:10335  _allowances[owner][spender] = amount */\n      dup2\n      swap1\n      sstore\n      pop\n        /* \"https://github.com/OpenZeppelin/openzeppelin-contracts/blob/v4.4.2/contracts/token/ERC20/ERC20.sol\":10366:10373  spender */\n      dup2\n        /* \"https://github.com/OpenZeppelin/openzeppelin-contracts/blob/v4.4.2/contracts/token/ERC20/ERC20.sol\":10350:10382  Approval(owner, spender, amount) */\n      0xffffffffffffffffffffffffffffffffffffffff\n      and\n        /* \"https://github.com/OpenZeppelin/openzeppelin-contracts/blob/v4.4.2/contracts/token/ERC20/ERC20.sol\":10359:10364  owner */\n      dup4\n        /* \"https://github.com/OpenZeppelin/openzeppelin-contracts/blob/v4.4.2/contracts/token/ERC20/ERC20.sol\":10350:10382  Approval(owner, spender, amount) */\n      0xffffffffffffffffffffffffffffffffffffffff\n      and\n      0x8c5be1e5ebec7d5bd14f71427d1e84f3dd0314c0f7b2291e5b200ac8c7c3b925\n        /* \"https://github.com/OpenZeppelin/openzeppelin-contracts/blob/v4.4.2/contracts/token/ERC20/ERC20.sol\":10375:10381  amount */\n      dup4\n        /* \"https://github.com/OpenZeppelin/openzeppelin-contracts/blob/v4.4.2/contracts/token/ERC20/ERC20.sol\":10350:10382  Approval(owner, spender, amount) */\n      mload(0x40)\n      tag_142\n      swap2\n      swap1\n      tag_34\n      jump\t// in\n    tag_142:\n      mload(0x40)\n      dup1\n      swap2\n      sub\n      swap1\n      log3\n        /* \"https://github.com/OpenZeppelin/openzeppelin-contracts/blob/v4.4.2/contracts/token/ERC20/ERC20.sol\":10019:10389  function _approve(... */\n      pop\n      pop\n      pop\n      jump\t// out\n        /* \"https://github.com/OpenZeppelin/openzeppelin-contracts/blob/v4.4.2/contracts/token/ERC20/ERC20.sol\":7322:8035  function _transfer(... */\n    tag_97:\n        /* \"https://github.com/OpenZeppelin/openzeppelin-contracts/blob/v4.4.2/contracts/token/ERC20/ERC20.sol\":7475:7476  0 */\n      0x00\n        /* \"https://github.com/OpenZeppelin/openzeppelin-contracts/blob/v4.4.2/contracts/token/ERC20/ERC20.sol\":7457:7477  sender != address(0) */\n      0xffffffffffffffffffffffffffffffffffffffff\n      and\n        /* \"https://github.com/OpenZeppelin/openzeppelin-contracts/blob/v4.4.2/contracts/token/ERC20/ERC20.sol\":7457:7463  sender */\n      dup4\n        /* \"https://github.com/OpenZeppelin/openzeppelin-contracts/blob/v4.4.2/contracts/token/ERC20/ERC20.sol\":7457:7477  sender != address(0) */\n      0xffffffffffffffffffffffffffffffffffffffff\n      and\n      sub\n        /* \"https://github.com/OpenZeppelin/openzeppelin-contracts/blob/v4.4.2/contracts/token/ERC20/ERC20.sol\":7449:7519  require(sender != address(0), \"ERC20: transfer from the zero address\") */\n      tag_144\n      jumpi\n      mload(0x40)\n      0x08c379a000000000000000000000000000000000000000000000000000000000\n      dup2\n      mstore\n      0x04\n      add\n      tag_145\n      swap1\n      tag_146\n      jump\t// in\n    tag_145:\n      mload(0x40)\n      dup1\n      swap2\n      sub\n      swap1\n      revert\n    tag_144:\n        /* \"https://github.com/OpenZeppelin/openzeppelin-contracts/blob/v4.4.2/contracts/token/ERC20/ERC20.sol\":7558:7559  0 */\n      0x00\n        /* \"https://github.com/OpenZeppelin/openzeppelin-contracts/blob/v4.4.2/contracts/token/ERC20/ERC20.sol\":7537:7560  recipient != address(0) */\n      0xffffffffffffffffffffffffffffffffffffffff\n      and\n        /* \"https://github.com/OpenZeppelin/openzeppelin-contracts/blob/v4.4.2/contracts/token/ERC20/ERC20.sol\":7537:7546  recipient */\n      dup3\n        /* \"https://github.com/OpenZeppelin/openzeppelin-contracts/blob/v4.4.2/contracts/token/ERC20/ERC20.sol\":7537:7560  recipient != address(0) */\n      0xffffffffffffffffffffffffffffffffffffffff\n      and\n      sub\n        /* \"https://github.com/OpenZeppelin/openzeppelin-contracts/blob/v4.4.2/contracts/token/ERC20/ERC20.sol\":7529:7600  require(recipient != address(0), \"ERC20: transfer to the zero address\") */\n      tag_147\n      jumpi\n      mload(0x40)\n      0x08c379a000000000000000000000000000000000000000000000000000000000\n      dup2\n      mstore\n      0x04\n      add\n      tag_148\n      swap1\n      tag_149\n      jump\t// in\n    tag_148:\n      mload(0x40)\n      dup1\n      swap2\n      sub\n      swap1\n      revert\n    tag_147:\n        /* \"https://github.com/OpenZeppelin/openzeppelin-contracts/blob/v4.4.2/contracts/token/ERC20/ERC20.sol\":7611:7658  _beforeTokenTransfer(sender, recipient, amount) */\n      tag_150\n        /* \"https://github.com/OpenZeppelin/openzeppelin-contracts/blob/v4.4.2/contracts/token/ERC20/ERC20.sol\":7632:7638  sender */\n      dup4\n        /* \"https://github.com/OpenZeppelin/openzeppelin-contracts/blob/v4.4.2/contracts/token/ERC20/ERC20.sol\":7640:7649  recipient */\n      dup4\n        /* \"https://github.com/OpenZeppelin/openzeppelin-contracts/blob/v4.4.2/contracts/token/ERC20/ERC20.sol\":7651:7657  amount */\n      dup4\n        /* \"https://github.com/OpenZeppelin/openzeppelin-contracts/blob/v4.4.2/contracts/token/ERC20/ERC20.sol\":7611:7631  _beforeTokenTransfer */\n      tag_151\n        /* \"https://github.com/OpenZeppelin/openzeppelin-contracts/blob/v4.4.2/contracts/token/ERC20/ERC20.sol\":7611:7658  _beforeTokenTransfer(sender, recipient, amount) */\n      jump\t// in\n    tag_150:\n        /* \"https://github.com/OpenZeppelin/openzeppelin-contracts/blob/v4.4.2/contracts/token/ERC20/ERC20.sol\":7669:7690  uint256 senderBalance */\n      0x00\n        /* \"https://github.com/OpenZeppelin/openzeppelin-contracts/blob/v4.4.2/contracts/token/ERC20/ERC20.sol\":7693:7702  _balances */\n      dup1\n        /* \"https://github.com/OpenZeppelin/openzeppelin-contracts/blob/v4.4.2/contracts/token/ERC20/ERC20.sol\":7693:7710  _balances[sender] */\n      0x00\n        /* \"https://github.com/OpenZeppelin/openzeppelin-contracts/blob/v4.4.2/contracts/token/ERC20/ERC20.sol\":7703:7709  sender */\n      dup6\n        /* \"https://github.com/OpenZeppelin/openzeppelin-contracts/blob/v4.4.2/contracts/token/ERC20/ERC20.sol\":7693:7710  _balances[sender] */\n      0xffffffffffffffffffffffffffffffffffffffff\n      and\n      0xffffffffffffffffffffffffffffffffffffffff\n      and\n      dup2\n      mstore\n      0x20\n      add\n      swap1\n      dup2\n      mstore\n      0x20\n      add\n      0x00\n      keccak256\n      sload\n        /* \"https://github.com/OpenZeppelin/openzeppelin-contracts/blob/v4.4.2/contracts/token/ERC20/ERC20.sol\":7669:7710  uint256 senderBalance = _balances[sender] */\n      swap1\n      pop\n        /* \"https://github.com/OpenZeppelin/openzeppelin-contracts/blob/v4.4.2/contracts/token/ERC20/ERC20.sol\":7745:7751  amount */\n      dup2\n        /* \"https://github.com/OpenZeppelin/openzeppelin-contracts/blob/v4.4.2/contracts/token/ERC20/ERC20.sol\":7728:7741  senderBalance */\n      dup2\n        /* \"https://github.com/OpenZeppelin/openzeppelin-contracts/blob/v4.4.2/contracts/token/ERC20/ERC20.sol\":7728:7751  senderBalance >= amount */\n      lt\n      iszero\n        /* \"https://github.com/OpenZeppelin/openzeppelin-contracts/blob/v4.4.2/contracts/token/ERC20/ERC20.sol\":7720:7794  require(senderBalance >= amount, \"ERC20: transfer amount exceeds balance\") */\n      tag_152\n      jumpi\n      mload(0x40)\n      0x08c379a000000000000000000000000000000000000000000000000000000000\n      dup2\n      mstore\n      0x04\n      add\n      tag_153\n      swap1\n      tag_154\n      jump\t// in\n    tag_153:\n      mload(0x40)\n      dup1\n      swap2\n      sub\n      swap1\n      revert\n    tag_152:\n        /* \"https://github.com/OpenZeppelin/openzeppelin-contracts/blob/v4.4.2/contracts/token/ERC20/ERC20.sol\":7864:7870  amount */\n      dup2\n        /* \"https://github.com/OpenZeppelin/openzeppelin-contracts/blob/v4.4.2/contracts/token/ERC20/ERC20.sol\":7848:7861  senderBalance */\n      dup2\n        /* \"https://github.com/OpenZeppelin/openzeppelin-contracts/blob/v4.4.2/contracts/token/ERC20/ERC20.sol\":7848:7870  senderBalance - amount */\n      sub\n        /* \"https://github.com/OpenZeppelin/openzeppelin-contracts/blob/v4.4.2/contracts/token/ERC20/ERC20.sol\":7828:7837  _balances */\n      0x00\n        /* \"https://github.com/OpenZeppelin/openzeppelin-contracts/blob/v4.4.2/contracts/token/ERC20/ERC20.sol\":7828:7845  _balances[sender] */\n      dup1\n        /* \"https://github.com/OpenZeppelin/openzeppelin-contracts/blob/v4.4.2/contracts/token/ERC20/ERC20.sol\":7838:7844  sender */\n      dup7\n        /* \"https://github.com/OpenZeppelin/openzeppelin-contracts/blob/v4.4.2/contracts/token/ERC20/ERC20.sol\":7828:7845  _balances[sender] */\n      0xffffffffffffffffffffffffffffffffffffffff\n      and\n      0xffffffffffffffffffffffffffffffffffffffff\n      and\n      dup2\n      mstore\n      0x20\n      add\n      swap1\n      dup2\n      mstore\n      0x20\n      add\n      0x00\n      keccak256\n        /* \"https://github.com/OpenZeppelin/openzeppelin-contracts/blob/v4.4.2/contracts/token/ERC20/ERC20.sol\":7828:7870  _balances[sender] = senderBalance - amount */\n      dup2\n      swap1\n      sstore\n      pop\n        /* \"https://github.com/OpenZeppelin/openzeppelin-contracts/blob/v4.4.2/contracts/token/ERC20/ERC20.sol\":7914:7920  amount */\n      dup2\n        /* \"https://github.com/OpenZeppelin/openzeppelin-contracts/blob/v4.4.2/contracts/token/ERC20/ERC20.sol\":7890:7899  _balances */\n      0x00\n        /* \"https://github.com/OpenZeppelin/openzeppelin-contracts/blob/v4.4.2/contracts/token/ERC20/ERC20.sol\":7890:7910  _balances[recipient] */\n      dup1\n        /* \"https://github.com/OpenZeppelin/openzeppelin-contracts/blob/v4.4.2/contracts/token/ERC20/ERC20.sol\":7900:7909  recipient */\n      dup6\n        /* \"https://github.com/OpenZeppelin/openzeppelin-contracts/blob/v4.4.2/contracts/token/ERC20/ERC20.sol\":7890:7910  _balances[recipient] */\n      0xffffffffffffffffffffffffffffffffffffffff\n      and\n      0xffffffffffffffffffffffffffffffffffffffff\n      and\n      dup2\n      mstore\n      0x20\n      add\n      swap1\n      dup2\n      mstore\n      0x20\n      add\n      0x00\n      keccak256\n      0x00\n        /* \"https://github.com/OpenZeppelin/openzeppelin-contracts/blob/v4.4.2/contracts/token/ERC20/ERC20.sol\":7890:7920  _balances[recipient] += amount */\n      dup3\n      dup3\n      sload\n      tag_155\n      swap2\n      swap1\n      tag_110\n      jump\t// in\n    tag_155:\n      swap3\n      pop\n      pop\n      dup2\n      swap1\n      sstore\n      pop\n        /* \"https://github.com/OpenZeppelin/openzeppelin-contracts/blob/v4.4.2/contracts/token/ERC20/ERC20.sol\":7953:7962  recipient */\n      dup3\n        /* \"https://github.com/OpenZeppelin/openzeppelin-contracts/blob/v4.4.2/contracts/token/ERC20/ERC20.sol\":7936:7971  Transfer(sender, recipient, amount) */\n      0xffffffffffffffffffffffffffffffffffffffff\n      and\n        /* \"https://github.com/OpenZeppelin/openzeppelin-contracts/blob/v4.4.2/contracts/token/ERC20/ERC20.sol\":7945:7951  sender */\n      dup5\n        /* \"https://github.com/OpenZeppelin/openzeppelin-contracts/blob/v4.4.2/contracts/token/ERC20/ERC20.sol\":7936:7971  Transfer(sender, recipient, amount) */\n      0xffffffffffffffffffffffffffffffffffffffff\n      and\n      0xddf252ad1be2c89b69c2b068fc378daa952ba7f163c4a11628f55a4df523b3ef\n        /* \"https://github.com/OpenZeppelin/openzeppelin-contracts/blob/v4.4.2/contracts/token/ERC20/ERC20.sol\":7964:7970  amount */\n      dup5\n        /* \"https://github.com/OpenZeppelin/openzeppelin-contracts/blob/v4.4.2/contracts/token/ERC20/ERC20.sol\":7936:7971  Transfer(sender, recipient, amount) */\n      mload(0x40)\n      tag_156\n      swap2\n      swap1\n      tag_34\n      jump\t// in\n    tag_156:\n      mload(0x40)\n      dup1\n      swap2\n      sub\n      swap1\n      log3\n        /* \"https://github.com/OpenZeppelin/openzeppelin-contracts/blob/v4.4.2/contracts/token/ERC20/ERC20.sol\":7982:8028  _afterTokenTransfer(sender, recipient, amount) */\n      tag_157\n        /* \"https://github.com/OpenZeppelin/openzeppelin-contracts/blob/v4.4.2/contracts/token/ERC20/ERC20.sol\":8002:8008  sender */\n      dup5\n        /* \"https://github.com/OpenZeppelin/openzeppelin-contracts/blob/v4.4.2/contracts/token/ERC20/ERC20.sol\":8010:8019  recipient */\n      dup5\n        /* \"https://github.com/OpenZeppelin/openzeppelin-contracts/blob/v4.4.2/contracts/token/ERC20/ERC20.sol\":8021:8027  amount */\n      dup5\n        /* \"https://github.com/OpenZeppelin/openzeppelin-contracts/blob/v4.4.2/contracts/token/ERC20/ERC20.sol\":7982:8001  _afterTokenTransfer */\n      tag_158\n        /* \"https://github.com/OpenZeppelin/openzeppelin-contracts/blob/v4.4.2/contracts/token/ERC20/ERC20.sol\":7982:8028  _afterTokenTransfer(sender, recipient, amount) */\n      jump\t// in\n    tag_157:\n        /* \"https://github.com/OpenZeppelin/openzeppelin-contracts/blob/v4.4.2/contracts/token/ERC20/ERC20.sol\":7439:8035  {... */\n      pop\n        /* \"https://github.com/OpenZeppelin/openzeppelin-contracts/blob/v4.4.2/contracts/token/ERC20/ERC20.sol\":7322:8035  function _transfer(... */\n      pop\n      pop\n      pop\n      jump\t// out\n        /* \"erc20.sol\":1049:1194  function timestampToString(uint256 timestamp) internal pure returns (string memory) {... */\n    tag_132:\n        /* \"erc20.sol\":1118:1131  string memory */\n      0x60\n        /* \"erc20.sol\":1151:1186  bytes32ToString(bytes32(timestamp)) */\n      tag_160\n        /* \"erc20.sol\":1175:1184  timestamp */\n      dup3\n        /* \"erc20.sol\":1167:1185  bytes32(timestamp) */\n      0x00\n      shl\n        /* \"erc20.sol\":1151:1166  bytes32ToString */\n      tag_161\n        /* \"erc20.sol\":1151:1186  bytes32ToString(bytes32(timestamp)) */\n      jump\t// in\n    tag_160:\n        /* \"erc20.sol\":1144:1186  return bytes32ToString(bytes32(timestamp)) */\n      swap1\n      pop\n        /* \"erc20.sol\":1049:1194  function timestampToString(uint256 timestamp) internal pure returns (string memory) {... */\n      swap2\n      swap1\n      pop\n      jump\t// out\n        /* \"https://github.com/OpenZeppelin/openzeppelin-contracts/blob/v4.4.2/contracts/token/ERC20/ERC20.sol\":10973:11094  function _beforeTokenTransfer(... */\n    tag_151:\n      pop\n      pop\n      pop\n      jump\t// out\n        /* \"https://github.com/OpenZeppelin/openzeppelin-contracts/blob/v4.4.2/contracts/token/ERC20/ERC20.sol\":11682:11802  function _afterTokenTransfer(... */\n    tag_158:\n      pop\n      pop\n      pop\n      jump\t// out\n        /* \"erc20.sol\":1257:1518  function bytes32ToString(bytes32 data) internal pure returns (string memory) {... */\n    tag_161:\n        /* \"erc20.sol\":1319:1332  string memory */\n      0x60\n        /* \"erc20.sol\":1345:1367  bytes memory bytesData */\n      0x00\n        /* \"erc20.sol\":1380:1382  32 */\n      0x20\n        /* \"erc20.sol\":1370:1383  new bytes(32) */\n      0xffffffffffffffff\n      dup2\n      gt\n      iszero\n      tag_165\n      jumpi\n      tag_166\n      tag_167\n      jump\t// in\n    tag_166:\n    tag_165:\n      mload(0x40)\n      swap1\n      dup1\n      dup3\n      mstore\n      dup1\n      0x1f\n      add\n      not(0x1f)\n      and\n      0x20\n      add\n      dup3\n      add\n      0x40\n      mstore\n      dup1\n      iszero\n      tag_168\n      jumpi\n      dup2\n      0x20\n      add\n      0x01\n      dup3\n      mul\n      dup1\n      calldatasize\n      dup4\n      calldatacopy\n      dup1\n      dup3\n      add\n      swap2\n      pop\n      pop\n      swap1\n      pop\n    tag_168:\n      pop\n        /* \"erc20.sol\":1345:1383  bytes memory bytesData = new bytes(32) */\n      swap1\n      pop\n        /* \"erc20.sol\":1399:1408  uint256 i */\n      0x00\n        /* \"erc20.sol\":1394:1476  for (uint256 i = 0; i < 32; i++) {... */\n    tag_169:\n        /* \"erc20.sol\":1418:1420  32 */\n      0x20\n        /* \"erc20.sol\":1414:1415  i */\n      dup2\n        /* \"erc20.sol\":1414:1420  i < 32 */\n      lt\n        /* \"erc20.sol\":1394:1476  for (uint256 i = 0; i < 32; i++) {... */\n      iszero\n      tag_170\n      jumpi\n        /* \"erc20.sol\":1457:1461  data */\n      dup4\n        /* \"erc20.sol\":1462:1463  i */\n      dup2\n        /* \"erc20.sol\":1457:1464  data[i] */\n      0x20\n      dup2\n      lt\n      tag_172\n      jumpi\n      tag_173\n      tag_174\n      jump\t// in\n    tag_173:\n    tag_172:\n      byte\n      0xf8\n      shl\n        /* \"erc20.sol\":1442:1451  bytesData */\n      dup3\n        /* \"erc20.sol\":1452:1453  i */\n      dup3\n        /* \"erc20.sol\":1442:1454  bytesData[i] */\n      dup2\n      mload\n      dup2\n      lt\n      tag_175\n      jumpi\n      tag_176\n      tag_174\n      jump\t// in\n    tag_176:\n    tag_175:\n      0x20\n      add\n      add\n        /* \"erc20.sol\":1442:1464  bytesData[i] = data[i] */\n      swap1\n      not(0xffffffffffffffffffffffffffffffffffffffffffffffffffffffffffffff)\n      and\n      swap1\n      dup2\n      0x00\n      byte\n      swap1\n      mstore8\n      pop\n        /* \"erc20.sol\":1422:1425  i++ */\n      dup1\n      dup1\n      0x01\n      add\n      swap2\n      pop\n      pop\n        /* \"erc20.sol\":1394:1476  for (uint256 i = 0; i < 32; i++) {... */\n      jump(tag_169)\n    tag_170:\n      pop\n        /* \"erc20.sol\":1500:1509  bytesData */\n      dup1\n        /* \"erc20.sol\":1486:1510  return string(bytesData) */\n      swap2\n      pop\n      pop\n        /* \"erc20.sol\":1257:1518  function bytes32ToString(bytes32 data) internal pure returns (string memory) {... */\n      swap2\n      swap1\n      pop\n      jump\t// out\n        /* \"#utility.yul\":7:106   */\n    tag_177:\n        /* \"#utility.yul\":59:65   */\n      0x00\n        /* \"#utility.yul\":93:98   */\n      dup2\n        /* \"#utility.yul\":87:99   */\n      mload\n        /* \"#utility.yul\":77:99   */\n      swap1\n      pop\n        /* \"#utility.yul\":7:106   */\n      swap2\n      swap1\n      pop\n      jump\t// out\n        /* \"#utility.yul\":112:281   */\n    tag_178:\n        /* \"#utility.yul\":196:207   */\n      0x00\n        /* \"#utility.yul\":230:236   */\n      dup3\n        /* \"#utility.yul\":225:228   */\n      dup3\n        /* \"#utility.yul\":218:237   */\n      mstore\n        /* \"#utility.yul\":270:274   */\n      0x20\n        /* \"#utility.yul\":265:268   */\n      dup3\n        /* \"#utility.yul\":261:275   */\n      add\n        /* \"#utility.yul\":246:275   */\n      swap1\n      pop\n        /* \"#utility.yul\":112:281   */\n      swap3\n      swap2\n      pop\n      pop\n      jump\t// out\n        /* \"#utility.yul\":287:533   */\n    tag_179:\n        /* \"#utility.yul\":368:369   */\n      0x00\n        /* \"#utility.yul\":378:491   */\n    tag_218:\n        /* \"#utility.yul\":392:398   */\n      dup4\n        /* \"#utility.yul\":389:390   */\n      dup2\n        /* \"#utility.yul\":386:399   */\n      lt\n        /* \"#utility.yul\":378:491   */\n      iszero\n      tag_220\n      jumpi\n        /* \"#utility.yul\":477:478   */\n      dup1\n        /* \"#utility.yul\":472:475   */\n      dup3\n        /* \"#utility.yul\":468:479   */\n      add\n        /* \"#utility.yul\":462:480   */\n      mload\n        /* \"#utility.yul\":458:459   */\n      dup2\n        /* \"#utility.yul\":453:456   */\n      dup5\n        /* \"#utility.yul\":449:460   */\n      add\n        /* \"#utility.yul\":442:481   */\n      mstore\n        /* \"#utility.yul\":414:416   */\n      0x20\n        /* \"#utility.yul\":411:412   */\n      dup2\n        /* \"#utility.yul\":407:417   */\n      add\n        /* \"#utility.yul\":402:417   */\n      swap1\n      pop\n        /* \"#utility.yul\":378:491   */\n      jump(tag_218)\n    tag_220:\n        /* \"#utility.yul\":525:526   */\n      0x00\n        /* \"#utility.yul\":516:522   */\n      dup5\n        /* \"#utility.yul\":511:514   */\n      dup5\n        /* \"#utility.yul\":507:523   */\n      add\n        /* \"#utility.yul\":500:527   */\n      mstore\n        /* \"#utility.yul\":349:533   */\n      pop\n        /* \"#utility.yul\":287:533   */\n      pop\n      pop\n      pop\n      jump\t// out\n        /* \"#utility.yul\":539:641   */\n    tag_180:\n        /* \"#utility.yul\":580:586   */\n      0x00\n        /* \"#utility.yul\":631:633   */\n      0x1f\n        /* \"#utility.yul\":627:634   */\n      not\n        /* \"#utility.yul\":622:624   */\n      0x1f\n        /* \"#utility.yul\":615:620   */\n      dup4\n        /* \"#utility.yul\":611:625   */\n      add\n        /* \"#utility.yul\":607:635   */\n      and\n        /* \"#utility.yul\":597:635   */\n      swap1\n      pop\n        /* \"#utility.yul\":539:641   */\n      swap2\n      swap1\n      pop\n      jump\t// out\n        /* \"#utility.yul\":647:1024   */\n    tag_181:\n        /* \"#utility.yul\":735:738   */\n      0x00\n        /* \"#utility.yul\":763:802   */\n      tag_223\n        /* \"#utility.yul\":796:801   */\n      dup3\n        /* \"#utility.yul\":763:802   */\n      tag_177\n      jump\t// in\n    tag_223:\n        /* \"#utility.yul\":818:889   */\n      tag_224\n        /* \"#utility.yul\":882:888   */\n      dup2\n        /* \"#utility.yul\":877:880   */\n      dup6\n        /* \"#utility.yul\":818:889   */\n      tag_178\n      jump\t// in\n    tag_224:\n        /* \"#utility.yul\":811:889   */\n      swap4\n      pop\n        /* \"#utility.yul\":898:963   */\n      tag_225\n        /* \"#utility.yul\":956:962   */\n      dup2\n        /* \"#utility.yul\":951:954   */\n      dup6\n        /* \"#utility.yul\":944:948   */\n      0x20\n        /* \"#utility.yul\":937:942   */\n      dup7\n        /* \"#utility.yul\":933:949   */\n      add\n        /* \"#utility.yul\":898:963   */\n      tag_179\n      jump\t// in\n    tag_225:\n        /* \"#utility.yul\":988:1017   */\n      tag_226\n        /* \"#utility.yul\":1010:1016   */\n      dup2\n        /* \"#utility.yul\":988:1017   */\n      tag_180\n      jump\t// in\n    tag_226:\n        /* \"#utility.yul\":983:986   */\n      dup5\n        /* \"#utility.yul\":979:1018   */\n      add\n        /* \"#utility.yul\":972:1018   */\n      swap2\n      pop\n        /* \"#utility.yul\":739:1024   */\n      pop\n        /* \"#utility.yul\":647:1024   */\n      swap3\n      swap2\n      pop\n      pop\n      jump\t// out\n        /* \"#utility.yul\":1030:1343   */\n    tag_24:\n        /* \"#utility.yul\":1143:1147   */\n      0x00\n        /* \"#utility.yul\":1181:1183   */\n      0x20\n        /* \"#utility.yul\":1170:1179   */\n      dup3\n        /* \"#utility.yul\":1166:1184   */\n      add\n        /* \"#utility.yul\":1158:1184   */\n      swap1\n      pop\n        /* \"#utility.yul\":1230:1239   */\n      dup2\n        /* \"#utility.yul\":1224:1228   */\n      dup2\n        /* \"#utility.yul\":1220:1240   */\n      sub\n        /* \"#utility.yul\":1216:1217   */\n      0x00\n        /* \"#utility.yul\":1205:1214   */\n      dup4\n        /* \"#utility.yul\":1201:1218   */\n      add\n        /* \"#utility.yul\":1194:1241   */\n      mstore\n        /* \"#utility.yul\":1258:1336   */\n      tag_228\n        /* \"#utility.yul\":1331:1335   */\n      dup2\n        /* \"#utility.yul\":1322:1328   */\n      dup5\n        /* \"#utility.yul\":1258:1336   */\n      tag_181\n      jump\t// in\n    tag_228:\n        /* \"#utility.yul\":1250:1336   */\n      swap1\n      pop\n        /* \"#utility.yul\":1030:1343   */\n      swap3\n      swap2\n      pop\n      pop\n      jump\t// out\n        /* \"#utility.yul\":1430:1547   */\n    tag_183:\n        /* \"#utility.yul\":1539:1540   */\n      0x00\n        /* \"#utility.yul\":1536:1537   */\n      dup1\n        /* \"#utility.yul\":1529:1541   */\n      revert\n        /* \"#utility.yul\":1676:1802   */\n    tag_185:\n        /* \"#utility.yul\":1713:1720   */\n      0x00\n        /* \"#utility.yul\":1753:1795   */\n      0xffffffffffffffffffffffffffffffffffffffff\n        /* \"#utility.yul\":1746:1751   */\n      dup3\n        /* \"#utility.yul\":1742:1796   */\n      and\n        /* \"#utility.yul\":1731:1796   */\n      swap1\n      pop\n        /* \"#utility.yul\":1676:1802   */\n      swap2\n      swap1\n      pop\n      jump\t// out\n        /* \"#utility.yul\":1808:1904   */\n    tag_186:\n        /* \"#utility.yul\":1845:1852   */\n      0x00\n        /* \"#utility.yul\":1874:1898   */\n      tag_234\n        /* \"#utility.yul\":1892:1897   */\n      dup3\n        /* \"#utility.yul\":1874:1898   */\n      tag_185\n      jump\t// in\n    tag_234:\n        /* \"#utility.yul\":1863:1898   */\n      swap1\n      pop\n        /* \"#utility.yul\":1808:1904   */\n      swap2\n      swap1\n      pop\n      jump\t// out\n        /* \"#utility.yul\":1910:2032   */\n    tag_187:\n        /* \"#utility.yul\":1983:2007   */\n      tag_236\n        /* \"#utility.yul\":2001:2006   */\n      dup2\n        /* \"#utility.yul\":1983:2007   */\n      tag_186\n      jump\t// in\n    tag_236:\n        /* \"#utility.yul\":1976:1981   */\n      dup2\n        /* \"#utility.yul\":1973:2008   */\n      eq\n        /* \"#utility.yul\":1963:2026   */\n      tag_237\n      jumpi\n        /* \"#utility.yul\":2022:2023   */\n      0x00\n        /* \"#utility.yul\":2019:2020   */\n      dup1\n        /* \"#utility.yul\":2012:2024   */\n      revert\n        /* \"#utility.yul\":1963:2026   */\n    tag_237:\n        /* \"#utility.yul\":1910:2032   */\n      pop\n      jump\t// out\n        /* \"#utility.yul\":2038:2177   */\n    tag_188:\n        /* \"#utility.yul\":2084:2089   */\n      0x00\n        /* \"#utility.yul\":2122:2128   */\n      dup2\n        /* \"#utility.yul\":2109:2129   */\n      calldataload\n        /* \"#utility.yul\":2100:2129   */\n      swap1\n      pop\n        /* \"#utility.yul\":2138:2171   */\n      tag_239\n        /* \"#utility.yul\":2165:2170   */\n      dup2\n        /* \"#utility.yul\":2138:2171   */\n      tag_187\n      jump\t// in\n    tag_239:\n        /* \"#utility.yul\":2038:2177   */\n      swap3\n      swap2\n      pop\n      pop\n      jump\t// out\n        /* \"#utility.yul\":2183:2260   */\n    tag_189:\n        /* \"#utility.yul\":2220:2227   */\n      0x00\n        /* \"#utility.yul\":2249:2254   */\n      dup2\n        /* \"#utility.yul\":2238:2254   */\n      swap1\n      pop\n        /* \"#utility.yul\":2183:2260   */\n      swap2\n      swap1\n      pop\n      jump\t// out\n        /* \"#utility.yul\":2266:2388   */\n    tag_190:\n        /* \"#utility.yul\":2339:2363   */\n      tag_242\n        /* \"#utility.yul\":2357:2362   */\n      dup2\n        /* \"#utility.yul\":2339:2363   */\n      tag_189\n      jump\t// in\n    tag_242:\n        /* \"#utility.yul\":2332:2337   */\n      dup2\n        /* \"#utility.yul\":2329:2364   */\n      eq\n        /* \"#utility.yul\":2319:2382   */\n      tag_243\n      jumpi\n        /* \"#utility.yul\":2378:2379   */\n      0x00\n        /* \"#utility.yul\":2375:2376   */\n      dup1\n        /* \"#utility.yul\":2368:2380   */\n      revert\n        /* \"#utility.yul\":2319:2382   */\n    tag_243:\n        /* \"#utility.yul\":2266:2388   */\n      pop\n      jump\t// out\n        /* \"#utility.yul\":2394:2533   */\n    tag_191:\n        /* \"#utility.yul\":2440:2445   */\n      0x00\n        /* \"#utility.yul\":2478:2484   */\n      dup2\n        /* \"#utility.yul\":2465:2485   */\n      calldataload\n        /* \"#utility.yul\":2456:2485   */\n      swap1\n      pop\n        /* \"#utility.yul\":2494:2527   */\n      tag_245\n        /* \"#utility.yul\":2521:2526   */\n      dup2\n        /* \"#utility.yul\":2494:2527   */\n      tag_190\n      jump\t// in\n    tag_245:\n        /* \"#utility.yul\":2394:2533   */\n      swap3\n      swap2\n      pop\n      pop\n      jump\t// out\n        /* \"#utility.yul\":2539:3013   */\n    tag_27:\n        /* \"#utility.yul\":2607:2613   */\n      0x00\n        /* \"#utility.yul\":2615:2621   */\n      dup1\n        /* \"#utility.yul\":2664:2666   */\n      0x40\n        /* \"#utility.yul\":2652:2661   */\n      dup4\n        /* \"#utility.yul\":2643:2650   */\n      dup6\n        /* \"#utility.yul\":2639:2662   */\n      sub\n        /* \"#utility.yul\":2635:2667   */\n      slt\n        /* \"#utility.yul\":2632:2751   */\n      iszero\n      tag_247\n      jumpi\n        /* \"#utility.yul\":2670:2749   */\n      tag_248\n      tag_183\n      jump\t// in\n    tag_248:\n        /* \"#utility.yul\":2632:2751   */\n    tag_247:\n        /* \"#utility.yul\":2790:2791   */\n      0x00\n        /* \"#utility.yul\":2815:2868   */\n      tag_249\n        /* \"#utility.yul\":2860:2867   */\n      dup6\n        /* \"#utility.yul\":2851:2857   */\n      dup3\n        /* \"#utility.yul\":2840:2849   */\n      dup7\n        /* \"#utility.yul\":2836:2858   */\n      add\n        /* \"#utility.yul\":2815:2868   */\n      tag_188\n      jump\t// in\n    tag_249:\n        /* \"#utility.yul\":2805:2868   */\n      swap3\n      pop\n        /* \"#utility.yul\":2761:2878   */\n      pop\n        /* \"#utility.yul\":2917:2919   */\n      0x20\n        /* \"#utility.yul\":2943:2996   */\n      tag_250\n        /* \"#utility.yul\":2988:2995   */\n      dup6\n        /* \"#utility.yul\":2979:2985   */\n      dup3\n        /* \"#utility.yul\":2968:2977   */\n      dup7\n        /* \"#utility.yul\":2964:2986   */\n      add\n        /* \"#utility.yul\":2943:2996   */\n      tag_191\n      jump\t// in\n    tag_250:\n        /* \"#utility.yul\":2933:2996   */\n      swap2\n      pop\n        /* \"#utility.yul\":2888:3006   */\n      pop\n        /* \"#utility.yul\":2539:3013   */\n      swap3\n      pop\n      swap3\n      swap1\n      pop\n      jump\t// out\n        /* \"#utility.yul\":3019:3109   */\n    tag_192:\n        /* \"#utility.yul\":3053:3060   */\n      0x00\n        /* \"#utility.yul\":3096:3101   */\n      dup2\n        /* \"#utility.yul\":3089:3102   */\n      iszero\n        /* \"#utility.yul\":3082:3103   */\n      iszero\n        /* \"#utility.yul\":3071:3103   */\n      swap1\n      pop\n        /* \"#utility.yul\":3019:3109   */\n      swap2\n      swap1\n      pop\n      jump\t// out\n        /* \"#utility.yul\":3115:3224   */\n    tag_193:\n        /* \"#utility.yul\":3196:3217   */\n      tag_253\n        /* \"#utility.yul\":3211:3216   */\n      dup2\n        /* \"#utility.yul\":3196:3217   */\n      tag_192\n      jump\t// in\n    tag_253:\n        /* \"#utility.yul\":3191:3194   */\n      dup3\n        /* \"#utility.yul\":3184:3218   */\n      mstore\n        /* \"#utility.yul\":3115:3224   */\n      pop\n      pop\n      jump\t// out\n        /* \"#utility.yul\":3230:3440   */\n    tag_30:\n        /* \"#utility.yul\":3317:3321   */\n      0x00\n        /* \"#utility.yul\":3355:3357   */\n      0x20\n        /* \"#utility.yul\":3344:3353   */\n      dup3\n        /* \"#utility.yul\":3340:3358   */\n      add\n        /* \"#utility.yul\":3332:3358   */\n      swap1\n      pop\n        /* \"#utility.yul\":3368:3433   */\n      tag_255\n        /* \"#utility.yul\":3430:3431   */\n      0x00\n        /* \"#utility.yul\":3419:3428   */\n      dup4\n        /* \"#utility.yul\":3415:3432   */\n      add\n        /* \"#utility.yul\":3406:3412   */\n      dup5\n        /* \"#utility.yul\":3368:3433   */\n      tag_193\n      jump\t// in\n    tag_255:\n        /* \"#utility.yul\":3230:3440   */\n      swap3\n      swap2\n      pop\n      pop\n      jump\t// out\n        /* \"#utility.yul\":3446:3564   */\n    tag_194:\n        /* \"#utility.yul\":3533:3557   */\n      tag_257\n        /* \"#utility.yul\":3551:3556   */\n      dup2\n        /* \"#utility.yul\":3533:3557   */\n      tag_189\n      jump\t// in\n    tag_257:\n        /* \"#utility.yul\":3528:3531   */\n      dup3\n        /* \"#utility.yul\":3521:3558   */\n      mstore\n        /* \"#utility.yul\":3446:3564   */\n      pop\n      pop\n      jump\t// out\n        /* \"#utility.yul\":3570:3792   */\n    tag_34:\n        /* \"#utility.yul\":3663:3667   */\n      0x00\n        /* \"#utility.yul\":3701:3703   */\n      0x20\n        /* \"#utility.yul\":3690:3699   */\n      dup3\n        /* \"#utility.yul\":3686:3704   */\n      add\n        /* \"#utility.yul\":3678:3704   */\n      swap1\n      pop\n        /* \"#utility.yul\":3714:3785   */\n      tag_259\n        /* \"#utility.yul\":3782:3783   */\n      0x00\n        /* \"#utility.yul\":3771:3780   */\n      dup4\n        /* \"#utility.yul\":3767:3784   */\n      add\n        /* \"#utility.yul\":3758:3764   */\n      dup5\n        /* \"#utility.yul\":3714:3785   */\n      tag_194\n      jump\t// in\n    tag_259:\n        /* \"#utility.yul\":3570:3792   */\n      swap3\n      swap2\n      pop\n      pop\n      jump\t// out\n        /* \"#utility.yul\":3798:4417   */\n    tag_37:\n        /* \"#utility.yul\":3875:3881   */\n      0x00\n        /* \"#utility.yul\":3883:3889   */\n      dup1\n        /* \"#utility.yul\":3891:3897   */\n      0x00\n        /* \"#utility.yul\":3940:3942   */\n      0x60\n        /* \"#utility.yul\":3928:3937   */\n      dup5\n        /* \"#utility.yul\":3919:3926   */\n      dup7\n        /* \"#utility.yul\":3915:3938   */\n      sub\n        /* \"#utility.yul\":3911:3943   */\n      slt\n        /* \"#utility.yul\":3908:4027   */\n      iszero\n      tag_261\n      jumpi\n        /* \"#utility.yul\":3946:4025   */\n      tag_262\n      tag_183\n      jump\t// in\n    tag_262:\n        /* \"#utility.yul\":3908:4027   */\n    tag_261:\n        /* \"#utility.yul\":4066:4067   */\n      0x00\n        /* \"#utility.yul\":4091:4144   */\n      tag_263\n        /* \"#utility.yul\":4136:4143   */\n      dup7\n        /* \"#utility.yul\":4127:4133   */\n      dup3\n        /* \"#utility.yul\":4116:4125   */\n      dup8\n        /* \"#utility.yul\":4112:4134   */\n      add\n        /* \"#utility.yul\":4091:4144   */\n      tag_188\n      jump\t// in\n    tag_263:\n        /* \"#utility.yul\":4081:4144   */\n      swap4\n      pop\n        /* \"#utility.yul\":4037:4154   */\n      pop\n        /* \"#utility.yul\":4193:4195   */\n      0x20\n        /* \"#utility.yul\":4219:4272   */\n      tag_264\n        /* \"#utility.yul\":4264:4271   */\n      dup7\n        /* \"#utility.yul\":4255:4261   */\n      dup3\n        /* \"#utility.yul\":4244:4253   */\n      dup8\n        /* \"#utility.yul\":4240:4262   */\n      add\n        /* \"#utility.yul\":4219:4272   */\n      tag_188\n      jump\t// in\n    tag_264:\n        /* \"#utility.yul\":4209:4272   */\n      swap3\n      pop\n        /* \"#utility.yul\":4164:4282   */\n      pop\n        /* \"#utility.yul\":4321:4323   */\n      0x40\n        /* \"#utility.yul\":4347:4400   */\n      tag_265\n        /* \"#utility.yul\":4392:4399   */\n      dup7\n        /* \"#utility.yul\":4383:4389   */\n      dup3\n        /* \"#utility.yul\":4372:4381   */\n      dup8\n        /* \"#utility.yul\":4368:4390   */\n      add\n        /* \"#utility.yul\":4347:4400   */\n      tag_191\n      jump\t// in\n    tag_265:\n        /* \"#utility.yul\":4337:4400   */\n      swap2\n      pop\n        /* \"#utility.yul\":4292:4410   */\n      pop\n        /* \"#utility.yul\":3798:4417   */\n      swap3\n      pop\n      swap3\n      pop\n      swap3\n      jump\t// out\n        /* \"#utility.yul\":4423:4509   */\n    tag_195:\n        /* \"#utility.yul\":4458:4465   */\n      0x00\n        /* \"#utility.yul\":4498:4502   */\n      0xff\n        /* \"#utility.yul\":4491:4496   */\n      dup3\n        /* \"#utility.yul\":4487:4503   */\n      and\n        /* \"#utility.yul\":4476:4503   */\n      swap1\n      pop\n        /* \"#utility.yul\":4423:4509   */\n      swap2\n      swap1\n      pop\n      jump\t// out\n        /* \"#utility.yul\":4515:4627   */\n    tag_196:\n        /* \"#utility.yul\":4598:4620   */\n      tag_268\n        /* \"#utility.yul\":4614:4619   */\n      dup2\n        /* \"#utility.yul\":4598:4620   */\n      tag_195\n      jump\t// in\n    tag_268:\n        /* \"#utility.yul\":4593:4596   */\n      dup3\n        /* \"#utility.yul\":4586:4621   */\n      mstore\n        /* \"#utility.yul\":4515:4627   */\n      pop\n      pop\n      jump\t// out\n        /* \"#utility.yul\":4633:4847   */\n    tag_43:\n        /* \"#utility.yul\":4722:4726   */\n      0x00\n        /* \"#utility.yul\":4760:4762   */\n      0x20\n        /* \"#utility.yul\":4749:4758   */\n      dup3\n        /* \"#utility.yul\":4745:4763   */\n      add\n        /* \"#utility.yul\":4737:4763   */\n      swap1\n      pop\n        /* \"#utility.yul\":4773:4840   */\n      tag_270\n        /* \"#utility.yul\":4837:4838   */\n      0x00\n        /* \"#utility.yul\":4826:4835   */\n      dup4\n        /* \"#utility.yul\":4822:4839   */\n      add\n        /* \"#utility.yul\":4813:4819   */\n      dup5\n        /* \"#utility.yul\":4773:4840   */\n      tag_196\n      jump\t// in\n    tag_270:\n        /* \"#utility.yul\":4633:4847   */\n      swap3\n      swap2\n      pop\n      pop\n      jump\t// out\n        /* \"#utility.yul\":4853:5182   */\n    tag_50:\n        /* \"#utility.yul\":4912:4918   */\n      0x00\n        /* \"#utility.yul\":4961:4963   */\n      0x20\n        /* \"#utility.yul\":4949:4958   */\n      dup3\n        /* \"#utility.yul\":4940:4947   */\n      dup5\n        /* \"#utility.yul\":4936:4959   */\n      sub\n        /* \"#utility.yul\":4932:4964   */\n      slt\n        /* \"#utility.yul\":4929:5048   */\n      iszero\n      tag_272\n      jumpi\n        /* \"#utility.yul\":4967:5046   */\n      tag_273\n      tag_183\n      jump\t// in\n    tag_273:\n        /* \"#utility.yul\":4929:5048   */\n    tag_272:\n        /* \"#utility.yul\":5087:5088   */\n      0x00\n        /* \"#utility.yul\":5112:5165   */\n      tag_274\n        /* \"#utility.yul\":5157:5164   */\n      dup5\n        /* \"#utility.yul\":5148:5154   */\n      dup3\n        /* \"#utility.yul\":5137:5146   */\n      dup6\n        /* \"#utility.yul\":5133:5155   */\n      add\n        /* \"#utility.yul\":5112:5165   */\n      tag_188\n      jump\t// in\n    tag_274:\n        /* \"#utility.yul\":5102:5165   */\n      swap2\n      pop\n        /* \"#utility.yul\":5058:5175   */\n      pop\n        /* \"#utility.yul\":4853:5182   */\n      swap3\n      swap2\n      pop\n      pop\n      jump\t// out\n        /* \"#utility.yul\":5188:5306   */\n    tag_197:\n        /* \"#utility.yul\":5275:5299   */\n      tag_276\n        /* \"#utility.yul\":5293:5298   */\n      dup2\n        /* \"#utility.yul\":5275:5299   */\n      tag_186\n      jump\t// in\n    tag_276:\n        /* \"#utility.yul\":5270:5273   */\n      dup3\n        /* \"#utility.yul\":5263:5300   */\n      mstore\n        /* \"#utility.yul\":5188:5306   */\n      pop\n      pop\n      jump\t// out\n        /* \"#utility.yul\":5312:5534   */\n    tag_56:\n        /* \"#utility.yul\":5405:5409   */\n      0x00\n        /* \"#utility.yul\":5443:5445   */\n      0x20\n        /* \"#utility.yul\":5432:5441   */\n      dup3\n        /* \"#utility.yul\":5428:5446   */\n      add\n        /* \"#utility.yul\":5420:5446   */\n      swap1\n      pop\n        /* \"#utility.yul\":5456:5527   */\n      tag_278\n        /* \"#utility.yul\":5524:5525   */\n      0x00\n        /* \"#utility.yul\":5513:5522   */\n      dup4\n        /* \"#utility.yul\":5509:5526   */\n      add\n        /* \"#utility.yul\":5500:5506   */\n      dup5\n        /* \"#utility.yul\":5456:5527   */\n      tag_197\n      jump\t// in\n    tag_278:\n        /* \"#utility.yul\":5312:5534   */\n      swap3\n      swap2\n      pop\n      pop\n      jump\t// out\n        /* \"#utility.yul\":5540:6014   */\n    tag_79:\n        /* \"#utility.yul\":5608:5614   */\n      0x00\n        /* \"#utility.yul\":5616:5622   */\n      dup1\n        /* \"#utility.yul\":5665:5667   */\n      0x40\n        /* \"#utility.yul\":5653:5662   */\n      dup4\n        /* \"#utility.yul\":5644:5651   */\n      dup6\n        /* \"#utility.yul\":5640:5663   */\n      sub\n        /* \"#utility.yul\":5636:5668   */\n      slt\n        /* \"#utility.yul\":5633:5752   */\n      iszero\n      tag_280\n      jumpi\n        /* \"#utility.yul\":5671:5750   */\n      tag_281\n      tag_183\n      jump\t// in\n    tag_281:\n        /* \"#utility.yul\":5633:5752   */\n    tag_280:\n        /* \"#utility.yul\":5791:5792   */\n      0x00\n        /* \"#utility.yul\":5816:5869   */\n      tag_282\n        /* \"#utility.yul\":5861:5868   */\n      dup6\n        /* \"#utility.yul\":5852:5858   */\n      dup3\n        /* \"#utility.yul\":5841:5850   */\n      dup7\n        /* \"#utility.yul\":5837:5859   */\n      add\n        /* \"#utility.yul\":5816:5869   */\n      tag_188\n      jump\t// in\n    tag_282:\n        /* \"#utility.yul\":5806:5869   */\n      swap3\n      pop\n        /* \"#utility.yul\":5762:5879   */\n      pop\n        /* \"#utility.yul\":5918:5920   */\n      0x20\n        /* \"#utility.yul\":5944:5997   */\n      tag_283\n        /* \"#utility.yul\":5989:5996   */\n      dup6\n        /* \"#utility.yul\":5980:5986   */\n      dup3\n        /* \"#utility.yul\":5969:5978   */\n      dup7\n        /* \"#utility.yul\":5965:5987   */\n      add\n        /* \"#utility.yul\":5944:5997   */\n      tag_188\n      jump\t// in\n    tag_283:\n        /* \"#utility.yul\":5934:5997   */\n      swap2\n      pop\n        /* \"#utility.yul\":5889:6007   */\n      pop\n        /* \"#utility.yul\":5540:6014   */\n      swap3\n      pop\n      swap3\n      swap1\n      pop\n      jump\t// out\n        /* \"#utility.yul\":6020:6200   */\n    tag_198:\n        /* \"#utility.yul\":6068:6145   */\n      0x4e487b7100000000000000000000000000000000000000000000000000000000\n        /* \"#utility.yul\":6065:6066   */\n      0x00\n        /* \"#utility.yul\":6058:6146   */\n      mstore\n        /* \"#utility.yul\":6165:6169   */\n      0x22\n        /* \"#utility.yul\":6162:6163   */\n      0x04\n        /* \"#utility.yul\":6155:6170   */\n      mstore\n        /* \"#utility.yul\":6189:6193   */\n      0x24\n        /* \"#utility.yul\":6186:6187   */\n      0x00\n        /* \"#utility.yul\":6179:6194   */\n      revert\n        /* \"#utility.yul\":6206:6526   */\n    tag_84:\n        /* \"#utility.yul\":6250:6256   */\n      0x00\n        /* \"#utility.yul\":6287:6288   */\n      0x02\n        /* \"#utility.yul\":6281:6285   */\n      dup3\n        /* \"#utility.yul\":6277:6289   */\n      div\n        /* \"#utility.yul\":6267:6289   */\n      swap1\n      pop\n        /* \"#utility.yul\":6334:6335   */\n      0x01\n        /* \"#utility.yul\":6328:6332   */\n      dup3\n        /* \"#utility.yul\":6324:6336   */\n      and\n        /* \"#utility.yul\":6355:6373   */\n      dup1\n        /* \"#utility.yul\":6345:6426   */\n      tag_286\n      jumpi\n        /* \"#utility.yul\":6411:6415   */\n      0x7f\n        /* \"#utility.yul\":6403:6409   */\n      dup3\n        /* \"#utility.yul\":6399:6416   */\n      and\n        /* \"#utility.yul\":6389:6416   */\n      swap2\n      pop\n        /* \"#utility.yul\":6345:6426   */\n    tag_286:\n        /* \"#utility.yul\":6473:6475   */\n      0x20\n        /* \"#utility.yul\":6465:6471   */\n      dup3\n        /* \"#utility.yul\":6462:6476   */\n      lt\n        /* \"#utility.yul\":6442:6460   */\n      dup2\n        /* \"#utility.yul\":6439:6477   */\n      sub\n        /* \"#utility.yul\":6436:6520   */\n      tag_287\n      jumpi\n        /* \"#utility.yul\":6492:6510   */\n      tag_288\n      tag_198\n      jump\t// in\n    tag_288:\n        /* \"#utility.yul\":6436:6520   */\n    tag_287:\n        /* \"#utility.yul\":6257:6526   */\n      pop\n        /* \"#utility.yul\":6206:6526   */\n      swap2\n      swap1\n      pop\n      jump\t// out\n        /* \"#utility.yul\":6532:6759   */\n    tag_199:\n        /* \"#utility.yul\":6672:6706   */\n      0x45524332303a207472616e7366657220616d6f756e7420657863656564732061\n        /* \"#utility.yul\":6668:6669   */\n      0x00\n        /* \"#utility.yul\":6660:6666   */\n      dup3\n        /* \"#utility.yul\":6656:6670   */\n      add\n        /* \"#utility.yul\":6649:6707   */\n      mstore\n        /* \"#utility.yul\":6741:6751   */\n      0x6c6c6f77616e6365000000000000000000000000000000000000000000000000\n        /* \"#utility.yul\":6736:6738   */\n      0x20\n        /* \"#utility.yul\":6728:6734   */\n      dup3\n        /* \"#utility.yul\":6724:6739   */\n      add\n        /* \"#utility.yul\":6717:6752   */\n      mstore\n        /* \"#utility.yul\":6532:6759   */\n      pop\n      jump\t// out\n        /* \"#utility.yul\":6765:7131   */\n    tag_200:\n        /* \"#utility.yul\":6907:6910   */\n      0x00\n        /* \"#utility.yul\":6928:6995   */\n      tag_291\n        /* \"#utility.yul\":6992:6994   */\n      0x28\n        /* \"#utility.yul\":6987:6990   */\n      dup4\n        /* \"#utility.yul\":6928:6995   */\n      tag_178\n      jump\t// in\n    tag_291:\n        /* \"#utility.yul\":6921:6995   */\n      swap2\n      pop\n        /* \"#utility.yul\":7004:7097   */\n      tag_292\n        /* \"#utility.yul\":7093:7096   */\n      dup3\n        /* \"#utility.yul\":7004:7097   */\n      tag_199\n      jump\t// in\n    tag_292:\n        /* \"#utility.yul\":7122:7124   */\n      0x40\n        /* \"#utility.yul\":7117:7120   */\n      dup3\n        /* \"#utility.yul\":7113:7125   */\n      add\n        /* \"#utility.yul\":7106:7125   */\n      swap1\n      pop\n        /* \"#utility.yul\":6765:7131   */\n      swap2\n      swap1\n      pop\n      jump\t// out\n        /* \"#utility.yul\":7137:7556   */\n    tag_101:\n        /* \"#utility.yul\":7303:7307   */\n      0x00\n        /* \"#utility.yul\":7341:7343   */\n      0x20\n        /* \"#utility.yul\":7330:7339   */\n      dup3\n        /* \"#utility.yul\":7326:7344   */\n      add\n        /* \"#utility.yul\":7318:7344   */\n      swap1\n      pop\n        /* \"#utility.yul\":7390:7399   */\n      dup2\n        /* \"#utility.yul\":7384:7388   */\n      dup2\n        /* \"#utility.yul\":7380:7400   */\n      sub\n        /* \"#utility.yul\":7376:7377   */\n      0x00\n        /* \"#utility.yul\":7365:7374   */\n      dup4\n        /* \"#utility.yul\":7361:7378   */\n      add\n        /* \"#utility.yul\":7354:7401   */\n      mstore\n        /* \"#utility.yul\":7418:7549   */\n      tag_294\n        /* \"#utility.yul\":7544:7548   */\n      dup2\n        /* \"#utility.yul\":7418:7549   */\n      tag_200\n      jump\t// in\n    tag_294:\n        /* \"#utility.yul\":7410:7549   */\n      swap1\n      pop\n        /* \"#utility.yul\":7137:7556   */\n      swap2\n      swap1\n      pop\n      jump\t// out\n        /* \"#utility.yul\":7562:7742   */\n    tag_201:\n        /* \"#utility.yul\":7610:7687   */\n      0x4e487b7100000000000000000000000000000000000000000000000000000000\n        /* \"#utility.yul\":7607:7608   */\n      0x00\n        /* \"#utility.yul\":7600:7688   */\n      mstore\n        /* \"#utility.yul\":7707:7711   */\n      0x11\n        /* \"#utility.yul\":7704:7705   */\n      0x04\n        /* \"#utility.yul\":7697:7712   */\n      mstore\n        /* \"#utility.yul\":7731:7735   */\n      0x24\n        /* \"#utility.yul\":7728:7729   */\n      0x00\n        /* \"#utility.yul\":7721:7736   */\n      revert\n        /* \"#utility.yul\":7748:7939   */\n    tag_110:\n        /* \"#utility.yul\":7788:7791   */\n      0x00\n        /* \"#utility.yul\":7807:7827   */\n      tag_297\n        /* \"#utility.yul\":7825:7826   */\n      dup3\n        /* \"#utility.yul\":7807:7827   */\n      tag_189\n      jump\t// in\n    tag_297:\n        /* \"#utility.yul\":7802:7827   */\n      swap2\n      pop\n        /* \"#utility.yul\":7841:7861   */\n      tag_298\n        /* \"#utility.yul\":7859:7860   */\n      dup4\n        /* \"#utility.yul\":7841:7861   */\n      tag_189\n      jump\t// in\n    tag_298:\n        /* \"#utility.yul\":7836:7861   */\n      swap3\n      pop\n        /* \"#utility.yul\":7884:7885   */\n      dup3\n        /* \"#utility.yul\":7881:7882   */\n      dup3\n        /* \"#utility.yul\":7877:7886   */\n      add\n        /* \"#utility.yul\":7870:7886   */\n      swap1\n      pop\n        /* \"#utility.yul\":7905:7908   */\n      dup1\n        /* \"#utility.yul\":7902:7903   */\n      dup3\n        /* \"#utility.yul\":7899:7909   */\n      gt\n        /* \"#utility.yul\":7896:7932   */\n      iszero\n      tag_299\n      jumpi\n        /* \"#utility.yul\":7912:7930   */\n      tag_300\n      tag_201\n      jump\t// in\n    tag_300:\n        /* \"#utility.yul\":7896:7932   */\n    tag_299:\n        /* \"#utility.yul\":7748:7939   */\n      swap3\n      swap2\n      pop\n      pop\n      jump\t// out\n        /* \"#utility.yul\":7945:8169   */\n    tag_202:\n        /* \"#utility.yul\":8085:8119   */\n      0x45524332303a2064656372656173656420616c6c6f77616e63652062656c6f77\n        /* \"#utility.yul\":8081:8082   */\n      0x00\n        /* \"#utility.yul\":8073:8079   */\n      dup3\n        /* \"#utility.yul\":8069:8083   */\n      add\n        /* \"#utility.yul\":8062:8120   */\n      mstore\n        /* \"#utility.yul\":8154:8161   */\n      0x207a65726f000000000000000000000000000000000000000000000000000000\n        /* \"#utility.yul\":8149:8151   */\n      0x20\n        /* \"#utility.yul\":8141:8147   */\n      dup3\n        /* \"#utility.yul\":8137:8152   */\n      add\n        /* \"#utility.yul\":8130:8162   */\n      mstore\n        /* \"#utility.yul\":7945:8169   */\n      pop\n      jump\t// out\n        /* \"#utility.yul\":8175:8541   */\n    tag_203:\n        /* \"#utility.yul\":8317:8320   */\n      0x00\n        /* \"#utility.yul\":8338:8405   */\n      tag_303\n        /* \"#utility.yul\":8402:8404   */\n      0x25\n        /* \"#utility.yul\":8397:8400   */\n      dup4\n        /* \"#utility.yul\":8338:8405   */\n      tag_178\n      jump\t// in\n    tag_303:\n        /* \"#utility.yul\":8331:8405   */\n      swap2\n      pop\n        /* \"#utility.yul\":8414:8507   */\n      tag_304\n        /* \"#utility.yul\":8503:8506   */\n      dup3\n        /* \"#utility.yul\":8414:8507   */\n      tag_202\n      jump\t// in\n    tag_304:\n        /* \"#utility.yul\":8532:8534   */\n      0x40\n        /* \"#utility.yul\":8527:8530   */\n      dup3\n        /* \"#utility.yul\":8523:8535   */\n      add\n        /* \"#utility.yul\":8516:8535   */\n      swap1\n      pop\n        /* \"#utility.yul\":8175:8541   */\n      swap2\n      swap1\n      pop\n      jump\t// out\n        /* \"#utility.yul\":8547:8966   */\n    tag_123:\n        /* \"#utility.yul\":8713:8717   */\n      0x00\n        /* \"#utility.yul\":8751:8753   */\n      0x20\n        /* \"#utility.yul\":8740:8749   */\n      dup3\n        /* \"#utility.yul\":8736:8754   */\n      add\n        /* \"#utility.yul\":8728:8754   */\n      swap1\n      pop\n        /* \"#utility.yul\":8800:8809   */\n      dup2\n        /* \"#utility.yul\":8794:8798   */\n      dup2\n        /* \"#utility.yul\":8790:8810   */\n      sub\n        /* \"#utility.yul\":8786:8787   */\n      0x00\n        /* \"#utility.yul\":8775:8784   */\n      dup4\n        /* \"#utility.yul\":8771:8788   */\n      add\n        /* \"#utility.yul\":8764:8811   */\n      mstore\n        /* \"#utility.yul\":8828:8959   */\n      tag_306\n        /* \"#utility.yul\":8954:8958   */\n      dup2\n        /* \"#utility.yul\":8828:8959   */\n      tag_203\n      jump\t// in\n    tag_306:\n        /* \"#utility.yul\":8820:8959   */\n      swap1\n      pop\n        /* \"#utility.yul\":8547:8966   */\n      swap2\n      swap1\n      pop\n      jump\t// out\n        /* \"#utility.yul\":8972:9195   */\n    tag_204:\n        /* \"#utility.yul\":9112:9146   */\n      0x45524332303a20617070726f76652066726f6d20746865207a65726f20616464\n        /* \"#utility.yul\":9108:9109   */\n      0x00\n        /* \"#utility.yul\":9100:9106   */\n      dup3\n        /* \"#utility.yul\":9096:9110   */\n      add\n        /* \"#utility.yul\":9089:9147   */\n      mstore\n        /* \"#utility.yul\":9181:9187   */\n      0x7265737300000000000000000000000000000000000000000000000000000000\n        /* \"#utility.yul\":9176:9178   */\n      0x20\n        /* \"#utility.yul\":9168:9174   */\n      dup3\n        /* \"#utility.yul\":9164:9179   */\n      add\n        /* \"#utility.yul\":9157:9188   */\n      mstore\n        /* \"#utility.yul\":8972:9195   */\n      pop\n      jump\t// out\n        /* \"#utility.yul\":9201:9567   */\n    tag_205:\n        /* \"#utility.yul\":9343:9346   */\n      0x00\n        /* \"#utility.yul\":9364:9431   */\n      tag_309\n        /* \"#utility.yul\":9428:9430   */\n      0x24\n        /* \"#utility.yul\":9423:9426   */\n      dup4\n        /* \"#utility.yul\":9364:9431   */\n      tag_178\n      jump\t// in\n    tag_309:\n        /* \"#utility.yul\":9357:9431   */\n      swap2\n      pop\n        /* \"#utility.yul\":9440:9533   */\n      tag_310\n        /* \"#utility.yul\":9529:9532   */\n      dup3\n        /* \"#utility.yul\":9440:9533   */\n      tag_204\n      jump\t// in\n    tag_310:\n        /* \"#utility.yul\":9558:9560   */\n      0x40\n        /* \"#utility.yul\":9553:9556   */\n      dup3\n        /* \"#utility.yul\":9549:9561   */\n      add\n        /* \"#utility.yul\":9542:9561   */\n      swap1\n      pop\n        /* \"#utility.yul\":9201:9567   */\n      swap2\n      swap1\n      pop\n      jump\t// out\n        /* \"#utility.yul\":9573:9992   */\n    tag_138:\n        /* \"#utility.yul\":9739:9743   */\n      0x00\n        /* \"#utility.yul\":9777:9779   */\n      0x20\n        /* \"#utility.yul\":9766:9775   */\n      dup3\n        /* \"#utility.yul\":9762:9780   */\n      add\n        /* \"#utility.yul\":9754:9780   */\n      swap1\n      pop\n        /* \"#utility.yul\":9826:9835   */\n      dup2\n        /* \"#utility.yul\":9820:9824   */\n      dup2\n        /* \"#utility.yul\":9816:9836   */\n      sub\n        /* \"#utility.yul\":9812:9813   */\n      0x00\n        /* \"#utility.yul\":9801:9810   */\n      dup4\n        /* \"#utility.yul\":9797:9814   */\n      add\n        /* \"#utility.yul\":9790:9837   */\n      mstore\n        /* \"#utility.yul\":9854:9985   */\n      tag_312\n        /* \"#utility.yul\":9980:9984   */\n      dup2\n        /* \"#utility.yul\":9854:9985   */\n      tag_205\n      jump\t// in\n    tag_312:\n        /* \"#utility.yul\":9846:9985   */\n      swap1\n      pop\n        /* \"#utility.yul\":9573:9992   */\n      swap2\n      swap1\n      pop\n      jump\t// out\n        /* \"#utility.yul\":9998:10219   */\n    tag_206:\n        /* \"#utility.yul\":10138:10172   */\n      0x45524332303a20617070726f766520746f20746865207a65726f206164647265\n        /* \"#utility.yul\":10134:10135   */\n      0x00\n        /* \"#utility.yul\":10126:10132   */\n      dup3\n        /* \"#utility.yul\":10122:10136   */\n      add\n        /* \"#utility.yul\":10115:10173   */\n      mstore\n        /* \"#utility.yul\":10207:10211   */\n      0x7373000000000000000000000000000000000000000000000000000000000000\n        /* \"#utility.yul\":10202:10204   */\n      0x20\n        /* \"#utility.yul\":10194:10200   */\n      dup3\n        /* \"#utility.yul\":10190:10205   */\n      add\n        /* \"#utility.yul\":10183:10212   */\n      mstore\n        /* \"#utility.yul\":9998:10219   */\n      pop\n      jump\t// out\n        /* \"#utility.yul\":10225:10591   */\n    tag_207:\n        /* \"#utility.yul\":10367:10370   */\n      0x00\n        /* \"#utility.yul\":10388:10455   */\n      tag_315\n        /* \"#utility.yul\":10452:10454   */\n      0x22\n        /* \"#utility.yul\":10447:10450   */\n      dup4\n        /* \"#utility.yul\":10388:10455   */\n      tag_178\n      jump\t// in\n    tag_315:\n        /* \"#utility.yul\":10381:10455   */\n      swap2\n      pop\n        /* \"#utility.yul\":10464:10557   */\n      tag_316\n        /* \"#utility.yul\":10553:10556   */\n      dup3\n        /* \"#utility.yul\":10464:10557   */\n      tag_206\n      jump\t// in\n    tag_316:\n        /* \"#utility.yul\":10582:10584   */\n      0x40\n        /* \"#utility.yul\":10577:10580   */\n      dup3\n        /* \"#utility.yul\":10573:10585   */\n      add\n        /* \"#utility.yul\":10566:10585   */\n      swap1\n      pop\n        /* \"#utility.yul\":10225:10591   */\n      swap2\n      swap1\n      pop\n      jump\t// out\n        /* \"#utility.yul\":10597:11016   */\n    tag_141:\n        /* \"#utility.yul\":10763:10767   */\n      0x00\n        /* \"#utility.yul\":10801:10803   */\n      0x20\n        /* \"#utility.yul\":10790:10799   */\n      dup3\n        /* \"#utility.yul\":10786:10804   */\n      add\n        /* \"#utility.yul\":10778:10804   */\n      swap1\n      pop\n        /* \"#utility.yul\":10850:10859   */\n      dup2\n        /* \"#utility.yul\":10844:10848   */\n      dup2\n        /* \"#utility.yul\":10840:10860   */\n      sub\n        /* \"#utility.yul\":10836:10837   */\n      0x00\n        /* \"#utility.yul\":10825:10834   */\n      dup4\n        /* \"#utility.yul\":10821:10838   */\n      add\n        /* \"#utility.yul\":10814:10861   */\n      mstore\n        /* \"#utility.yul\":10878:11009   */\n      tag_318\n        /* \"#utility.yul\":11004:11008   */\n      dup2\n        /* \"#utility.yul\":10878:11009   */\n      tag_207\n      jump\t// in\n    tag_318:\n        /* \"#utility.yul\":10870:11009   */\n      swap1\n      pop\n        /* \"#utility.yul\":10597:11016   */\n      swap2\n      swap1\n      pop\n      jump\t// out\n        /* \"#utility.yul\":11022:11246   */\n    tag_208:\n        /* \"#utility.yul\":11162:11196   */\n      0x45524332303a207472616e736665722066726f6d20746865207a65726f206164\n        /* \"#utility.yul\":11158:11159   */\n      0x00\n        /* \"#utility.yul\":11150:11156   */\n      dup3\n        /* \"#utility.yul\":11146:11160   */\n      add\n        /* \"#utility.yul\":11139:11197   */\n      mstore\n        /* \"#utility.yul\":11231:11238   */\n      0x6472657373000000000000000000000000000000000000000000000000000000\n        /* \"#utility.yul\":11226:11228   */\n      0x20\n        /* \"#utility.yul\":11218:11224   */\n      dup3\n        /* \"#utility.yul\":11214:11229   */\n      add\n        /* \"#utility.yul\":11207:11239   */\n      mstore\n        /* \"#utility.yul\":11022:11246   */\n      pop\n      jump\t// out\n        /* \"#utility.yul\":11252:11618   */\n    tag_209:\n        /* \"#utility.yul\":11394:11397   */\n      0x00\n        /* \"#utility.yul\":11415:11482   */\n      tag_321\n        /* \"#utility.yul\":11479:11481   */\n      0x25\n        /* \"#utility.yul\":11474:11477   */\n      dup4\n        /* \"#utility.yul\":11415:11482   */\n      tag_178\n      jump\t// in\n    tag_321:\n        /* \"#utility.yul\":11408:11482   */\n      swap2\n      pop\n        /* \"#utility.yul\":11491:11584   */\n      tag_322\n        /* \"#utility.yul\":11580:11583   */\n      dup3\n        /* \"#utility.yul\":11491:11584   */\n      tag_208\n      jump\t// in\n    tag_322:\n        /* \"#utility.yul\":11609:11611   */\n      0x40\n        /* \"#utility.yul\":11604:11607   */\n      dup3\n        /* \"#utility.yul\":11600:11612   */\n      add\n        /* \"#utility.yul\":11593:11612   */\n      swap1\n      pop\n        /* \"#utility.yul\":11252:11618   */\n      swap2\n      swap1\n      pop\n      jump\t// out\n        /* \"#utility.yul\":11624:12043   */\n    tag_146:\n        /* \"#utility.yul\":11790:11794   */\n      0x00\n        /* \"#utility.yul\":11828:11830   */\n      0x20\n        /* \"#utility.yul\":11817:11826   */\n      dup3\n        /* \"#utility.yul\":11813:11831   */\n      add\n        /* \"#utility.yul\":11805:11831   */\n      swap1\n      pop\n        /* \"#utility.yul\":11877:11886   */\n      dup2\n        /* \"#utility.yul\":11871:11875   */\n      dup2\n        /* \"#utility.yul\":11867:11887   */\n      sub\n        /* \"#utility.yul\":11863:11864   */\n      0x00\n        /* \"#utility.yul\":11852:11861   */\n      dup4\n        /* \"#utility.yul\":11848:11865   */\n      add\n        /* \"#utility.yul\":11841:11888   */\n      mstore\n        /* \"#utility.yul\":11905:12036   */\n      tag_324\n        /* \"#utility.yul\":12031:12035   */\n      dup2\n        /* \"#utility.yul\":11905:12036   */\n      tag_209\n      jump\t// in\n    tag_324:\n        /* \"#utility.yul\":11897:12036   */\n      swap1\n      pop\n        /* \"#utility.yul\":11624:12043   */\n      swap2\n      swap1\n      pop\n      jump\t// out\n        /* \"#utility.yul\":12049:12271   */\n    tag_210:\n        /* \"#utility.yul\":12189:12223   */\n      0x45524332303a207472616e7366657220746f20746865207a65726f2061646472\n        /* \"#utility.yul\":12185:12186   */\n      0x00\n        /* \"#utility.yul\":12177:12183   */\n      dup3\n        /* \"#utility.yul\":12173:12187   */\n      add\n        /* \"#utility.yul\":12166:12224   */\n      mstore\n        /* \"#utility.yul\":12258:12263   */\n      0x6573730000000000000000000000000000000000000000000000000000000000\n        /* \"#utility.yul\":12253:12255   */\n      0x20\n        /* \"#utility.yul\":12245:12251   */\n      dup3\n        /* \"#utility.yul\":12241:12256   */\n      add\n        /* \"#utility.yul\":12234:12264   */\n      mstore\n        /* \"#utility.yul\":12049:12271   */\n      pop\n      jump\t// out\n        /* \"#utility.yul\":12277:12643   */\n    tag_211:\n        /* \"#utility.yul\":12419:12422   */\n      0x00\n        /* \"#utility.yul\":12440:12507   */\n      tag_327\n        /* \"#utility.yul\":12504:12506   */\n      0x23\n        /* \"#utility.yul\":12499:12502   */\n      dup4\n        /* \"#utility.yul\":12440:12507   */\n      tag_178\n      jump\t// in\n    tag_327:\n        /* \"#utility.yul\":12433:12507   */\n      swap2\n      pop\n        /* \"#utility.yul\":12516:12609   */\n      tag_328\n        /* \"#utility.yul\":12605:12608   */\n      dup3\n        /* \"#utility.yul\":12516:12609   */\n      tag_210\n      jump\t// in\n    tag_328:\n        /* \"#utility.yul\":12634:12636   */\n      0x40\n        /* \"#utility.yul\":12629:12632   */\n      dup3\n        /* \"#utility.yul\":12625:12637   */\n      add\n        /* \"#utility.yul\":12618:12637   */\n      swap1\n      pop\n        /* \"#utility.yul\":12277:12643   */\n      swap2\n      swap1\n      pop\n      jump\t// out\n        /* \"#utility.yul\":12649:13068   */\n    tag_149:\n        /* \"#utility.yul\":12815:12819   */\n      0x00\n        /* \"#utility.yul\":12853:12855   */\n      0x20\n        /* \"#utility.yul\":12842:12851   */\n      dup3\n        /* \"#utility.yul\":12838:12856   */\n      add\n        /* \"#utility.yul\":12830:12856   */\n      swap1\n      pop\n        /* \"#utility.yul\":12902:12911   */\n      dup2\n        /* \"#utility.yul\":12896:12900   */\n      dup2\n        /* \"#utility.yul\":12892:12912   */\n      sub\n        /* \"#utility.yul\":12888:12889   */\n      0x00\n        /* \"#utility.yul\":12877:12886   */\n      dup4\n        /* \"#utility.yul\":12873:12890   */\n      add\n        /* \"#utility.yul\":12866:12913   */\n      mstore\n        /* \"#utility.yul\":12930:13061   */\n      tag_330\n        /* \"#utility.yul\":13056:13060   */\n      dup2\n        /* \"#utility.yul\":12930:13061   */\n      tag_211\n      jump\t// in\n    tag_330:\n        /* \"#utility.yul\":12922:13061   */\n      swap1\n      pop\n        /* \"#utility.yul\":12649:13068   */\n      swap2\n      swap1\n      pop\n      jump\t// out\n        /* \"#utility.yul\":13074:13299   */\n    tag_212:\n        /* \"#utility.yul\":13214:13248   */\n      0x45524332303a207472616e7366657220616d6f756e7420657863656564732062\n        /* \"#utility.yul\":13210:13211   */\n      0x00\n        /* \"#utility.yul\":13202:13208   */\n      dup3\n        /* \"#utility.yul\":13198:13212   */\n      add\n        /* \"#utility.yul\":13191:13249   */\n      mstore\n        /* \"#utility.yul\":13283:13291   */\n      0x616c616e63650000000000000000000000000000000000000000000000000000\n        /* \"#utility.yul\":13278:13280   */\n      0x20\n        /* \"#utility.yul\":13270:13276   */\n      dup3\n        /* \"#utility.yul\":13266:13281   */\n      add\n        /* \"#utility.yul\":13259:13292   */\n      mstore\n        /* \"#utility.yul\":13074:13299   */\n      pop\n      jump\t// out\n        /* \"#utility.yul\":13305:13671   */\n    tag_213:\n        /* \"#utility.yul\":13447:13450   */\n      0x00\n        /* \"#utility.yul\":13468:13535   */\n      tag_333\n        /* \"#utility.yul\":13532:13534   */\n      0x26\n        /* \"#utility.yul\":13527:13530   */\n      dup4\n        /* \"#utility.yul\":13468:13535   */\n      tag_178\n      jump\t// in\n    tag_333:\n        /* \"#utility.yul\":13461:13535   */\n      swap2\n      pop\n        /* \"#utility.yul\":13544:13637   */\n      tag_334\n        /* \"#utility.yul\":13633:13636   */\n      dup3\n        /* \"#utility.yul\":13544:13637   */\n      tag_212\n      jump\t// in\n    tag_334:\n        /* \"#utility.yul\":13662:13664   */\n      0x40\n        /* \"#utility.yul\":13657:13660   */\n      dup3\n        /* \"#utility.yul\":13653:13665   */\n      add\n        /* \"#utility.yul\":13646:13665   */\n      swap1\n      pop\n        /* \"#utility.yul\":13305:13671   */\n      swap2\n      swap1\n      pop\n      jump\t// out\n        /* \"#utility.yul\":13677:14096   */\n    tag_154:\n        /* \"#utility.yul\":13843:13847   */\n      0x00\n        /* \"#utility.yul\":13881:13883   */\n      0x20\n        /* \"#utility.yul\":13870:13879   */\n      dup3\n        /* \"#utility.yul\":13866:13884   */\n      add\n        /* \"#utility.yul\":13858:13884   */\n      swap1\n      pop\n        /* \"#utility.yul\":13930:13939   */\n      dup2\n        /* \"#utility.yul\":13924:13928   */\n      dup2\n        /* \"#utility.yul\":13920:13940   */\n      sub\n        /* \"#utility.yul\":13916:13917   */\n      0x00\n        /* \"#utility.yul\":13905:13914   */\n      dup4\n        /* \"#utility.yul\":13901:13918   */\n      add\n        /* \"#utility.yul\":13894:13941   */\n      mstore\n        /* \"#utility.yul\":13958:14089   */\n      tag_336\n        /* \"#utility.yul\":14084:14088   */\n      dup2\n        /* \"#utility.yul\":13958:14089   */\n      tag_213\n      jump\t// in\n    tag_336:\n        /* \"#utility.yul\":13950:14089   */\n      swap1\n      pop\n        /* \"#utility.yul\":13677:14096   */\n      swap2\n      swap1\n      pop\n      jump\t// out\n        /* \"#utility.yul\":14102:14282   */\n    tag_167:\n        /* \"#utility.yul\":14150:14227   */\n      0x4e487b7100000000000000000000000000000000000000000000000000000000\n        /* \"#utility.yul\":14147:14148   */\n      0x00\n        /* \"#utility.yul\":14140:14228   */\n      mstore\n        /* \"#utility.yul\":14247:14251   */\n      0x41\n        /* \"#utility.yul\":14244:14245   */\n      0x04\n        /* \"#utility.yul\":14237:14252   */\n      mstore\n        /* \"#utility.yul\":14271:14275   */\n      0x24\n        /* \"#utility.yul\":14268:14269   */\n      0x00\n        /* \"#utility.yul\":14261:14276   */\n      revert\n        /* \"#utility.yul\":14288:14468   */\n    tag_174:\n        /* \"#utility.yul\":14336:14413   */\n      0x4e487b7100000000000000000000000000000000000000000000000000000000\n        /* \"#utility.yul\":14333:14334   */\n      0x00\n        /* \"#utility.yul\":14326:14414   */\n      mstore\n        /* \"#utility.yul\":14433:14437   */\n      0x32\n        /* \"#utility.yul\":14430:14431   */\n      0x04\n        /* \"#utility.yul\":14423:14438   */\n      mstore\n        /* \"#utility.yul\":14457:14461   */\n      0x24\n        /* \"#utility.yul\":14454:14455   */\n      0x00\n        /* \"#utility.yul\":14447:14462   */\n      revert\n\n    auxdata: 0xa2646970667358221220d3a672d71067b2dc8f6e0ce81e6c033454233c48d4f8509836c5463e2428b36764736f6c63430008160033\n}\n",
				"bytecode": {
					"linkReferences": {},
					"object": "608060405234801562000010575f80fd5b506040518060400160405280600c81526020017f3c414954555f53617961743e00000000000000000000000000000000000000008152506040518060400160405280600381526020017f554e46000000000000000000000000000000000000000000000000000000000081525081600390816200008e91906200050d565b508060049081620000a091906200050d565b5050503360055f6101000a81548173ffffffffffffffffffffffffffffffffffffffff021916908373ffffffffffffffffffffffffffffffffffffffff1602179055506200012133620000f86200012760201b60201c565b600a6200010691906200077a565b6107d0620001159190620007ca565b6200012f60201b60201c565b620008f8565b5f6012905090565b5f73ffffffffffffffffffffffffffffffffffffffff168273ffffffffffffffffffffffffffffffffffffffff1603620001a0576040517f08c379a0000000000000000000000000000000000000000000000000000000008152600401620001979062000872565b60405180910390fd5b620001b35f83836200029f60201b60201c565b8060025f828254620001c6919062000892565b92505081905550805f808473ffffffffffffffffffffffffffffffffffffffff1673ffffffffffffffffffffffffffffffffffffffff1681526020019081526020015f205f8282546200021a919062000892565b925050819055508173ffffffffffffffffffffffffffffffffffffffff165f73ffffffffffffffffffffffffffffffffffffffff167fddf252ad1be2c89b69c2b068fc378daa952ba7f163c4a11628f55a4df523b3ef83604051620002809190620008dd565b60405180910390a36200029b5f8383620002a460201b60201c565b5050565b505050565b505050565b5f81519050919050565b7f4e487b71000000000000000000000000000000000000000000000000000000005f52604160045260245ffd5b7f4e487b71000000000000000000000000000000000000000000000000000000005f52602260045260245ffd5b5f60028204905060018216806200032557607f821691505b6020821081036200033b576200033a620002e0565b5b50919050565b5f819050815f5260205f209050919050565b5f6020601f8301049050919050565b5f82821b905092915050565b5f600883026200039f7fffffffffffffffffffffffffffffffffffffffffffffffffffffffffffffffff8262000362565b620003ab868362000362565b95508019841693508086168417925050509392505050565b5f819050919050565b5f819050919050565b5f620003f5620003ef620003e984620003c3565b620003cc565b620003c3565b9050919050565b5f819050919050565b6200041083620003d5565b620004286200041f82620003fc565b8484546200036e565b825550505050565b5f90565b6200043e62000430565b6200044b81848462000405565b505050565b5b818110156200047257620004665f8262000434565b60018101905062000451565b5050565b601f821115620004c1576200048b8162000341565b620004968462000353565b81016020851015620004a6578190505b620004be620004b58562000353565b83018262000450565b50505b505050565b5f82821c905092915050565b5f620004e35f1984600802620004c6565b1980831691505092915050565b5f620004fd8383620004d2565b9150826002028217905092915050565b6200051882620002a9565b67ffffffffffffffff811115620005345762000533620002b3565b5b6200054082546200030d565b6200054d82828562000476565b5f60209050601f83116001811462000583575f84156200056e578287015190505b6200057a8582620004f0565b865550620005e9565b601f198416620005938662000341565b5f5b82811015620005bc5784890151825560018201915060208501945060208101905062000595565b86831015620005dc5784890151620005d8601f891682620004d2565b8355505b6001600288020188555050505b505050505050565b7f4e487b71000000000000000000000000000000000000000000000000000000005f52601160045260245ffd5b5f8160011c9050919050565b5f808291508390505b60018511156200067b57808604811115620006535762000652620005f1565b5b6001851615620006635780820291505b808102905062000673856200061e565b945062000633565b94509492505050565b5f8262000695576001905062000767565b81620006a4575f905062000767565b8160018114620006bd5760028114620006c857620006fe565b600191505062000767565b60ff841115620006dd57620006dc620005f1565b5b8360020a915084821115620006f757620006f6620005f1565b5b5062000767565b5060208310610133831016604e8410600b8410161715620007385782820a905083811115620007325762000731620005f1565b5b62000767565b6200074784848460016200062a565b92509050818404811115620007615762000760620005f1565b5b81810290505b9392505050565b5f60ff82169050919050565b5f6200078682620003c3565b915062000793836200076e565b9250620007c27fffffffffffffffffffffffffffffffffffffffffffffffffffffffffffffffff848462000684565b905092915050565b5f620007d682620003c3565b9150620007e383620003c3565b9250828202620007f381620003c3565b915082820484148315176200080d576200080c620005f1565b5b5092915050565b5f82825260208201905092915050565b7f45524332303a206d696e7420746f20746865207a65726f2061646472657373005f82015250565b5f6200085a601f8362000814565b9150620008678262000824565b602082019050919050565b5f6020820190508181035f8301526200088b816200084c565b9050919050565b5f6200089e82620003c3565b9150620008ab83620003c3565b9250828201905080821115620008c657620008c5620005f1565b5b92915050565b620008d781620003c3565b82525050565b5f602082019050620008f25f830184620008cc565b92915050565b61156d80620009065f395ff3fe608060405234801561000f575f80fd5b50600436106100f3575f3560e01c8063841b39fc11610095578063a9059cbb11610064578063a9059cbb1461029b578063bead3f50146102cb578063d45e3f4a146102e9578063dd62ed3e14610307576100f3565b8063841b39fc146102115780638da5cb5b1461022f57806395d89b411461024d578063a457c2d71461026b576100f3565b806323b872dd116100d157806323b872dd14610163578063313ce5671461019357806339509351146101b157806370a08231146101e1576100f3565b806306fdde03146100f7578063095ea7b31461011557806318160ddd14610145575b5f80fd5b6100ff610337565b60405161010c9190610ddf565b60405180910390f35b61012f600480360381019061012a9190610e90565b6103c7565b60405161013c9190610ee8565b60405180910390f35b61014d6103e4565b60405161015a9190610f10565b60405180910390f35b61017d60048036038101906101789190610f29565b6103ed565b60405161018a9190610ee8565b60405180910390f35b61019b6104df565b6040516101a89190610f94565b60405180910390f35b6101cb60048036038101906101c69190610e90565b6104e7565b6040516101d89190610ee8565b60405180910390f35b6101fb60048036038101906101f69190610fad565b61058e565b6040516102089190610f10565b60405180910390f35b6102196105d3565b6040516102269190610fe7565b60405180910390f35b6102376105da565b6040516102449190610fe7565b60405180910390f35b6102556105ff565b6040516102629190610ddf565b60405180910390f35b61028560048036038101906102809190610e90565b61068f565b6040516102929190610ee8565b60405180910390f35b6102b560048036038101906102b09190610e90565b610775565b6040516102c29190610ee8565b60405180910390f35b6102d3610792565b6040516102e09190610fe7565b60405180910390f35b6102f1610799565b6040516102fe9190610ddf565b60405180910390f35b610321600480360381019061031c9190611000565b6107a9565b60405161032e9190610f10565b60405180910390f35b6060600380546103469061106b565b80601f01602080910402602001604051908101604052809291908181526020018280546103729061106b565b80156103bd5780601f10610394576101008083540402835291602001916103bd565b820191905f5260205f20905b8154815290600101906020018083116103a057829003601f168201915b5050505050905090565b5f6103da6103d361082b565b8484610832565b6001905092915050565b5f600254905090565b5f6103f98484846109f5565b5f60015f8673ffffffffffffffffffffffffffffffffffffffff1673ffffffffffffffffffffffffffffffffffffffff1681526020019081526020015f205f61044061082b565b73ffffffffffffffffffffffffffffffffffffffff1673ffffffffffffffffffffffffffffffffffffffff1681526020019081526020015f20549050828110156104bf576040517f08c379a00000000000000000000000000000000000000000000000000000000081526004016104b69061110b565b60405180910390fd5b6104d3856104cb61082b565b858403610832565b60019150509392505050565b5f6012905090565b5f6105846104f361082b565b848460015f61050061082b565b73ffffffffffffffffffffffffffffffffffffffff1673ffffffffffffffffffffffffffffffffffffffff1681526020019081526020015f205f8873ffffffffffffffffffffffffffffffffffffffff1673ffffffffffffffffffffffffffffffffffffffff1681526020019081526020015f205461057f9190611156565b610832565b6001905092915050565b5f805f8373ffffffffffffffffffffffffffffffffffffffff1673ffffffffffffffffffffffffffffffffffffffff1681526020019081526020015f20549050919050565b5f30905090565b60055f9054906101000a900473ffffffffffffffffffffffffffffffffffffffff1681565b60606004805461060e9061106b565b80601f016020809104026020016040519081016040528092919081815260200182805461063a9061106b565b80156106855780601f1061065c57610100808354040283529160200191610685565b820191905f5260205f20905b81548152906001019060200180831161066857829003601f168201915b5050505050905090565b5f8060015f61069c61082b565b73ffffffffffffffffffffffffffffffffffffffff1673ffffffffffffffffffffffffffffffffffffffff1681526020019081526020015f205f8573ffffffffffffffffffffffffffffffffffffffff1673ffffffffffffffffffffffffffffffffffffffff1681526020019081526020015f2054905082811015610756576040517f08c379a000000000000000000000000000000000000000000000000000000000815260040161074d906111f9565b60405180910390fd5b61076a61076161082b565b85858403610832565b600191505092915050565b5f61078861078161082b565b84846109f5565b6001905092915050565b5f33905090565b60606107a442610c6a565b905090565b5f60015f8473ffffffffffffffffffffffffffffffffffffffff1673ffffffffffffffffffffffffffffffffffffffff1681526020019081526020015f205f8373ffffffffffffffffffffffffffffffffffffffff1673ffffffffffffffffffffffffffffffffffffffff1681526020019081526020015f2054905092915050565b5f33905090565b5f73ffffffffffffffffffffffffffffffffffffffff168373ffffffffffffffffffffffffffffffffffffffff16036108a0576040517f08c379a000000000000000000000000000000000000000000000000000000000815260040161089790611287565b60405180910390fd5b5f73ffffffffffffffffffffffffffffffffffffffff168273ffffffffffffffffffffffffffffffffffffffff160361090e576040517f08c379a000000000000000000000000000000000000000000000000000000000815260040161090590611315565b60405180910390fd5b8060015f8573ffffffffffffffffffffffffffffffffffffffff1673ffffffffffffffffffffffffffffffffffffffff1681526020019081526020015f205f8473ffffffffffffffffffffffffffffffffffffffff1673ffffffffffffffffffffffffffffffffffffffff1681526020019081526020015f20819055508173ffffffffffffffffffffffffffffffffffffffff168373ffffffffffffffffffffffffffffffffffffffff167f8c5be1e5ebec7d5bd14f71427d1e84f3dd0314c0f7b2291e5b200ac8c7c3b925836040516109e89190610f10565b60405180910390a3505050565b5f73ffffffffffffffffffffffffffffffffffffffff168373ffffffffffffffffffffffffffffffffffffffff1603610a63576040517f08c379a0000000000000000000000000000000000000000000000000000000008152600401610a5a906113a3565b60405180910390fd5b5f73ffffffffffffffffffffffffffffffffffffffff168273ffffffffffffffffffffffffffffffffffffffff1603610ad1576040517f08c379a0000000000000000000000000000000000000000000000000000000008152600401610ac890611431565b60405180910390fd5b610adc838383610c7e565b5f805f8573ffffffffffffffffffffffffffffffffffffffff1673ffffffffffffffffffffffffffffffffffffffff1681526020019081526020015f2054905081811015610b5f576040517f08c379a0000000000000000000000000000000000000000000000000000000008152600401610b56906114bf565b60405180910390fd5b8181035f808673ffffffffffffffffffffffffffffffffffffffff1673ffffffffffffffffffffffffffffffffffffffff1681526020019081526020015f2081905550815f808573ffffffffffffffffffffffffffffffffffffffff1673ffffffffffffffffffffffffffffffffffffffff1681526020019081526020015f205f828254610bed9190611156565b925050819055508273ffffffffffffffffffffffffffffffffffffffff168473ffffffffffffffffffffffffffffffffffffffff167fddf252ad1be2c89b69c2b068fc378daa952ba7f163c4a11628f55a4df523b3ef84604051610c519190610f10565b60405180910390a3610c64848484610c83565b50505050565b6060610c77825f1b610c88565b9050919050565b505050565b505050565b60605f602067ffffffffffffffff811115610ca657610ca56114dd565b5b6040519080825280601f01601f191660200182016040528015610cd85781602001600182028036833780820191505090505b5090505f5b6020811015610d4b57838160208110610cf957610cf861150a565b5b1a60f81b828281518110610d1057610d0f61150a565b5b60200101907effffffffffffffffffffffffffffffffffffffffffffffffffffffffffffff191690815f1a9053508080600101915050610cdd565b5080915050919050565b5f81519050919050565b5f82825260208201905092915050565b5f5b83811015610d8c578082015181840152602081019050610d71565b5f8484015250505050565b5f601f19601f8301169050919050565b5f610db182610d55565b610dbb8185610d5f565b9350610dcb818560208601610d6f565b610dd481610d97565b840191505092915050565b5f6020820190508181035f830152610df78184610da7565b905092915050565b5f80fd5b5f73ffffffffffffffffffffffffffffffffffffffff82169050919050565b5f610e2c82610e03565b9050919050565b610e3c81610e22565b8114610e46575f80fd5b50565b5f81359050610e5781610e33565b92915050565b5f819050919050565b610e6f81610e5d565b8114610e79575f80fd5b50565b5f81359050610e8a81610e66565b92915050565b5f8060408385031215610ea657610ea5610dff565b5b5f610eb385828601610e49565b9250506020610ec485828601610e7c565b9150509250929050565b5f8115159050919050565b610ee281610ece565b82525050565b5f602082019050610efb5f830184610ed9565b92915050565b610f0a81610e5d565b82525050565b5f602082019050610f235f830184610f01565b92915050565b5f805f60608486031215610f4057610f3f610dff565b5b5f610f4d86828701610e49565b9350506020610f5e86828701610e49565b9250506040610f6f86828701610e7c565b9150509250925092565b5f60ff82169050919050565b610f8e81610f79565b82525050565b5f602082019050610fa75f830184610f85565b92915050565b5f60208284031215610fc257610fc1610dff565b5b5f610fcf84828501610e49565b91505092915050565b610fe181610e22565b82525050565b5f602082019050610ffa5f830184610fd8565b92915050565b5f806040838503121561101657611015610dff565b5b5f61102385828601610e49565b925050602061103485828601610e49565b9150509250929050565b7f4e487b71000000000000000000000000000000000000000000000000000000005f52602260045260245ffd5b5f600282049050600182168061108257607f821691505b6020821081036110955761109461103e565b5b50919050565b7f45524332303a207472616e7366657220616d6f756e74206578636565647320615f8201527f6c6c6f77616e6365000000000000000000000000000000000000000000000000602082015250565b5f6110f5602883610d5f565b91506111008261109b565b604082019050919050565b5f6020820190508181035f830152611122816110e9565b9050919050565b7f4e487b71000000000000000000000000000000000000000000000000000000005f52601160045260245ffd5b5f61116082610e5d565b915061116b83610e5d565b925082820190508082111561118357611182611129565b5b92915050565b7f45524332303a2064656372656173656420616c6c6f77616e63652062656c6f775f8201527f207a65726f000000000000000000000000000000000000000000000000000000602082015250565b5f6111e3602583610d5f565b91506111ee82611189565b604082019050919050565b5f6020820190508181035f830152611210816111d7565b9050919050565b7f45524332303a20617070726f76652066726f6d20746865207a65726f206164645f8201527f7265737300000000000000000000000000000000000000000000000000000000602082015250565b5f611271602483610d5f565b915061127c82611217565b604082019050919050565b5f6020820190508181035f83015261129e81611265565b9050919050565b7f45524332303a20617070726f766520746f20746865207a65726f2061646472655f8201527f7373000000000000000000000000000000000000000000000000000000000000602082015250565b5f6112ff602283610d5f565b915061130a826112a5565b604082019050919050565b5f6020820190508181035f83015261132c816112f3565b9050919050565b7f45524332303a207472616e736665722066726f6d20746865207a65726f2061645f8201527f6472657373000000000000000000000000000000000000000000000000000000602082015250565b5f61138d602583610d5f565b915061139882611333565b604082019050919050565b5f6020820190508181035f8301526113ba81611381565b9050919050565b7f45524332303a207472616e7366657220746f20746865207a65726f20616464725f8201527f6573730000000000000000000000000000000000000000000000000000000000602082015250565b5f61141b602383610d5f565b9150611426826113c1565b604082019050919050565b5f6020820190508181035f8301526114488161140f565b9050919050565b7f45524332303a207472616e7366657220616d6f756e74206578636565647320625f8201527f616c616e63650000000000000000000000000000000000000000000000000000602082015250565b5f6114a9602683610d5f565b91506114b48261144f565b604082019050919050565b5f6020820190508181035f8301526114d68161149d565b9050919050565b7f4e487b71000000000000000000000000000000000000000000000000000000005f52604160045260245ffd5b7f4e487b71000000000000000000000000000000000000000000000000000000005f52603260045260245ffdfea2646970667358221220d3a672d71067b2dc8f6e0ce81e6c033454233c48d4f8509836c5463e2428b36764736f6c63430008160033",
					"opcodes": "PUSH1 0x80 PUSH1 0x40 MSTORE CALLVALUE DUP1 ISZERO PUSH3 0x10 JUMPI PUSH0 DUP1 REVERT JUMPDEST POP PUSH1 0x40 MLOAD DUP1 PUSH1 0x40 ADD PUSH1 0x40 MSTORE DUP1 PUSH1 0xC DUP2 MSTORE PUSH1 0x20 ADD PUSH32 0x3C414954555F53617961743E0000000000000000000000000000000000000000 DUP2 MSTORE POP PUSH1 0x40 MLOAD DUP1 PUSH1 0x40 ADD PUSH1 0x40 MSTORE DUP1 PUSH1 0x3 DUP2 MSTORE PUSH1 0x20 ADD PUSH32 0x554E460000000000000000000000000000000000000000000000000000000000 DUP2 MSTORE POP DUP2 PUSH1 0x3 SWAP1 DUP2 PUSH3 0x8E SWAP2 SWAP1 PUSH3 0x50D JUMP JUMPDEST POP DUP1 PUSH1 0x4 SWAP1 DUP2 PUSH3 0xA0 SWAP2 SWAP1 PUSH3 0x50D JUMP JUMPDEST POP POP POP CALLER PUSH1 0x5 PUSH0 PUSH2 0x100 EXP DUP2 SLOAD DUP2 PUSH20 0xFFFFFFFFFFFFFFFFFFFFFFFFFFFFFFFFFFFFFFFF MUL NOT AND SWAP1 DUP4 PUSH20 0xFFFFFFFFFFFFFFFFFFFFFFFFFFFFFFFFFFFFFFFF AND MUL OR SWAP1 SSTORE POP PUSH3 0x121 CALLER PUSH3 0xF8 PUSH3 0x127 PUSH1 0x20 SHL PUSH1 0x20 SHR JUMP JUMPDEST PUSH1 0xA PUSH3 0x106 SWAP2 SWAP1 PUSH3 0x77A JUMP JUMPDEST PUSH2 0x7D0 PUSH3 0x115 SWAP2 SWAP1 PUSH3 0x7CA JUMP JUMPDEST PUSH3 0x12F PUSH1 0x20 SHL PUSH1 0x20 SHR JUMP JUMPDEST PUSH3 0x8F8 JUMP JUMPDEST PUSH0 PUSH1 0x12 SWAP1 POP SWAP1 JUMP JUMPDEST PUSH0 PUSH20 0xFFFFFFFFFFFFFFFFFFFFFFFFFFFFFFFFFFFFFFFF AND DUP3 PUSH20 0xFFFFFFFFFFFFFFFFFFFFFFFFFFFFFFFFFFFFFFFF AND SUB PUSH3 0x1A0 JUMPI PUSH1 0x40 MLOAD PUSH32 0x8C379A000000000000000000000000000000000000000000000000000000000 DUP2 MSTORE PUSH1 0x4 ADD PUSH3 0x197 SWAP1 PUSH3 0x872 JUMP JUMPDEST PUSH1 0x40 MLOAD DUP1 SWAP2 SUB SWAP1 REVERT JUMPDEST PUSH3 0x1B3 PUSH0 DUP4 DUP4 PUSH3 0x29F PUSH1 0x20 SHL PUSH1 0x20 SHR JUMP JUMPDEST DUP1 PUSH1 0x2 PUSH0 DUP3 DUP3 SLOAD PUSH3 0x1C6 SWAP2 SWAP1 PUSH3 0x892 JUMP JUMPDEST SWAP3 POP POP DUP2 SWAP1 SSTORE POP DUP1 PUSH0 DUP1 DUP5 PUSH20 0xFFFFFFFFFFFFFFFFFFFFFFFFFFFFFFFFFFFFFFFF AND PUSH20 0xFFFFFFFFFFFFFFFFFFFFFFFFFFFFFFFFFFFFFFFF AND DUP2 MSTORE PUSH1 0x20 ADD SWAP1 DUP2 MSTORE PUSH1 0x20 ADD PUSH0 KECCAK256 PUSH0 DUP3 DUP3 SLOAD PUSH3 0x21A SWAP2 SWAP1 PUSH3 0x892 JUMP JUMPDEST SWAP3 POP POP DUP2 SWAP1 SSTORE POP DUP2 PUSH20 0xFFFFFFFFFFFFFFFFFFFFFFFFFFFFFFFFFFFFFFFF AND PUSH0 PUSH20 0xFFFFFFFFFFFFFFFFFFFFFFFFFFFFFFFFFFFFFFFF AND PUSH32 0xDDF252AD1BE2C89B69C2B068FC378DAA952BA7F163C4A11628F55A4DF523B3EF DUP4 PUSH1 0x40 MLOAD PUSH3 0x280 SWAP2 SWAP1 PUSH3 0x8DD JUMP JUMPDEST PUSH1 0x40 MLOAD DUP1 SWAP2 SUB SWAP1 LOG3 PUSH3 0x29B PUSH0 DUP4 DUP4 PUSH3 0x2A4 PUSH1 0x20 SHL PUSH1 0x20 SHR JUMP JUMPDEST POP POP JUMP JUMPDEST POP POP POP JUMP JUMPDEST POP POP POP JUMP JUMPDEST PUSH0 DUP2 MLOAD SWAP1 POP SWAP2 SWAP1 POP JUMP JUMPDEST PUSH32 0x4E487B7100000000000000000000000000000000000000000000000000000000 PUSH0 MSTORE PUSH1 0x41 PUSH1 0x4 MSTORE PUSH1 0x24 PUSH0 REVERT JUMPDEST PUSH32 0x4E487B7100000000000000000000000000000000000000000000000000000000 PUSH0 MSTORE PUSH1 0x22 PUSH1 0x4 MSTORE PUSH1 0x24 PUSH0 REVERT JUMPDEST PUSH0 PUSH1 0x2 DUP3 DIV SWAP1 POP PUSH1 0x1 DUP3 AND DUP1 PUSH3 0x325 JUMPI PUSH1 0x7F DUP3 AND SWAP2 POP JUMPDEST PUSH1 0x20 DUP3 LT DUP2 SUB PUSH3 0x33B JUMPI PUSH3 0x33A PUSH3 0x2E0 JUMP JUMPDEST JUMPDEST POP SWAP2 SWAP1 POP JUMP JUMPDEST PUSH0 DUP2 SWAP1 POP DUP2 PUSH0 MSTORE PUSH1 0x20 PUSH0 KECCAK256 SWAP1 POP SWAP2 SWAP1 POP JUMP JUMPDEST PUSH0 PUSH1 0x20 PUSH1 0x1F DUP4 ADD DIV SWAP1 POP SWAP2 SWAP1 POP JUMP JUMPDEST PUSH0 DUP3 DUP3 SHL SWAP1 POP SWAP3 SWAP2 POP POP JUMP JUMPDEST PUSH0 PUSH1 0x8 DUP4 MUL PUSH3 0x39F PUSH32 0xFFFFFFFFFFFFFFFFFFFFFFFFFFFFFFFFFFFFFFFFFFFFFFFFFFFFFFFFFFFFFFFF DUP3 PUSH3 0x362 JUMP JUMPDEST PUSH3 0x3AB DUP7 DUP4 PUSH3 0x362 JUMP JUMPDEST SWAP6 POP DUP1 NOT DUP5 AND SWAP4 POP DUP1 DUP7 AND DUP5 OR SWAP3 POP POP POP SWAP4 SWAP3 POP POP POP JUMP JUMPDEST PUSH0 DUP2 SWAP1 POP SWAP2 SWAP1 POP JUMP JUMPDEST PUSH0 DUP2 SWAP1 POP SWAP2 SWAP1 POP JUMP JUMPDEST PUSH0 PUSH3 0x3F5 PUSH3 0x3EF PUSH3 0x3E9 DUP5 PUSH3 0x3C3 JUMP JUMPDEST PUSH3 0x3CC JUMP JUMPDEST PUSH3 0x3C3 JUMP JUMPDEST SWAP1 POP SWAP2 SWAP1 POP JUMP JUMPDEST PUSH0 DUP2 SWAP1 POP SWAP2 SWAP1 POP JUMP JUMPDEST PUSH3 0x410 DUP4 PUSH3 0x3D5 JUMP JUMPDEST PUSH3 0x428 PUSH3 0x41F DUP3 PUSH3 0x3FC JUMP JUMPDEST DUP5 DUP5 SLOAD PUSH3 0x36E JUMP JUMPDEST DUP3 SSTORE POP POP POP POP JUMP JUMPDEST PUSH0 SWAP1 JUMP JUMPDEST PUSH3 0x43E PUSH3 0x430 JUMP JUMPDEST PUSH3 0x44B DUP2 DUP5 DUP5 PUSH3 0x405 JUMP JUMPDEST POP POP POP JUMP JUMPDEST JUMPDEST DUP2 DUP2 LT ISZERO PUSH3 0x472 JUMPI PUSH3 0x466 PUSH0 DUP3 PUSH3 0x434 JUMP JUMPDEST PUSH1 0x1 DUP2 ADD SWAP1 POP PUSH3 0x451 JUMP JUMPDEST POP POP JUMP JUMPDEST PUSH1 0x1F DUP3 GT ISZERO PUSH3 0x4C1 JUMPI PUSH3 0x48B DUP2 PUSH3 0x341 JUMP JUMPDEST PUSH3 0x496 DUP5 PUSH3 0x353 JUMP JUMPDEST DUP2 ADD PUSH1 0x20 DUP6 LT ISZERO PUSH3 0x4A6 JUMPI DUP2 SWAP1 POP JUMPDEST PUSH3 0x4BE PUSH3 0x4B5 DUP6 PUSH3 0x353 JUMP JUMPDEST DUP4 ADD DUP3 PUSH3 0x450 JUMP JUMPDEST POP POP JUMPDEST POP POP POP JUMP JUMPDEST PUSH0 DUP3 DUP3 SHR SWAP1 POP SWAP3 SWAP2 POP POP JUMP JUMPDEST PUSH0 PUSH3 0x4E3 PUSH0 NOT DUP5 PUSH1 0x8 MUL PUSH3 0x4C6 JUMP JUMPDEST NOT DUP1 DUP4 AND SWAP2 POP POP SWAP3 SWAP2 POP POP JUMP JUMPDEST PUSH0 PUSH3 0x4FD DUP4 DUP4 PUSH3 0x4D2 JUMP JUMPDEST SWAP2 POP DUP3 PUSH1 0x2 MUL DUP3 OR SWAP1 POP SWAP3 SWAP2 POP POP JUMP JUMPDEST PUSH3 0x518 DUP3 PUSH3 0x2A9 JUMP JUMPDEST PUSH8 0xFFFFFFFFFFFFFFFF DUP2 GT ISZERO PUSH3 0x534 JUMPI PUSH3 0x533 PUSH3 0x2B3 JUMP JUMPDEST JUMPDEST PUSH3 0x540 DUP3 SLOAD PUSH3 0x30D JUMP JUMPDEST PUSH3 0x54D DUP3 DUP3 DUP6 PUSH3 0x476 JUMP JUMPDEST PUSH0 PUSH1 0x20 SWAP1 POP PUSH1 0x1F DUP4 GT PUSH1 0x1 DUP2 EQ PUSH3 0x583 JUMPI PUSH0 DUP5 ISZERO PUSH3 0x56E JUMPI DUP3 DUP8 ADD MLOAD SWAP1 POP JUMPDEST PUSH3 0x57A DUP6 DUP3 PUSH3 0x4F0 JUMP JUMPDEST DUP7 SSTORE POP PUSH3 0x5E9 JUMP JUMPDEST PUSH1 0x1F NOT DUP5 AND PUSH3 0x593 DUP7 PUSH3 0x341 JUMP JUMPDEST PUSH0 JUMPDEST DUP3 DUP2 LT ISZERO PUSH3 0x5BC JUMPI DUP5 DUP10 ADD MLOAD DUP3 SSTORE PUSH1 0x1 DUP3 ADD SWAP2 POP PUSH1 0x20 DUP6 ADD SWAP5 POP PUSH1 0x20 DUP2 ADD SWAP1 POP PUSH3 0x595 JUMP JUMPDEST DUP7 DUP4 LT ISZERO PUSH3 0x5DC JUMPI DUP5 DUP10 ADD MLOAD PUSH3 0x5D8 PUSH1 0x1F DUP10 AND DUP3 PUSH3 0x4D2 JUMP JUMPDEST DUP4 SSTORE POP JUMPDEST PUSH1 0x1 PUSH1 0x2 DUP9 MUL ADD DUP9 SSTORE POP POP POP JUMPDEST POP POP POP POP POP POP JUMP JUMPDEST PUSH32 0x4E487B7100000000000000000000000000000000000000000000000000000000 PUSH0 MSTORE PUSH1 0x11 PUSH1 0x4 MSTORE PUSH1 0x24 PUSH0 REVERT JUMPDEST PUSH0 DUP2 PUSH1 0x1 SHR SWAP1 POP SWAP2 SWAP1 POP JUMP JUMPDEST PUSH0 DUP1 DUP3 SWAP2 POP DUP4 SWAP1 POP JUMPDEST PUSH1 0x1 DUP6 GT ISZERO PUSH3 0x67B JUMPI DUP1 DUP7 DIV DUP2 GT ISZERO PUSH3 0x653 JUMPI PUSH3 0x652 PUSH3 0x5F1 JUMP JUMPDEST JUMPDEST PUSH1 0x1 DUP6 AND ISZERO PUSH3 0x663 JUMPI DUP1 DUP3 MUL SWAP2 POP JUMPDEST DUP1 DUP2 MUL SWAP1 POP PUSH3 0x673 DUP6 PUSH3 0x61E JUMP JUMPDEST SWAP5 POP PUSH3 0x633 JUMP JUMPDEST SWAP5 POP SWAP5 SWAP3 POP POP POP JUMP JUMPDEST PUSH0 DUP3 PUSH3 0x695 JUMPI PUSH1 0x1 SWAP1 POP PUSH3 0x767 JUMP JUMPDEST DUP2 PUSH3 0x6A4 JUMPI PUSH0 SWAP1 POP PUSH3 0x767 JUMP JUMPDEST DUP2 PUSH1 0x1 DUP2 EQ PUSH3 0x6BD JUMPI PUSH1 0x2 DUP2 EQ PUSH3 0x6C8 JUMPI PUSH3 0x6FE JUMP JUMPDEST PUSH1 0x1 SWAP2 POP POP PUSH3 0x767 JUMP JUMPDEST PUSH1 0xFF DUP5 GT ISZERO PUSH3 0x6DD JUMPI PUSH3 0x6DC PUSH3 0x5F1 JUMP JUMPDEST JUMPDEST DUP4 PUSH1 0x2 EXP SWAP2 POP DUP5 DUP3 GT ISZERO PUSH3 0x6F7 JUMPI PUSH3 0x6F6 PUSH3 0x5F1 JUMP JUMPDEST JUMPDEST POP PUSH3 0x767 JUMP JUMPDEST POP PUSH1 0x20 DUP4 LT PUSH2 0x133 DUP4 LT AND PUSH1 0x4E DUP5 LT PUSH1 0xB DUP5 LT AND OR ISZERO PUSH3 0x738 JUMPI DUP3 DUP3 EXP SWAP1 POP DUP4 DUP2 GT ISZERO PUSH3 0x732 JUMPI PUSH3 0x731 PUSH3 0x5F1 JUMP JUMPDEST JUMPDEST PUSH3 0x767 JUMP JUMPDEST PUSH3 0x747 DUP5 DUP5 DUP5 PUSH1 0x1 PUSH3 0x62A JUMP JUMPDEST SWAP3 POP SWAP1 POP DUP2 DUP5 DIV DUP2 GT ISZERO PUSH3 0x761 JUMPI PUSH3 0x760 PUSH3 0x5F1 JUMP JUMPDEST JUMPDEST DUP2 DUP2 MUL SWAP1 POP JUMPDEST SWAP4 SWAP3 POP POP POP JUMP JUMPDEST PUSH0 PUSH1 0xFF DUP3 AND SWAP1 POP SWAP2 SWAP1 POP JUMP JUMPDEST PUSH0 PUSH3 0x786 DUP3 PUSH3 0x3C3 JUMP JUMPDEST SWAP2 POP PUSH3 0x793 DUP4 PUSH3 0x76E JUMP JUMPDEST SWAP3 POP PUSH3 0x7C2 PUSH32 0xFFFFFFFFFFFFFFFFFFFFFFFFFFFFFFFFFFFFFFFFFFFFFFFFFFFFFFFFFFFFFFFF DUP5 DUP5 PUSH3 0x684 JUMP JUMPDEST SWAP1 POP SWAP3 SWAP2 POP POP JUMP JUMPDEST PUSH0 PUSH3 0x7D6 DUP3 PUSH3 0x3C3 JUMP JUMPDEST SWAP2 POP PUSH3 0x7E3 DUP4 PUSH3 0x3C3 JUMP JUMPDEST SWAP3 POP DUP3 DUP3 MUL PUSH3 0x7F3 DUP2 PUSH3 0x3C3 JUMP JUMPDEST SWAP2 POP DUP3 DUP3 DIV DUP5 EQ DUP4 ISZERO OR PUSH3 0x80D JUMPI PUSH3 0x80C PUSH3 0x5F1 JUMP JUMPDEST JUMPDEST POP SWAP3 SWAP2 POP POP JUMP JUMPDEST PUSH0 DUP3 DUP3 MSTORE PUSH1 0x20 DUP3 ADD SWAP1 POP SWAP3 SWAP2 POP POP JUMP JUMPDEST PUSH32 0x45524332303A206D696E7420746F20746865207A65726F206164647265737300 PUSH0 DUP3 ADD MSTORE POP JUMP JUMPDEST PUSH0 PUSH3 0x85A PUSH1 0x1F DUP4 PUSH3 0x814 JUMP JUMPDEST SWAP2 POP PUSH3 0x867 DUP3 PUSH3 0x824 JUMP JUMPDEST PUSH1 0x20 DUP3 ADD SWAP1 POP SWAP2 SWAP1 POP JUMP JUMPDEST PUSH0 PUSH1 0x20 DUP3 ADD SWAP1 POP DUP2 DUP2 SUB PUSH0 DUP4 ADD MSTORE PUSH3 0x88B DUP2 PUSH3 0x84C JUMP JUMPDEST SWAP1 POP SWAP2 SWAP1 POP JUMP JUMPDEST PUSH0 PUSH3 0x89E DUP3 PUSH3 0x3C3 JUMP JUMPDEST SWAP2 POP PUSH3 0x8AB DUP4 PUSH3 0x3C3 JUMP JUMPDEST SWAP3 POP DUP3 DUP3 ADD SWAP1 POP DUP1 DUP3 GT ISZERO PUSH3 0x8C6 JUMPI PUSH3 0x8C5 PUSH3 0x5F1 JUMP JUMPDEST JUMPDEST SWAP3 SWAP2 POP POP JUMP JUMPDEST PUSH3 0x8D7 DUP2 PUSH3 0x3C3 JUMP JUMPDEST DUP3 MSTORE POP POP JUMP JUMPDEST PUSH0 PUSH1 0x20 DUP3 ADD SWAP1 POP PUSH3 0x8F2 PUSH0 DUP4 ADD DUP5 PUSH3 0x8CC JUMP JUMPDEST SWAP3 SWAP2 POP POP JUMP JUMPDEST PUSH2 0x156D DUP1 PUSH3 0x906 PUSH0 CODECOPY PUSH0 RETURN INVALID PUSH1 0x80 PUSH1 0x40 MSTORE CALLVALUE DUP1 ISZERO PUSH2 0xF JUMPI PUSH0 DUP1 REVERT JUMPDEST POP PUSH1 0x4 CALLDATASIZE LT PUSH2 0xF3 JUMPI PUSH0 CALLDATALOAD PUSH1 0xE0 SHR DUP1 PUSH4 0x841B39FC GT PUSH2 0x95 JUMPI DUP1 PUSH4 0xA9059CBB GT PUSH2 0x64 JUMPI DUP1 PUSH4 0xA9059CBB EQ PUSH2 0x29B JUMPI DUP1 PUSH4 0xBEAD3F50 EQ PUSH2 0x2CB JUMPI DUP1 PUSH4 0xD45E3F4A EQ PUSH2 0x2E9 JUMPI DUP1 PUSH4 0xDD62ED3E EQ PUSH2 0x307 JUMPI PUSH2 0xF3 JUMP JUMPDEST DUP1 PUSH4 0x841B39FC EQ PUSH2 0x211 JUMPI DUP1 PUSH4 0x8DA5CB5B EQ PUSH2 0x22F JUMPI DUP1 PUSH4 0x95D89B41 EQ PUSH2 0x24D JUMPI DUP1 PUSH4 0xA457C2D7 EQ PUSH2 0x26B JUMPI PUSH2 0xF3 JUMP JUMPDEST DUP1 PUSH4 0x23B872DD GT PUSH2 0xD1 JUMPI DUP1 PUSH4 0x23B872DD EQ PUSH2 0x163 JUMPI DUP1 PUSH4 0x313CE567 EQ PUSH2 0x193 JUMPI DUP1 PUSH4 0x39509351 EQ PUSH2 0x1B1 JUMPI DUP1 PUSH4 0x70A08231 EQ PUSH2 0x1E1 JUMPI PUSH2 0xF3 JUMP JUMPDEST DUP1 PUSH4 0x6FDDE03 EQ PUSH2 0xF7 JUMPI DUP1 PUSH4 0x95EA7B3 EQ PUSH2 0x115 JUMPI DUP1 PUSH4 0x18160DDD EQ PUSH2 0x145 JUMPI JUMPDEST PUSH0 DUP1 REVERT JUMPDEST PUSH2 0xFF PUSH2 0x337 JUMP JUMPDEST PUSH1 0x40 MLOAD PUSH2 0x10C SWAP2 SWAP1 PUSH2 0xDDF JUMP JUMPDEST PUSH1 0x40 MLOAD DUP1 SWAP2 SUB SWAP1 RETURN JUMPDEST PUSH2 0x12F PUSH1 0x4 DUP1 CALLDATASIZE SUB DUP2 ADD SWAP1 PUSH2 0x12A SWAP2 SWAP1 PUSH2 0xE90 JUMP JUMPDEST PUSH2 0x3C7 JUMP JUMPDEST PUSH1 0x40 MLOAD PUSH2 0x13C SWAP2 SWAP1 PUSH2 0xEE8 JUMP JUMPDEST PUSH1 0x40 MLOAD DUP1 SWAP2 SUB SWAP1 RETURN JUMPDEST PUSH2 0x14D PUSH2 0x3E4 JUMP JUMPDEST PUSH1 0x40 MLOAD PUSH2 0x15A SWAP2 SWAP1 PUSH2 0xF10 JUMP JUMPDEST PUSH1 0x40 MLOAD DUP1 SWAP2 SUB SWAP1 RETURN JUMPDEST PUSH2 0x17D PUSH1 0x4 DUP1 CALLDATASIZE SUB DUP2 ADD SWAP1 PUSH2 0x178 SWAP2 SWAP1 PUSH2 0xF29 JUMP JUMPDEST PUSH2 0x3ED JUMP JUMPDEST PUSH1 0x40 MLOAD PUSH2 0x18A SWAP2 SWAP1 PUSH2 0xEE8 JUMP JUMPDEST PUSH1 0x40 MLOAD DUP1 SWAP2 SUB SWAP1 RETURN JUMPDEST PUSH2 0x19B PUSH2 0x4DF JUMP JUMPDEST PUSH1 0x40 MLOAD PUSH2 0x1A8 SWAP2 SWAP1 PUSH2 0xF94 JUMP JUMPDEST PUSH1 0x40 MLOAD DUP1 SWAP2 SUB SWAP1 RETURN JUMPDEST PUSH2 0x1CB PUSH1 0x4 DUP1 CALLDATASIZE SUB DUP2 ADD SWAP1 PUSH2 0x1C6 SWAP2 SWAP1 PUSH2 0xE90 JUMP JUMPDEST PUSH2 0x4E7 JUMP JUMPDEST PUSH1 0x40 MLOAD PUSH2 0x1D8 SWAP2 SWAP1 PUSH2 0xEE8 JUMP JUMPDEST PUSH1 0x40 MLOAD DUP1 SWAP2 SUB SWAP1 RETURN JUMPDEST PUSH2 0x1FB PUSH1 0x4 DUP1 CALLDATASIZE SUB DUP2 ADD SWAP1 PUSH2 0x1F6 SWAP2 SWAP1 PUSH2 0xFAD JUMP JUMPDEST PUSH2 0x58E JUMP JUMPDEST PUSH1 0x40 MLOAD PUSH2 0x208 SWAP2 SWAP1 PUSH2 0xF10 JUMP JUMPDEST PUSH1 0x40 MLOAD DUP1 SWAP2 SUB SWAP1 RETURN JUMPDEST PUSH2 0x219 PUSH2 0x5D3 JUMP JUMPDEST PUSH1 0x40 MLOAD PUSH2 0x226 SWAP2 SWAP1 PUSH2 0xFE7 JUMP JUMPDEST PUSH1 0x40 MLOAD DUP1 SWAP2 SUB SWAP1 RETURN JUMPDEST PUSH2 0x237 PUSH2 0x5DA JUMP JUMPDEST PUSH1 0x40 MLOAD PUSH2 0x244 SWAP2 SWAP1 PUSH2 0xFE7 JUMP JUMPDEST PUSH1 0x40 MLOAD DUP1 SWAP2 SUB SWAP1 RETURN JUMPDEST PUSH2 0x255 PUSH2 0x5FF JUMP JUMPDEST PUSH1 0x40 MLOAD PUSH2 0x262 SWAP2 SWAP1 PUSH2 0xDDF JUMP JUMPDEST PUSH1 0x40 MLOAD DUP1 SWAP2 SUB SWAP1 RETURN JUMPDEST PUSH2 0x285 PUSH1 0x4 DUP1 CALLDATASIZE SUB DUP2 ADD SWAP1 PUSH2 0x280 SWAP2 SWAP1 PUSH2 0xE90 JUMP JUMPDEST PUSH2 0x68F JUMP JUMPDEST PUSH1 0x40 MLOAD PUSH2 0x292 SWAP2 SWAP1 PUSH2 0xEE8 JUMP JUMPDEST PUSH1 0x40 MLOAD DUP1 SWAP2 SUB SWAP1 RETURN JUMPDEST PUSH2 0x2B5 PUSH1 0x4 DUP1 CALLDATASIZE SUB DUP2 ADD SWAP1 PUSH2 0x2B0 SWAP2 SWAP1 PUSH2 0xE90 JUMP JUMPDEST PUSH2 0x775 JUMP JUMPDEST PUSH1 0x40 MLOAD PUSH2 0x2C2 SWAP2 SWAP1 PUSH2 0xEE8 JUMP JUMPDEST PUSH1 0x40 MLOAD DUP1 SWAP2 SUB SWAP1 RETURN JUMPDEST PUSH2 0x2D3 PUSH2 0x792 JUMP JUMPDEST PUSH1 0x40 MLOAD PUSH2 0x2E0 SWAP2 SWAP1 PUSH2 0xFE7 JUMP JUMPDEST PUSH1 0x40 MLOAD DUP1 SWAP2 SUB SWAP1 RETURN JUMPDEST PUSH2 0x2F1 PUSH2 0x799 JUMP JUMPDEST PUSH1 0x40 MLOAD PUSH2 0x2FE SWAP2 SWAP1 PUSH2 0xDDF JUMP JUMPDEST PUSH1 0x40 MLOAD DUP1 SWAP2 SUB SWAP1 RETURN JUMPDEST PUSH2 0x321 PUSH1 0x4 DUP1 CALLDATASIZE SUB DUP2 ADD SWAP1 PUSH2 0x31C SWAP2 SWAP1 PUSH2 0x1000 JUMP JUMPDEST PUSH2 0x7A9 JUMP JUMPDEST PUSH1 0x40 MLOAD PUSH2 0x32E SWAP2 SWAP1 PUSH2 0xF10 JUMP JUMPDEST PUSH1 0x40 MLOAD DUP1 SWAP2 SUB SWAP1 RETURN JUMPDEST PUSH1 0x60 PUSH1 0x3 DUP1 SLOAD PUSH2 0x346 SWAP1 PUSH2 0x106B JUMP JUMPDEST DUP1 PUSH1 0x1F ADD PUSH1 0x20 DUP1 SWAP2 DIV MUL PUSH1 0x20 ADD PUSH1 0x40 MLOAD SWAP1 DUP2 ADD PUSH1 0x40 MSTORE DUP1 SWAP3 SWAP2 SWAP1 DUP2 DUP2 MSTORE PUSH1 0x20 ADD DUP3 DUP1 SLOAD PUSH2 0x372 SWAP1 PUSH2 0x106B JUMP JUMPDEST DUP1 ISZERO PUSH2 0x3BD JUMPI DUP1 PUSH1 0x1F LT PUSH2 0x394 JUMPI PUSH2 0x100 DUP1 DUP4 SLOAD DIV MUL DUP4 MSTORE SWAP2 PUSH1 0x20 ADD SWAP2 PUSH2 0x3BD JUMP JUMPDEST DUP3 ADD SWAP2 SWAP1 PUSH0 MSTORE PUSH1 0x20 PUSH0 KECCAK256 SWAP1 JUMPDEST DUP2 SLOAD DUP2 MSTORE SWAP1 PUSH1 0x1 ADD SWAP1 PUSH1 0x20 ADD DUP1 DUP4 GT PUSH2 0x3A0 JUMPI DUP3 SWAP1 SUB PUSH1 0x1F AND DUP3 ADD SWAP2 JUMPDEST POP POP POP POP POP SWAP1 POP SWAP1 JUMP JUMPDEST PUSH0 PUSH2 0x3DA PUSH2 0x3D3 PUSH2 0x82B JUMP JUMPDEST DUP5 DUP5 PUSH2 0x832 JUMP JUMPDEST PUSH1 0x1 SWAP1 POP SWAP3 SWAP2 POP POP JUMP JUMPDEST PUSH0 PUSH1 0x2 SLOAD SWAP1 POP SWAP1 JUMP JUMPDEST PUSH0 PUSH2 0x3F9 DUP5 DUP5 DUP5 PUSH2 0x9F5 JUMP JUMPDEST PUSH0 PUSH1 0x1 PUSH0 DUP7 PUSH20 0xFFFFFFFFFFFFFFFFFFFFFFFFFFFFFFFFFFFFFFFF AND PUSH20 0xFFFFFFFFFFFFFFFFFFFFFFFFFFFFFFFFFFFFFFFF AND DUP2 MSTORE PUSH1 0x20 ADD SWAP1 DUP2 MSTORE PUSH1 0x20 ADD PUSH0 KECCAK256 PUSH0 PUSH2 0x440 PUSH2 0x82B JUMP JUMPDEST PUSH20 0xFFFFFFFFFFFFFFFFFFFFFFFFFFFFFFFFFFFFFFFF AND PUSH20 0xFFFFFFFFFFFFFFFFFFFFFFFFFFFFFFFFFFFFFFFF AND DUP2 MSTORE PUSH1 0x20 ADD SWAP1 DUP2 MSTORE PUSH1 0x20 ADD PUSH0 KECCAK256 SLOAD SWAP1 POP DUP3 DUP2 LT ISZERO PUSH2 0x4BF JUMPI PUSH1 0x40 MLOAD PUSH32 0x8C379A000000000000000000000000000000000000000000000000000000000 DUP2 MSTORE PUSH1 0x4 ADD PUSH2 0x4B6 SWAP1 PUSH2 0x110B JUMP JUMPDEST PUSH1 0x40 MLOAD DUP1 SWAP2 SUB SWAP1 REVERT JUMPDEST PUSH2 0x4D3 DUP6 PUSH2 0x4CB PUSH2 0x82B JUMP JUMPDEST DUP6 DUP5 SUB PUSH2 0x832 JUMP JUMPDEST PUSH1 0x1 SWAP2 POP POP SWAP4 SWAP3 POP POP POP JUMP JUMPDEST PUSH0 PUSH1 0x12 SWAP1 POP SWAP1 JUMP JUMPDEST PUSH0 PUSH2 0x584 PUSH2 0x4F3 PUSH2 0x82B JUMP JUMPDEST DUP5 DUP5 PUSH1 0x1 PUSH0 PUSH2 0x500 PUSH2 0x82B JUMP JUMPDEST PUSH20 0xFFFFFFFFFFFFFFFFFFFFFFFFFFFFFFFFFFFFFFFF AND PUSH20 0xFFFFFFFFFFFFFFFFFFFFFFFFFFFFFFFFFFFFFFFF AND DUP2 MSTORE PUSH1 0x20 ADD SWAP1 DUP2 MSTORE PUSH1 0x20 ADD PUSH0 KECCAK256 PUSH0 DUP9 PUSH20 0xFFFFFFFFFFFFFFFFFFFFFFFFFFFFFFFFFFFFFFFF AND PUSH20 0xFFFFFFFFFFFFFFFFFFFFFFFFFFFFFFFFFFFFFFFF AND DUP2 MSTORE PUSH1 0x20 ADD SWAP1 DUP2 MSTORE PUSH1 0x20 ADD PUSH0 KECCAK256 SLOAD PUSH2 0x57F SWAP2 SWAP1 PUSH2 0x1156 JUMP JUMPDEST PUSH2 0x832 JUMP JUMPDEST PUSH1 0x1 SWAP1 POP SWAP3 SWAP2 POP POP JUMP JUMPDEST PUSH0 DUP1 PUSH0 DUP4 PUSH20 0xFFFFFFFFFFFFFFFFFFFFFFFFFFFFFFFFFFFFFFFF AND PUSH20 0xFFFFFFFFFFFFFFFFFFFFFFFFFFFFFFFFFFFFFFFF AND DUP2 MSTORE PUSH1 0x20 ADD SWAP1 DUP2 MSTORE PUSH1 0x20 ADD PUSH0 KECCAK256 SLOAD SWAP1 POP SWAP2 SWAP1 POP JUMP JUMPDEST PUSH0 ADDRESS SWAP1 POP SWAP1 JUMP JUMPDEST PUSH1 0x5 PUSH0 SWAP1 SLOAD SWAP1 PUSH2 0x100 EXP SWAP1 DIV PUSH20 0xFFFFFFFFFFFFFFFFFFFFFFFFFFFFFFFFFFFFFFFF AND DUP2 JUMP JUMPDEST PUSH1 0x60 PUSH1 0x4 DUP1 SLOAD PUSH2 0x60E SWAP1 PUSH2 0x106B JUMP JUMPDEST DUP1 PUSH1 0x1F ADD PUSH1 0x20 DUP1 SWAP2 DIV MUL PUSH1 0x20 ADD PUSH1 0x40 MLOAD SWAP1 DUP2 ADD PUSH1 0x40 MSTORE DUP1 SWAP3 SWAP2 SWAP1 DUP2 DUP2 MSTORE PUSH1 0x20 ADD DUP3 DUP1 SLOAD PUSH2 0x63A SWAP1 PUSH2 0x106B JUMP JUMPDEST DUP1 ISZERO PUSH2 0x685 JUMPI DUP1 PUSH1 0x1F LT PUSH2 0x65C JUMPI PUSH2 0x100 DUP1 DUP4 SLOAD DIV MUL DUP4 MSTORE SWAP2 PUSH1 0x20 ADD SWAP2 PUSH2 0x685 JUMP JUMPDEST DUP3 ADD SWAP2 SWAP1 PUSH0 MSTORE PUSH1 0x20 PUSH0 KECCAK256 SWAP1 JUMPDEST DUP2 SLOAD DUP2 MSTORE SWAP1 PUSH1 0x1 ADD SWAP1 PUSH1 0x20 ADD DUP1 DUP4 GT PUSH2 0x668 JUMPI DUP3 SWAP1 SUB PUSH1 0x1F AND DUP3 ADD SWAP2 JUMPDEST POP POP POP POP POP SWAP1 POP SWAP1 JUMP JUMPDEST PUSH0 DUP1 PUSH1 0x1 PUSH0 PUSH2 0x69C PUSH2 0x82B JUMP JUMPDEST PUSH20 0xFFFFFFFFFFFFFFFFFFFFFFFFFFFFFFFFFFFFFFFF AND PUSH20 0xFFFFFFFFFFFFFFFFFFFFFFFFFFFFFFFFFFFFFFFF AND DUP2 MSTORE PUSH1 0x20 ADD SWAP1 DUP2 MSTORE PUSH1 0x20 ADD PUSH0 KECCAK256 PUSH0 DUP6 PUSH20 0xFFFFFFFFFFFFFFFFFFFFFFFFFFFFFFFFFFFFFFFF AND PUSH20 0xFFFFFFFFFFFFFFFFFFFFFFFFFFFFFFFFFFFFFFFF AND DUP2 MSTORE PUSH1 0x20 ADD SWAP1 DUP2 MSTORE PUSH1 0x20 ADD PUSH0 KECCAK256 SLOAD SWAP1 POP DUP3 DUP2 LT ISZERO PUSH2 0x756 JUMPI PUSH1 0x40 MLOAD PUSH32 0x8C379A000000000000000000000000000000000000000000000000000000000 DUP2 MSTORE PUSH1 0x4 ADD PUSH2 0x74D SWAP1 PUSH2 0x11F9 JUMP JUMPDEST PUSH1 0x40 MLOAD DUP1 SWAP2 SUB SWAP1 REVERT JUMPDEST PUSH2 0x76A PUSH2 0x761 PUSH2 0x82B JUMP JUMPDEST DUP6 DUP6 DUP5 SUB PUSH2 0x832 JUMP JUMPDEST PUSH1 0x1 SWAP2 POP POP SWAP3 SWAP2 POP POP JUMP JUMPDEST PUSH0 PUSH2 0x788 PUSH2 0x781 PUSH2 0x82B JUMP JUMPDEST DUP5 DUP5 PUSH2 0x9F5 JUMP JUMPDEST PUSH1 0x1 SWAP1 POP SWAP3 SWAP2 POP POP JUMP JUMPDEST PUSH0 CALLER SWAP1 POP SWAP1 JUMP JUMPDEST PUSH1 0x60 PUSH2 0x7A4 TIMESTAMP PUSH2 0xC6A JUMP JUMPDEST SWAP1 POP SWAP1 JUMP JUMPDEST PUSH0 PUSH1 0x1 PUSH0 DUP5 PUSH20 0xFFFFFFFFFFFFFFFFFFFFFFFFFFFFFFFFFFFFFFFF AND PUSH20 0xFFFFFFFFFFFFFFFFFFFFFFFFFFFFFFFFFFFFFFFF AND DUP2 MSTORE PUSH1 0x20 ADD SWAP1 DUP2 MSTORE PUSH1 0x20 ADD PUSH0 KECCAK256 PUSH0 DUP4 PUSH20 0xFFFFFFFFFFFFFFFFFFFFFFFFFFFFFFFFFFFFFFFF AND PUSH20 0xFFFFFFFFFFFFFFFFFFFFFFFFFFFFFFFFFFFFFFFF AND DUP2 MSTORE PUSH1 0x20 ADD SWAP1 DUP2 MSTORE PUSH1 0x20 ADD PUSH0 KECCAK256 SLOAD SWAP1 POP SWAP3 SWAP2 POP POP JUMP JUMPDEST PUSH0 CALLER SWAP1 POP SWAP1 JUMP JUMPDEST PUSH0 PUSH20 0xFFFFFFFFFFFFFFFFFFFFFFFFFFFFFFFFFFFFFFFF AND DUP4 PUSH20 0xFFFFFFFFFFFFFFFFFFFFFFFFFFFFFFFFFFFFFFFF AND SUB PUSH2 0x8A0 JUMPI PUSH1 0x40 MLOAD PUSH32 0x8C379A000000000000000000000000000000000000000000000000000000000 DUP2 MSTORE PUSH1 0x4 ADD PUSH2 0x897 SWAP1 PUSH2 0x1287 JUMP JUMPDEST PUSH1 0x40 MLOAD DUP1 SWAP2 SUB SWAP1 REVERT JUMPDEST PUSH0 PUSH20 0xFFFFFFFFFFFFFFFFFFFFFFFFFFFFFFFFFFFFFFFF AND DUP3 PUSH20 0xFFFFFFFFFFFFFFFFFFFFFFFFFFFFFFFFFFFFFFFF AND SUB PUSH2 0x90E JUMPI PUSH1 0x40 MLOAD PUSH32 0x8C379A000000000000000000000000000000000000000000000000000000000 DUP2 MSTORE PUSH1 0x4 ADD PUSH2 0x905 SWAP1 PUSH2 0x1315 JUMP JUMPDEST PUSH1 0x40 MLOAD DUP1 SWAP2 SUB SWAP1 REVERT JUMPDEST DUP1 PUSH1 0x1 PUSH0 DUP6 PUSH20 0xFFFFFFFFFFFFFFFFFFFFFFFFFFFFFFFFFFFFFFFF AND PUSH20 0xFFFFFFFFFFFFFFFFFFFFFFFFFFFFFFFFFFFFFFFF AND DUP2 MSTORE PUSH1 0x20 ADD SWAP1 DUP2 MSTORE PUSH1 0x20 ADD PUSH0 KECCAK256 PUSH0 DUP5 PUSH20 0xFFFFFFFFFFFFFFFFFFFFFFFFFFFFFFFFFFFFFFFF AND PUSH20 0xFFFFFFFFFFFFFFFFFFFFFFFFFFFFFFFFFFFFFFFF AND DUP2 MSTORE PUSH1 0x20 ADD SWAP1 DUP2 MSTORE PUSH1 0x20 ADD PUSH0 KECCAK256 DUP2 SWAP1 SSTORE POP DUP2 PUSH20 0xFFFFFFFFFFFFFFFFFFFFFFFFFFFFFFFFFFFFFFFF AND DUP4 PUSH20 0xFFFFFFFFFFFFFFFFFFFFFFFFFFFFFFFFFFFFFFFF AND PUSH32 0x8C5BE1E5EBEC7D5BD14F71427D1E84F3DD0314C0F7B2291E5B200AC8C7C3B925 DUP4 PUSH1 0x40 MLOAD PUSH2 0x9E8 SWAP2 SWAP1 PUSH2 0xF10 JUMP JUMPDEST PUSH1 0x40 MLOAD DUP1 SWAP2 SUB SWAP1 LOG3 POP POP POP JUMP JUMPDEST PUSH0 PUSH20 0xFFFFFFFFFFFFFFFFFFFFFFFFFFFFFFFFFFFFFFFF AND DUP4 PUSH20 0xFFFFFFFFFFFFFFFFFFFFFFFFFFFFFFFFFFFFFFFF AND SUB PUSH2 0xA63 JUMPI PUSH1 0x40 MLOAD PUSH32 0x8C379A000000000000000000000000000000000000000000000000000000000 DUP2 MSTORE PUSH1 0x4 ADD PUSH2 0xA5A SWAP1 PUSH2 0x13A3 JUMP JUMPDEST PUSH1 0x40 MLOAD DUP1 SWAP2 SUB SWAP1 REVERT JUMPDEST PUSH0 PUSH20 0xFFFFFFFFFFFFFFFFFFFFFFFFFFFFFFFFFFFFFFFF AND DUP3 PUSH20 0xFFFFFFFFFFFFFFFFFFFFFFFFFFFFFFFFFFFFFFFF AND SUB PUSH2 0xAD1 JUMPI PUSH1 0x40 MLOAD PUSH32 0x8C379A000000000000000000000000000000000000000000000000000000000 DUP2 MSTORE PUSH1 0x4 ADD PUSH2 0xAC8 SWAP1 PUSH2 0x1431 JUMP JUMPDEST PUSH1 0x40 MLOAD DUP1 SWAP2 SUB SWAP1 REVERT JUMPDEST PUSH2 0xADC DUP4 DUP4 DUP4 PUSH2 0xC7E JUMP JUMPDEST PUSH0 DUP1 PUSH0 DUP6 PUSH20 0xFFFFFFFFFFFFFFFFFFFFFFFFFFFFFFFFFFFFFFFF AND PUSH20 0xFFFFFFFFFFFFFFFFFFFFFFFFFFFFFFFFFFFFFFFF AND DUP2 MSTORE PUSH1 0x20 ADD SWAP1 DUP2 MSTORE PUSH1 0x20 ADD PUSH0 KECCAK256 SLOAD SWAP1 POP DUP2 DUP2 LT ISZERO PUSH2 0xB5F JUMPI PUSH1 0x40 MLOAD PUSH32 0x8C379A000000000000000000000000000000000000000000000000000000000 DUP2 MSTORE PUSH1 0x4 ADD PUSH2 0xB56 SWAP1 PUSH2 0x14BF JUMP JUMPDEST PUSH1 0x40 MLOAD DUP1 SWAP2 SUB SWAP1 REVERT JUMPDEST DUP2 DUP2 SUB PUSH0 DUP1 DUP7 PUSH20 0xFFFFFFFFFFFFFFFFFFFFFFFFFFFFFFFFFFFFFFFF AND PUSH20 0xFFFFFFFFFFFFFFFFFFFFFFFFFFFFFFFFFFFFFFFF AND DUP2 MSTORE PUSH1 0x20 ADD SWAP1 DUP2 MSTORE PUSH1 0x20 ADD PUSH0 KECCAK256 DUP2 SWAP1 SSTORE POP DUP2 PUSH0 DUP1 DUP6 PUSH20 0xFFFFFFFFFFFFFFFFFFFFFFFFFFFFFFFFFFFFFFFF AND PUSH20 0xFFFFFFFFFFFFFFFFFFFFFFFFFFFFFFFFFFFFFFFF AND DUP2 MSTORE PUSH1 0x20 ADD SWAP1 DUP2 MSTORE PUSH1 0x20 ADD PUSH0 KECCAK256 PUSH0 DUP3 DUP3 SLOAD PUSH2 0xBED SWAP2 SWAP1 PUSH2 0x1156 JUMP JUMPDEST SWAP3 POP POP DUP2 SWAP1 SSTORE POP DUP3 PUSH20 0xFFFFFFFFFFFFFFFFFFFFFFFFFFFFFFFFFFFFFFFF AND DUP5 PUSH20 0xFFFFFFFFFFFFFFFFFFFFFFFFFFFFFFFFFFFFFFFF AND PUSH32 0xDDF252AD1BE2C89B69C2B068FC378DAA952BA7F163C4A11628F55A4DF523B3EF DUP5 PUSH1 0x40 MLOAD PUSH2 0xC51 SWAP2 SWAP1 PUSH2 0xF10 JUMP JUMPDEST PUSH1 0x40 MLOAD DUP1 SWAP2 SUB SWAP1 LOG3 PUSH2 0xC64 DUP5 DUP5 DUP5 PUSH2 0xC83 JUMP JUMPDEST POP POP POP POP JUMP JUMPDEST PUSH1 0x60 PUSH2 0xC77 DUP3 PUSH0 SHL PUSH2 0xC88 JUMP JUMPDEST SWAP1 POP SWAP2 SWAP1 POP JUMP JUMPDEST POP POP POP JUMP JUMPDEST POP POP POP JUMP JUMPDEST PUSH1 0x60 PUSH0 PUSH1 0x20 PUSH8 0xFFFFFFFFFFFFFFFF DUP2 GT ISZERO PUSH2 0xCA6 JUMPI PUSH2 0xCA5 PUSH2 0x14DD JUMP JUMPDEST JUMPDEST PUSH1 0x40 MLOAD SWAP1 DUP1 DUP3 MSTORE DUP1 PUSH1 0x1F ADD PUSH1 0x1F NOT AND PUSH1 0x20 ADD DUP3 ADD PUSH1 0x40 MSTORE DUP1 ISZERO PUSH2 0xCD8 JUMPI DUP2 PUSH1 0x20 ADD PUSH1 0x1 DUP3 MUL DUP1 CALLDATASIZE DUP4 CALLDATACOPY DUP1 DUP3 ADD SWAP2 POP POP SWAP1 POP JUMPDEST POP SWAP1 POP PUSH0 JUMPDEST PUSH1 0x20 DUP2 LT ISZERO PUSH2 0xD4B JUMPI DUP4 DUP2 PUSH1 0x20 DUP2 LT PUSH2 0xCF9 JUMPI PUSH2 0xCF8 PUSH2 0x150A JUMP JUMPDEST JUMPDEST BYTE PUSH1 0xF8 SHL DUP3 DUP3 DUP2 MLOAD DUP2 LT PUSH2 0xD10 JUMPI PUSH2 0xD0F PUSH2 0x150A JUMP JUMPDEST JUMPDEST PUSH1 0x20 ADD ADD SWAP1 PUSH31 0xFFFFFFFFFFFFFFFFFFFFFFFFFFFFFFFFFFFFFFFFFFFFFFFFFFFFFFFFFFFFFF NOT AND SWAP1 DUP2 PUSH0 BYTE SWAP1 MSTORE8 POP DUP1 DUP1 PUSH1 0x1 ADD SWAP2 POP POP PUSH2 0xCDD JUMP JUMPDEST POP DUP1 SWAP2 POP POP SWAP2 SWAP1 POP JUMP JUMPDEST PUSH0 DUP2 MLOAD SWAP1 POP SWAP2 SWAP1 POP JUMP JUMPDEST PUSH0 DUP3 DUP3 MSTORE PUSH1 0x20 DUP3 ADD SWAP1 POP SWAP3 SWAP2 POP POP JUMP JUMPDEST PUSH0 JUMPDEST DUP4 DUP2 LT ISZERO PUSH2 0xD8C JUMPI DUP1 DUP3 ADD MLOAD DUP2 DUP5 ADD MSTORE PUSH1 0x20 DUP2 ADD SWAP1 POP PUSH2 0xD71 JUMP JUMPDEST PUSH0 DUP5 DUP5 ADD MSTORE POP POP POP POP JUMP JUMPDEST PUSH0 PUSH1 0x1F NOT PUSH1 0x1F DUP4 ADD AND SWAP1 POP SWAP2 SWAP1 POP JUMP JUMPDEST PUSH0 PUSH2 0xDB1 DUP3 PUSH2 0xD55 JUMP JUMPDEST PUSH2 0xDBB DUP2 DUP6 PUSH2 0xD5F JUMP JUMPDEST SWAP4 POP PUSH2 0xDCB DUP2 DUP6 PUSH1 0x20 DUP7 ADD PUSH2 0xD6F JUMP JUMPDEST PUSH2 0xDD4 DUP2 PUSH2 0xD97 JUMP JUMPDEST DUP5 ADD SWAP2 POP POP SWAP3 SWAP2 POP POP JUMP JUMPDEST PUSH0 PUSH1 0x20 DUP3 ADD SWAP1 POP DUP2 DUP2 SUB PUSH0 DUP4 ADD MSTORE PUSH2 0xDF7 DUP2 DUP5 PUSH2 0xDA7 JUMP JUMPDEST SWAP1 POP SWAP3 SWAP2 POP POP JUMP JUMPDEST PUSH0 DUP1 REVERT JUMPDEST PUSH0 PUSH20 0xFFFFFFFFFFFFFFFFFFFFFFFFFFFFFFFFFFFFFFFF DUP3 AND SWAP1 POP SWAP2 SWAP1 POP JUMP JUMPDEST PUSH0 PUSH2 0xE2C DUP3 PUSH2 0xE03 JUMP JUMPDEST SWAP1 POP SWAP2 SWAP1 POP JUMP JUMPDEST PUSH2 0xE3C DUP2 PUSH2 0xE22 JUMP JUMPDEST DUP2 EQ PUSH2 0xE46 JUMPI PUSH0 DUP1 REVERT JUMPDEST POP JUMP JUMPDEST PUSH0 DUP2 CALLDATALOAD SWAP1 POP PUSH2 0xE57 DUP2 PUSH2 0xE33 JUMP JUMPDEST SWAP3 SWAP2 POP POP JUMP JUMPDEST PUSH0 DUP2 SWAP1 POP SWAP2 SWAP1 POP JUMP JUMPDEST PUSH2 0xE6F DUP2 PUSH2 0xE5D JUMP JUMPDEST DUP2 EQ PUSH2 0xE79 JUMPI PUSH0 DUP1 REVERT JUMPDEST POP JUMP JUMPDEST PUSH0 DUP2 CALLDATALOAD SWAP1 POP PUSH2 0xE8A DUP2 PUSH2 0xE66 JUMP JUMPDEST SWAP3 SWAP2 POP POP JUMP JUMPDEST PUSH0 DUP1 PUSH1 0x40 DUP4 DUP6 SUB SLT ISZERO PUSH2 0xEA6 JUMPI PUSH2 0xEA5 PUSH2 0xDFF JUMP JUMPDEST JUMPDEST PUSH0 PUSH2 0xEB3 DUP6 DUP3 DUP7 ADD PUSH2 0xE49 JUMP JUMPDEST SWAP3 POP POP PUSH1 0x20 PUSH2 0xEC4 DUP6 DUP3 DUP7 ADD PUSH2 0xE7C JUMP JUMPDEST SWAP2 POP POP SWAP3 POP SWAP3 SWAP1 POP JUMP JUMPDEST PUSH0 DUP2 ISZERO ISZERO SWAP1 POP SWAP2 SWAP1 POP JUMP JUMPDEST PUSH2 0xEE2 DUP2 PUSH2 0xECE JUMP JUMPDEST DUP3 MSTORE POP POP JUMP JUMPDEST PUSH0 PUSH1 0x20 DUP3 ADD SWAP1 POP PUSH2 0xEFB PUSH0 DUP4 ADD DUP5 PUSH2 0xED9 JUMP JUMPDEST SWAP3 SWAP2 POP POP JUMP JUMPDEST PUSH2 0xF0A DUP2 PUSH2 0xE5D JUMP JUMPDEST DUP3 MSTORE POP POP JUMP JUMPDEST PUSH0 PUSH1 0x20 DUP3 ADD SWAP1 POP PUSH2 0xF23 PUSH0 DUP4 ADD DUP5 PUSH2 0xF01 JUMP JUMPDEST SWAP3 SWAP2 POP POP JUMP JUMPDEST PUSH0 DUP1 PUSH0 PUSH1 0x60 DUP5 DUP7 SUB SLT ISZERO PUSH2 0xF40 JUMPI PUSH2 0xF3F PUSH2 0xDFF JUMP JUMPDEST JUMPDEST PUSH0 PUSH2 0xF4D DUP7 DUP3 DUP8 ADD PUSH2 0xE49 JUMP JUMPDEST SWAP4 POP POP PUSH1 0x20 PUSH2 0xF5E DUP7 DUP3 DUP8 ADD PUSH2 0xE49 JUMP JUMPDEST SWAP3 POP POP PUSH1 0x40 PUSH2 0xF6F DUP7 DUP3 DUP8 ADD PUSH2 0xE7C JUMP JUMPDEST SWAP2 POP POP SWAP3 POP SWAP3 POP SWAP3 JUMP JUMPDEST PUSH0 PUSH1 0xFF DUP3 AND SWAP1 POP SWAP2 SWAP1 POP JUMP JUMPDEST PUSH2 0xF8E DUP2 PUSH2 0xF79 JUMP JUMPDEST DUP3 MSTORE POP POP JUMP JUMPDEST PUSH0 PUSH1 0x20 DUP3 ADD SWAP1 POP PUSH2 0xFA7 PUSH0 DUP4 ADD DUP5 PUSH2 0xF85 JUMP JUMPDEST SWAP3 SWAP2 POP POP JUMP JUMPDEST PUSH0 PUSH1 0x20 DUP3 DUP5 SUB SLT ISZERO PUSH2 0xFC2 JUMPI PUSH2 0xFC1 PUSH2 0xDFF JUMP JUMPDEST JUMPDEST PUSH0 PUSH2 0xFCF DUP5 DUP3 DUP6 ADD PUSH2 0xE49 JUMP JUMPDEST SWAP2 POP POP SWAP3 SWAP2 POP POP JUMP JUMPDEST PUSH2 0xFE1 DUP2 PUSH2 0xE22 JUMP JUMPDEST DUP3 MSTORE POP POP JUMP JUMPDEST PUSH0 PUSH1 0x20 DUP3 ADD SWAP1 POP PUSH2 0xFFA PUSH0 DUP4 ADD DUP5 PUSH2 0xFD8 JUMP JUMPDEST SWAP3 SWAP2 POP POP JUMP JUMPDEST PUSH0 DUP1 PUSH1 0x40 DUP4 DUP6 SUB SLT ISZERO PUSH2 0x1016 JUMPI PUSH2 0x1015 PUSH2 0xDFF JUMP JUMPDEST JUMPDEST PUSH0 PUSH2 0x1023 DUP6 DUP3 DUP7 ADD PUSH2 0xE49 JUMP JUMPDEST SWAP3 POP POP PUSH1 0x20 PUSH2 0x1034 DUP6 DUP3 DUP7 ADD PUSH2 0xE49 JUMP JUMPDEST SWAP2 POP POP SWAP3 POP SWAP3 SWAP1 POP JUMP JUMPDEST PUSH32 0x4E487B7100000000000000000000000000000000000000000000000000000000 PUSH0 MSTORE PUSH1 0x22 PUSH1 0x4 MSTORE PUSH1 0x24 PUSH0 REVERT JUMPDEST PUSH0 PUSH1 0x2 DUP3 DIV SWAP1 POP PUSH1 0x1 DUP3 AND DUP1 PUSH2 0x1082 JUMPI PUSH1 0x7F DUP3 AND SWAP2 POP JUMPDEST PUSH1 0x20 DUP3 LT DUP2 SUB PUSH2 0x1095 JUMPI PUSH2 0x1094 PUSH2 0x103E JUMP JUMPDEST JUMPDEST POP SWAP2 SWAP1 POP JUMP JUMPDEST PUSH32 0x45524332303A207472616E7366657220616D6F756E7420657863656564732061 PUSH0 DUP3 ADD MSTORE PUSH32 0x6C6C6F77616E6365000000000000000000000000000000000000000000000000 PUSH1 0x20 DUP3 ADD MSTORE POP JUMP JUMPDEST PUSH0 PUSH2 0x10F5 PUSH1 0x28 DUP4 PUSH2 0xD5F JUMP JUMPDEST SWAP2 POP PUSH2 0x1100 DUP3 PUSH2 0x109B JUMP JUMPDEST PUSH1 0x40 DUP3 ADD SWAP1 POP SWAP2 SWAP1 POP JUMP JUMPDEST PUSH0 PUSH1 0x20 DUP3 ADD SWAP1 POP DUP2 DUP2 SUB PUSH0 DUP4 ADD MSTORE PUSH2 0x1122 DUP2 PUSH2 0x10E9 JUMP JUMPDEST SWAP1 POP SWAP2 SWAP1 POP JUMP JUMPDEST PUSH32 0x4E487B7100000000000000000000000000000000000000000000000000000000 PUSH0 MSTORE PUSH1 0x11 PUSH1 0x4 MSTORE PUSH1 0x24 PUSH0 REVERT JUMPDEST PUSH0 PUSH2 0x1160 DUP3 PUSH2 0xE5D JUMP JUMPDEST SWAP2 POP PUSH2 0x116B DUP4 PUSH2 0xE5D JUMP JUMPDEST SWAP3 POP DUP3 DUP3 ADD SWAP1 POP DUP1 DUP3 GT ISZERO PUSH2 0x1183 JUMPI PUSH2 0x1182 PUSH2 0x1129 JUMP JUMPDEST JUMPDEST SWAP3 SWAP2 POP POP JUMP JUMPDEST PUSH32 0x45524332303A2064656372656173656420616C6C6F77616E63652062656C6F77 PUSH0 DUP3 ADD MSTORE PUSH32 0x207A65726F000000000000000000000000000000000000000000000000000000 PUSH1 0x20 DUP3 ADD MSTORE POP JUMP JUMPDEST PUSH0 PUSH2 0x11E3 PUSH1 0x25 DUP4 PUSH2 0xD5F JUMP JUMPDEST SWAP2 POP PUSH2 0x11EE DUP3 PUSH2 0x1189 JUMP JUMPDEST PUSH1 0x40 DUP3 ADD SWAP1 POP SWAP2 SWAP1 POP JUMP JUMPDEST PUSH0 PUSH1 0x20 DUP3 ADD SWAP1 POP DUP2 DUP2 SUB PUSH0 DUP4 ADD MSTORE PUSH2 0x1210 DUP2 PUSH2 0x11D7 JUMP JUMPDEST SWAP1 POP SWAP2 SWAP1 POP JUMP JUMPDEST PUSH32 0x45524332303A20617070726F76652066726F6D20746865207A65726F20616464 PUSH0 DUP3 ADD MSTORE PUSH32 0x7265737300000000000000000000000000000000000000000000000000000000 PUSH1 0x20 DUP3 ADD MSTORE POP JUMP JUMPDEST PUSH0 PUSH2 0x1271 PUSH1 0x24 DUP4 PUSH2 0xD5F JUMP JUMPDEST SWAP2 POP PUSH2 0x127C DUP3 PUSH2 0x1217 JUMP JUMPDEST PUSH1 0x40 DUP3 ADD SWAP1 POP SWAP2 SWAP1 POP JUMP JUMPDEST PUSH0 PUSH1 0x20 DUP3 ADD SWAP1 POP DUP2 DUP2 SUB PUSH0 DUP4 ADD MSTORE PUSH2 0x129E DUP2 PUSH2 0x1265 JUMP JUMPDEST SWAP1 POP SWAP2 SWAP1 POP JUMP JUMPDEST PUSH32 0x45524332303A20617070726F766520746F20746865207A65726F206164647265 PUSH0 DUP3 ADD MSTORE PUSH32 0x7373000000000000000000000000000000000000000000000000000000000000 PUSH1 0x20 DUP3 ADD MSTORE POP JUMP JUMPDEST PUSH0 PUSH2 0x12FF PUSH1 0x22 DUP4 PUSH2 0xD5F JUMP JUMPDEST SWAP2 POP PUSH2 0x130A DUP3 PUSH2 0x12A5 JUMP JUMPDEST PUSH1 0x40 DUP3 ADD SWAP1 POP SWAP2 SWAP1 POP JUMP JUMPDEST PUSH0 PUSH1 0x20 DUP3 ADD SWAP1 POP DUP2 DUP2 SUB PUSH0 DUP4 ADD MSTORE PUSH2 0x132C DUP2 PUSH2 0x12F3 JUMP JUMPDEST SWAP1 POP SWAP2 SWAP1 POP JUMP JUMPDEST PUSH32 0x45524332303A207472616E736665722066726F6D20746865207A65726F206164 PUSH0 DUP3 ADD MSTORE PUSH32 0x6472657373000000000000000000000000000000000000000000000000000000 PUSH1 0x20 DUP3 ADD MSTORE POP JUMP JUMPDEST PUSH0 PUSH2 0x138D PUSH1 0x25 DUP4 PUSH2 0xD5F JUMP JUMPDEST SWAP2 POP PUSH2 0x1398 DUP3 PUSH2 0x1333 JUMP JUMPDEST PUSH1 0x40 DUP3 ADD SWAP1 POP SWAP2 SWAP1 POP JUMP JUMPDEST PUSH0 PUSH1 0x20 DUP3 ADD SWAP1 POP DUP2 DUP2 SUB PUSH0 DUP4 ADD MSTORE PUSH2 0x13BA DUP2 PUSH2 0x1381 JUMP JUMPDEST SWAP1 POP SWAP2 SWAP1 POP JUMP JUMPDEST PUSH32 0x45524332303A207472616E7366657220746F20746865207A65726F2061646472 PUSH0 DUP3 ADD MSTORE PUSH32 0x6573730000000000000000000000000000000000000000000000000000000000 PUSH1 0x20 DUP3 ADD MSTORE POP JUMP JUMPDEST PUSH0 PUSH2 0x141B PUSH1 0x23 DUP4 PUSH2 0xD5F JUMP JUMPDEST SWAP2 POP PUSH2 0x1426 DUP3 PUSH2 0x13C1 JUMP JUMPDEST PUSH1 0x40 DUP3 ADD SWAP1 POP SWAP2 SWAP1 POP JUMP JUMPDEST PUSH0 PUSH1 0x20 DUP3 ADD SWAP1 POP DUP2 DUP2 SUB PUSH0 DUP4 ADD MSTORE PUSH2 0x1448 DUP2 PUSH2 0x140F JUMP JUMPDEST SWAP1 POP SWAP2 SWAP1 POP JUMP JUMPDEST PUSH32 0x45524332303A207472616E7366657220616D6F756E7420657863656564732062 PUSH0 DUP3 ADD MSTORE PUSH32 0x616C616E63650000000000000000000000000000000000000000000000000000 PUSH1 0x20 DUP3 ADD MSTORE POP JUMP JUMPDEST PUSH0 PUSH2 0x14A9 PUSH1 0x26 DUP4 PUSH2 0xD5F JUMP JUMPDEST SWAP2 POP PUSH2 0x14B4 DUP3 PUSH2 0x144F JUMP JUMPDEST PUSH1 0x40 DUP3 ADD SWAP1 POP SWAP2 SWAP1 POP JUMP JUMPDEST PUSH0 PUSH1 0x20 DUP3 ADD SWAP1 POP DUP2 DUP2 SUB PUSH0 DUP4 ADD MSTORE PUSH2 0x14D6 DUP2 PUSH2 0x149D JUMP JUMPDEST SWAP1 POP SWAP2 SWAP1 POP JUMP JUMPDEST PUSH32 0x4E487B7100000000000000000000000000000000000000000000000000000000 PUSH0 MSTORE PUSH1 0x41 PUSH1 0x4 MSTORE PUSH1 0x24 PUSH0 REVERT JUMPDEST PUSH32 0x4E487B7100000000000000000000000000000000000000000000000000000000 PUSH0 MSTORE PUSH1 0x32 PUSH1 0x4 MSTORE PUSH1 0x24 PUSH0 REVERT INVALID LOG2 PUSH5 0x6970667358 0x22 SLT KECCAK256 0xD3 0xA6 PUSH19 0xD71067B2DC8F6E0CE81E6C033454233C48D4F8 POP SWAP9 CALLDATASIZE 0xC5 CHAINID RETURNDATACOPY 0x24 0x28 0xB3 PUSH8 0x64736F6C63430008 AND STOP CALLER "
				},
				"gasEstimates": {
					"creation": {
						"codeDepositCost": "1097000",
						"executionCost": "infinite",
						"totalCost": "infinite"
					},
					"external": {
						"allowance(address,address)": "infinite",
						"approve(address,uint256)": "infinite",
						"balanceOf(address)": "2918",
						"decimals()": "383",
						"decreaseAllowance(address,uint256)": "infinite",
						"getLatestTransactionTimestamp()": "infinite",
						"getTransactionReceiver()": "402",
						"getTransactionSender()": "423",
						"increaseAllowance(address,uint256)": "infinite",
						"name()": "infinite",
						"owner()": "2553",
						"symbol()": "infinite",
						"totalSupply()": "2500",
						"transfer(address,uint256)": "infinite",
						"transferFrom(address,address,uint256)": "infinite"
					},
					"internal": {
						"bytes32ToString(bytes32)": "infinite",
						"timestampToString(uint256)": "infinite"
					}
				},
				"methodIdentifiers": {
					"allowance(address,address)": "dd62ed3e",
					"approve(address,uint256)": "095ea7b3",
					"balanceOf(address)": "70a08231",
					"decimals()": "313ce567",
					"decreaseAllowance(address,uint256)": "a457c2d7",
					"getLatestTransactionTimestamp()": "d45e3f4a",
					"getTransactionReceiver()": "841b39fc",
					"getTransactionSender()": "bead3f50",
					"increaseAllowance(address,uint256)": "39509351",
					"name()": "06fdde03",
					"owner()": "8da5cb5b",
					"symbol()": "95d89b41",
					"totalSupply()": "18160ddd",
					"transfer(address,uint256)": "a9059cbb",
					"transferFrom(address,address,uint256)": "23b872dd"
				}
			},
			"storageLayout": {
				"storage": [
					{
						"astId": 134,
						"contract": "erc20.sol:CustomToken",
						"label": "_balances",
						"offset": 0,
						"slot": "0",
						"type": "t_mapping(t_address,t_uint256)"
					},
					{
						"astId": 140,
						"contract": "erc20.sol:CustomToken",
						"label": "_allowances",
						"offset": 0,
						"slot": "1",
						"type": "t_mapping(t_address,t_mapping(t_address,t_uint256))"
					},
					{
						"astId": 142,
						"contract": "erc20.sol:CustomToken",
						"label": "_totalSupply",
						"offset": 0,
						"slot": "2",
						"type": "t_uint256"
					},
					{
						"astId": 144,
						"contract": "erc20.sol:CustomToken",
						"label": "_name",
						"offset": 0,
						"slot": "3",
						"type": "t_string_storage"
					},
					{
						"astId": 146,
						"contract": "erc20.sol:CustomToken",
						"label": "_symbol",
						"offset": 0,
						"slot": "4",
						"type": "t_string_storage"
					},
					{
						"astId": 6,
						"contract": "erc20.sol:CustomToken",
						"label": "owner",
						"offset": 0,
						"slot": "5",
						"type": "t_address"
					}
				],
				"types": {
					"t_address": {
						"encoding": "inplace",
						"label": "address",
						"numberOfBytes": "20"
					},
					"t_mapping(t_address,t_mapping(t_address,t_uint256))": {
						"encoding": "mapping",
						"key": "t_address",
						"label": "mapping(address => mapping(address => uint256))",
						"numberOfBytes": "32",
						"value": "t_mapping(t_address,t_uint256)"
					},
					"t_mapping(t_address,t_uint256)": {
						"encoding": "mapping",
						"key": "t_address",
						"label": "mapping(address => uint256)",
						"numberOfBytes": "32",
						"value": "t_uint256"
					},
					"t_string_storage": {
						"encoding": "bytes",
						"label": "string",
						"numberOfBytes": "32"
					},
					"t_uint256": {
						"encoding": "inplace",
						"label": "uint256",
						"numberOfBytes": "32"
					}
				}
			},
			"userdoc": {
				"kind": "user",
				"methods": {},
				"version": 1
			}
		}
	}
}